{
  "_format": "hh-sol-artifact-1",
  "contractName": "CorePad",
  "sourceName": "contracts/CorePad.sol",
  "abi": [
    {
      "inputs": [
        {
          "internalType": "address",
          "name": "stakedTokenAddress_",
          "type": "address"
        }
      ],
      "stateMutability": "nonpayable",
      "type": "constructor"
    },
    {
      "anonymous": false,
      "inputs": [
        {
          "indexed": true,
          "internalType": "address",
          "name": "previousOwner",
          "type": "address"
        },
        {
          "indexed": true,
          "internalType": "address",
          "name": "newOwner",
          "type": "address"
        }
      ],
      "name": "OwnershipTransferred",
      "type": "event"
    },
    {
      "inputs": [],
      "name": "PRICE_DECIMALS",
      "outputs": [
        {
          "internalType": "uint256",
          "name": "",
          "type": "uint256"
        }
      ],
      "stateMutability": "view",
      "type": "function"
    },
    {
      "inputs": [
        {
          "internalType": "enum CorePad.SaleType",
          "name": "saleType_",
          "type": "uint8"
        },
        {
          "internalType": "address",
          "name": "projectTokenAddress_",
          "type": "address"
        },
        {
          "internalType": "address",
          "name": "principalToken_",
          "type": "address"
        },
        {
          "internalType": "address",
          "name": "adminAddress_",
          "type": "address"
        },
        {
          "internalType": "address",
          "name": "projectSaleContractAddress_",
          "type": "address"
        }
      ],
      "name": "addProject",
      "outputs": [
        {
          "internalType": "uint32",
          "name": "",
          "type": "uint32"
        }
      ],
      "stateMutability": "nonpayable",
      "type": "function"
    },
    {
      "inputs": [
        {
          "internalType": "uint32",
          "name": "projectId_",
          "type": "uint32"
        },
        {
          "internalType": "uint32",
          "name": "startTime_",
          "type": "uint32"
        },
        {
          "internalType": "uint32",
          "name": "endTime_",
          "type": "uint32"
        },
        {
          "internalType": "uint256",
          "name": "amountToRaise_",
          "type": "uint256"
        },
        {
          "internalType": "uint256",
          "name": "price_",
          "type": "uint256"
        },
        {
          "internalType": "uint256",
          "name": "maxTokenPerUser_",
          "type": "uint256"
        },
        {
          "internalType": "uint256",
          "name": "tokenTotalSupply_",
          "type": "uint256"
        }
      ],
      "name": "addProjectMetaData",
      "outputs": [],
      "stateMutability": "nonpayable",
      "type": "function"
    },
    {
      "inputs": [],
      "name": "getEcosystemManager",
      "outputs": [
        {
          "internalType": "address",
          "name": "",
          "type": "address"
        }
      ],
      "stateMutability": "view",
      "type": "function"
    },
    {
      "inputs": [],
      "name": "getNFTAddressForPrivateSale",
      "outputs": [
        {
          "internalType": "address",
          "name": "",
          "type": "address"
        }
      ],
      "stateMutability": "view",
      "type": "function"
    },
    {
      "inputs": [
        {
          "internalType": "uint8",
          "name": "projectId_",
          "type": "uint8"
        }
      ],
      "name": "getProjectContractAddress",
      "outputs": [
        {
          "internalType": "address",
          "name": "",
          "type": "address"
        }
      ],
      "stateMutability": "view",
      "type": "function"
    },
    {
      "inputs": [],
      "name": "getProjectId",
      "outputs": [
        {
          "internalType": "uint256",
          "name": "",
          "type": "uint256"
        }
      ],
      "stateMutability": "view",
      "type": "function"
    },
    {
      "inputs": [
        {
          "internalType": "uint32",
          "name": "projectId_",
          "type": "uint32"
        }
      ],
      "name": "getRateInfoForProject",
      "outputs": [
        {
          "internalType": "uint32",
          "name": "",
          "type": "uint32"
        }
      ],
      "stateMutability": "view",
      "type": "function"
    },
    {
      "inputs": [],
      "name": "getStakedAddress",
      "outputs": [
        {
          "internalType": "address",
          "name": "",
          "type": "address"
        }
      ],
      "stateMutability": "view",
      "type": "function"
    },
    {
      "inputs": [],
      "name": "getTotalPlatformFee",
      "outputs": [
        {
          "internalType": "uint256",
          "name": "",
          "type": "uint256"
        }
      ],
      "stateMutability": "view",
      "type": "function"
    },
    {
      "inputs": [],
      "name": "owner",
      "outputs": [
        {
          "internalType": "address",
          "name": "",
          "type": "address"
        }
      ],
      "stateMutability": "view",
      "type": "function"
    },
    {
      "inputs": [
        {
          "internalType": "uint32",
          "name": "",
          "type": "uint32"
        }
      ],
      "name": "projectInfoMapping",
      "outputs": [
        {
          "internalType": "string",
          "name": "ipfsId",
          "type": "string"
        },
        {
          "internalType": "address",
          "name": "projectToken",
          "type": "address"
        },
        {
          "internalType": "address",
          "name": "principalToken",
          "type": "address"
        },
        {
          "internalType": "uint256",
          "name": "totalAmountToRaise",
          "type": "uint256"
        },
        {
          "components": [
            {
              "internalType": "uint256",
              "name": "totalTokenSupply",
              "type": "uint256"
            },
            {
              "internalType": "uint256",
              "name": "price",
              "type": "uint256"
            },
            {
              "internalType": "uint256",
              "name": "maxTokenPerUser",
              "type": "uint256"
            }
          ],
          "internalType": "struct CorePad.TokenInfo",
          "name": "tokenInfo",
          "type": "tuple"
        },
        {
          "internalType": "enum CorePad.SaleType",
          "name": "saleType",
          "type": "uint8"
        },
        {
          "components": [
            {
              "internalType": "uint32",
              "name": "startTimestamp",
              "type": "uint32"
            },
            {
              "internalType": "uint32",
              "name": "endTimestamp",
              "type": "uint32"
            }
          ],
          "internalType": "struct CorePad.ProjectSaleTime",
          "name": "projectSaleTime",
          "type": "tuple"
        },
        {
          "internalType": "address",
          "name": "admin",
          "type": "address"
        },
        {
          "internalType": "bool",
          "name": "isValue",
          "type": "bool"
        }
      ],
      "stateMutability": "view",
      "type": "function"
    },
    {
      "inputs": [],
      "name": "renounceOwnership",
      "outputs": [],
      "stateMutability": "nonpayable",
      "type": "function"
    },
    {
      "inputs": [
        {
          "internalType": "address",
          "name": "ecosystemManager_",
          "type": "address"
        }
      ],
      "name": "setEcosystemManager",
      "outputs": [],
      "stateMutability": "nonpayable",
      "type": "function"
    },
    {
      "inputs": [
        {
          "internalType": "address",
          "name": "nftAddress_",
          "type": "address"
        }
      ],
      "name": "setNFTAddress",
      "outputs": [],
      "stateMutability": "nonpayable",
      "type": "function"
    },
    {
      "inputs": [
        {
          "internalType": "uint8",
          "name": "projectId_",
          "type": "uint8"
        },
        {
          "internalType": "uint32",
          "name": "ratePercent_",
          "type": "uint32"
        }
      ],
      "name": "setRateInfo",
      "outputs": [],
      "stateMutability": "nonpayable",
      "type": "function"
    },
    {
      "inputs": [
        {
          "internalType": "address",
          "name": "newOwner",
          "type": "address"
        }
      ],
      "name": "transferOwnership",
      "outputs": [],
      "stateMutability": "nonpayable",
      "type": "function"
    },
    {
      "inputs": [
        {
          "internalType": "uint8",
          "name": "projectId_",
          "type": "uint8"
        }
      ],
      "name": "withdrawRaisedAmount",
      "outputs": [],
      "stateMutability": "nonpayable",
      "type": "function"
    }
  ],
  "bytecode": "0x60806040523480156200001157600080fd5b5060405162002f4938038062002f498339818101604052810190620000379190620001df565b620000576200004b620000fc60201b60201c565b6200010460201b60201c565b600073ffffffffffffffffffffffffffffffffffffffff168173ffffffffffffffffffffffffffffffffffffffff1614156200009257600080fd5b80600560006101000a81548173ffffffffffffffffffffffffffffffffffffffff021916908373ffffffffffffffffffffffffffffffffffffffff1602179055506000600260006101000a81548163ffffffff021916908363ffffffff1602179055505062000259565b600033905090565b60008060009054906101000a900473ffffffffffffffffffffffffffffffffffffffff169050816000806101000a81548173ffffffffffffffffffffffffffffffffffffffff021916908373ffffffffffffffffffffffffffffffffffffffff1602179055508173ffffffffffffffffffffffffffffffffffffffff168173ffffffffffffffffffffffffffffffffffffffff167f8be0079c531659141344cd1fd0a4f28419497f9722a3daafe3b4186f6b6457e060405160405180910390a35050565b600081519050620001d9816200023f565b92915050565b600060208284031215620001f257600080fd5b60006200020284828501620001c8565b91505092915050565b600062000218826200021f565b9050919050565b600073ffffffffffffffffffffffffffffffffffffffff82169050919050565b6200024a816200020b565b81146200025657600080fd5b50565b612ce080620002696000396000f3fe608060405234801561001057600080fd5b50600436106101165760003560e01c806369d03738116100a25780638da5cb5b116100715780638da5cb5b146102d7578063a718f5c5146102f5578063cb36d3f614610311578063f1a640f81461032d578063f2fde38b1461034b57610116565b806369d0373814610277578063715018a6146102935780637cbc836d1461029d5780638cd75b26146102bb57610116565b806310ea1d6b116100e957806310ea1d6b146101d15780631270e10c146101ef5780632945f1071461020d5780632af3f0071461023d578063504418641461025957610116565b8063046f78bf1461011b5780630d19acc3146101535780630d27afe2146101835780630fafd7e5146101a1575b600080fd5b61013560048036038101906101309190612231565b610367565b60405161014a999897969594939291906125cb565b60405180910390f35b61016d600480360381019061016891906122f8565b610535565b60405161017a9190612565565b60405180910390f35b61018b6105d9565b6040516101989190612565565b60405180910390f35b6101bb60048036038101906101b69190612231565b610603565b6040516101c8919061278c565b60405180910390f35b6101d96106b8565b6040516101e69190612771565b60405180910390f35b6101f761073e565b6040516102049190612771565b60405180910390f35b61022760048036038101906102229190612191565b61075e565b604051610234919061278c565b60405180910390f35b6102576004803603810190610252919061225a565b610cfb565b005b610261611000565b60405161026e9190612565565b60405180910390f35b610291600480360381019061028c919061213f565b61102a565b005b61029b611124565b005b6102a56111ac565b6040516102b29190612565565b60405180910390f35b6102d560048036038101906102d09190612321565b6111d6565b005b6102df6112ef565b6040516102ec9190612565565b60405180910390f35b61030f600480360381019061030a91906122f8565b611318565b005b61032b6004803603810190610326919061213f565b611a58565b005b610335611b52565b6040516103429190612771565b60405180910390f35b6103656004803603810190610360919061213f565b611b5e565b005b600160205280600052604060002060009150905080600001805461038a906129cf565b80601f01602080910402602001604051908101604052809291908181526020018280546103b6906129cf565b80156104035780601f106103d857610100808354040283529160200191610403565b820191906000526020600020905b8154815290600101906020018083116103e657829003601f168201915b5050505050908060010160009054906101000a900473ffffffffffffffffffffffffffffffffffffffff16908060020160009054906101000a900473ffffffffffffffffffffffffffffffffffffffff1690806003015490806004016040518060600160405290816000820154815260200160018201548152602001600282015481525050908060070160009054906101000a900460ff1690806008016040518060400160405290816000820160009054906101000a900463ffffffff1663ffffffff1663ffffffff1681526020016000820160049054906101000a900463ffffffff1663ffffffff1663ffffffff1681525050908060090160009054906101000a900473ffffffffffffffffffffffffffffffffffffffff16908060090160149054906101000a900460ff16905089565b6000600260009054906101000a900463ffffffff1663ffffffff168260ff161115610595576040517f08c379a000000000000000000000000000000000000000000000000000000000815260040161058c90612711565b60405180910390fd5b600360008360ff1663ffffffff16815260200190815260200160002060009054906101000a900473ffffffffffffffffffffffffffffffffffffffff169050919050565b6000600560009054906101000a900473ffffffffffffffffffffffffffffffffffffffff16905090565b600061060d611c56565b73ffffffffffffffffffffffffffffffffffffffff1661062b6112ef565b73ffffffffffffffffffffffffffffffffffffffff1614610681576040517f08c379a0000000000000000000000000000000000000000000000000000000008152600401610678906126b1565b60405180910390fd5b600460008363ffffffff1663ffffffff16815260200190815260200160002060009054906101000a900463ffffffff169050919050565b60006106c2611c56565b73ffffffffffffffffffffffffffffffffffffffff166106e06112ef565b73ffffffffffffffffffffffffffffffffffffffff1614610736576040517f08c379a000000000000000000000000000000000000000000000000000000000815260040161072d906126b1565b60405180910390fd5b600854905090565b6000600260009054906101000a900463ffffffff1663ffffffff16905090565b6000610768611c56565b73ffffffffffffffffffffffffffffffffffffffff166107866112ef565b73ffffffffffffffffffffffffffffffffffffffff16146107dc576040517f08c379a00000000000000000000000000000000000000000000000000000000081526004016107d3906126b1565b60405180910390fd5b600073ffffffffffffffffffffffffffffffffffffffff168573ffffffffffffffffffffffffffffffffffffffff16141561081657600080fd5b600073ffffffffffffffffffffffffffffffffffffffff168473ffffffffffffffffffffffffffffffffffffffff16141561085057600080fd5b600073ffffffffffffffffffffffffffffffffffffffff168373ffffffffffffffffffffffffffffffffffffffff16141561088a57600080fd5b600073ffffffffffffffffffffffffffffffffffffffff168273ffffffffffffffffffffffffffffffffffffffff1614156108c457600080fd5b6001600260008282829054906101000a900463ffffffff166108e69190612819565b92506101000a81548163ffffffff021916908363ffffffff16021790555061090c611eee565b85816020019073ffffffffffffffffffffffffffffffffffffffff16908173ffffffffffffffffffffffffffffffffffffffff168152505084816040019073ffffffffffffffffffffffffffffffffffffffff16908173ffffffffffffffffffffffffffffffffffffffff1681525050838160e0019073ffffffffffffffffffffffffffffffffffffffff16908173ffffffffffffffffffffffffffffffffffffffff1681525050868160a0019060028111156109f2577f4e487b7100000000000000000000000000000000000000000000000000000000600052602160045260246000fd5b90816002811115610a2c577f4e487b7100000000000000000000000000000000000000000000000000000000600052602160045260246000fd5b815250506001816101000190151590811515815250508260036000600260009054906101000a900463ffffffff1663ffffffff1663ffffffff16815260200190815260200160002060006101000a81548173ffffffffffffffffffffffffffffffffffffffff021916908373ffffffffffffffffffffffffffffffffffffffff1602179055508060016000600260009054906101000a900463ffffffff1663ffffffff1663ffffffff1681526020019081526020016000206000820151816000019080519060200190610b00929190611fc2565b5060208201518160010160006101000a81548173ffffffffffffffffffffffffffffffffffffffff021916908373ffffffffffffffffffffffffffffffffffffffff16021790555060408201518160020160006101000a81548173ffffffffffffffffffffffffffffffffffffffff021916908373ffffffffffffffffffffffffffffffffffffffff16021790555060608201518160030155608082015181600401600082015181600001556020820151816001015560408201518160020155505060a08201518160070160006101000a81548160ff02191690836002811115610c13577f4e487b7100000000000000000000000000000000000000000000000000000000600052602160045260246000fd5b021790555060c08201518160080160008201518160000160006101000a81548163ffffffff021916908363ffffffff16021790555060208201518160000160046101000a81548163ffffffff021916908363ffffffff160217905550505060e08201518160090160006101000a81548173ffffffffffffffffffffffffffffffffffffffff021916908373ffffffffffffffffffffffffffffffffffffffff1602179055506101008201518160090160146101000a81548160ff021916908315150217905550905050600260009054906101000a900463ffffffff1691505095945050505050565b610d03611c56565b73ffffffffffffffffffffffffffffffffffffffff16610d216112ef565b73ffffffffffffffffffffffffffffffffffffffff1614610d77576040517f08c379a0000000000000000000000000000000000000000000000000000000008152600401610d6e906126b1565b60405180910390fd5b600160008863ffffffff1663ffffffff16815260200190815260200160002060090160149054906101000a900460ff16610de6576040517f08c379a0000000000000000000000000000000000000000000000000000000008152600401610ddd90612731565b60405180910390fd5b428663ffffffff1610610e2e576040517f08c379a0000000000000000000000000000000000000000000000000000000008152600401610e25906126f1565b60405180910390fd5b8563ffffffff168563ffffffff1611610e7c576040517f08c379a0000000000000000000000000000000000000000000000000000000008152600401610e73906126d1565b60405180910390fd5b428563ffffffff1611610ec4576040517f08c379a0000000000000000000000000000000000000000000000000000000008152600401610ebb90612751565b60405180910390fd5b60008411610ed157600080fd5b60008311610ede57600080fd5b60405180604001604052808763ffffffff1681526020018663ffffffff16815250600160008963ffffffff1663ffffffff16815260200190815260200160002060080160008201518160000160006101000a81548163ffffffff021916908363ffffffff16021790555060208201518160000160046101000a81548163ffffffff021916908363ffffffff160217905550905050604051806060016040528082815260200184815260200183815250600160008963ffffffff1663ffffffff16815260200190815260200160002060040160008201518160000155602082015181600101556040820151816002015590505083600160008963ffffffff1663ffffffff1681526020019081526020016000206003018190555050505050505050565b6000600760009054906101000a900473ffffffffffffffffffffffffffffffffffffffff16905090565b611032611c56565b73ffffffffffffffffffffffffffffffffffffffff166110506112ef565b73ffffffffffffffffffffffffffffffffffffffff16146110a6576040517f08c379a000000000000000000000000000000000000000000000000000000000815260040161109d906126b1565b60405180910390fd5b600073ffffffffffffffffffffffffffffffffffffffff168173ffffffffffffffffffffffffffffffffffffffff1614156110e057600080fd5b80600660006101000a81548173ffffffffffffffffffffffffffffffffffffffff021916908373ffffffffffffffffffffffffffffffffffffffff16021790555050565b61112c611c56565b73ffffffffffffffffffffffffffffffffffffffff1661114a6112ef565b73ffffffffffffffffffffffffffffffffffffffff16146111a0576040517f08c379a0000000000000000000000000000000000000000000000000000000008152600401611197906126b1565b60405180910390fd5b6111aa6000611c5e565b565b6000600660009054906101000a900473ffffffffffffffffffffffffffffffffffffffff16905090565b6111de611c56565b73ffffffffffffffffffffffffffffffffffffffff166111fc6112ef565b73ffffffffffffffffffffffffffffffffffffffff1614611252576040517f08c379a0000000000000000000000000000000000000000000000000000000008152600401611249906126b1565b60405180910390fd5b600260009054906101000a900463ffffffff1663ffffffff168260ff1611156112b0576040517f08c379a00000000000000000000000000000000000000000000000000000000081526004016112a790612711565b60405180910390fd5b80600460008460ff1663ffffffff16815260200190815260200160002060006101000a81548163ffffffff021916908363ffffffff1602179055505050565b60008060009054906101000a900473ffffffffffffffffffffffffffffffffffffffff16905090565b611320611c56565b73ffffffffffffffffffffffffffffffffffffffff1661133e6112ef565b73ffffffffffffffffffffffffffffffffffffffff1614611394576040517f08c379a000000000000000000000000000000000000000000000000000000000815260040161138b906126b1565b60405180910390fd5b600260009054906101000a900463ffffffff1663ffffffff168160ff1611156113f2576040517f08c379a00000000000000000000000000000000000000000000000000000000081526004016113e990612711565b60405180910390fd5b6000600360008360ff1663ffffffff16815260200190815260200160002060009054906101000a900473ffffffffffffffffffffffffffffffffffffffff16905060008173ffffffffffffffffffffffffffffffffffffffff166378d185336040518163ffffffff1660e01b8152600401602060405180830381600087803b15801561147d57600080fd5b505af1158015611491573d6000803e3d6000fd5b505050506040513d601f19601f820116820180604052508101906114b59190612208565b90506000600460008560ff1663ffffffff16815260200190815260200160002060009054906101000a900463ffffffff1690506000611518620186a061150a8463ffffffff1686611d2290919063ffffffff16565b611d5990919063ffffffff16565b9050600061152f8285611da390919063ffffffff16565b90506115706040518060400160405280601581526020017f746f74616c526169736564416d6f756e7420697320000000000000000000000081525085611dc6565b6115af6040518060400160405280600f81526020017f706c6174466f726d46656520697320000000000000000000000000000000000081525083611dc6565b6115ee6040518060400160405280601181526020017f7061796f757420616d6f756e742069732000000000000000000000000000000081525082611dc6565b816008600082825461160091906127c3565b925050819055506000600160008860ff1663ffffffff16815260200190815260200160002060405180610120016040529081600082018054611641906129cf565b80601f016020809104026020016040519081016040528092919081815260200182805461166d906129cf565b80156116ba5780601f1061168f576101008083540402835291602001916116ba565b820191906000526020600020905b81548152906001019060200180831161169d57829003601f168201915b505050505081526020016001820160009054906101000a900473ffffffffffffffffffffffffffffffffffffffff1673ffffffffffffffffffffffffffffffffffffffff1673ffffffffffffffffffffffffffffffffffffffff1681526020016002820160009054906101000a900473ffffffffffffffffffffffffffffffffffffffff1673ffffffffffffffffffffffffffffffffffffffff1673ffffffffffffffffffffffffffffffffffffffff1681526020016003820154815260200160048201604051806060016040529081600082015481526020016001820154815260200160028201548152505081526020016007820160009054906101000a900460ff1660028111156117f6577f4e487b7100000000000000000000000000000000000000000000000000000000600052602160045260246000fd5b600281111561182e577f4e487b7100000000000000000000000000000000000000000000000000000000600052602160045260246000fd5b8152602001600882016040518060400160405290816000820160009054906101000a900463ffffffff1663ffffffff1663ffffffff1681526020016000820160049054906101000a900463ffffffff1663ffffffff1663ffffffff168152505081526020016009820160009054906101000a900473ffffffffffffffffffffffffffffffffffffffff1673ffffffffffffffffffffffffffffffffffffffff1673ffffffffffffffffffffffffffffffffffffffff1681526020016009820160149054906101000a900460ff1615151515815250509050806040015173ffffffffffffffffffffffffffffffffffffffff1663a9059cbb600760009054906101000a900473ffffffffffffffffffffffffffffffffffffffff16856040518363ffffffff1660e01b8152600401611966929190612580565b602060405180830381600087803b15801561198057600080fd5b505af1158015611994573d6000803e3d6000fd5b505050506040513d601f19601f820116820180604052508101906119b89190612168565b50806040015173ffffffffffffffffffffffffffffffffffffffff1663a9059cbb8260e00151846040518363ffffffff1660e01b81526004016119fc929190612580565b602060405180830381600087803b158015611a1657600080fd5b505af1158015611a2a573d6000803e3d6000fd5b505050506040513d601f19601f82011682018060405250810190611a4e9190612168565b5050505050505050565b611a60611c56565b73ffffffffffffffffffffffffffffffffffffffff16611a7e6112ef565b73ffffffffffffffffffffffffffffffffffffffff1614611ad4576040517f08c379a0000000000000000000000000000000000000000000000000000000008152600401611acb906126b1565b60405180910390fd5b600073ffffffffffffffffffffffffffffffffffffffff168173ffffffffffffffffffffffffffffffffffffffff161415611b0e57600080fd5b80600760006101000a81548173ffffffffffffffffffffffffffffffffffffffff021916908373ffffffffffffffffffffffffffffffffffffffff16021790555050565b670de0b6b3a764000081565b611b66611c56565b73ffffffffffffffffffffffffffffffffffffffff16611b846112ef565b73ffffffffffffffffffffffffffffffffffffffff1614611bda576040517f08c379a0000000000000000000000000000000000000000000000000000000008152600401611bd1906126b1565b60405180910390fd5b600073ffffffffffffffffffffffffffffffffffffffff168173ffffffffffffffffffffffffffffffffffffffff161415611c4a576040517f08c379a0000000000000000000000000000000000000000000000000000000008152600401611c4190612691565b60405180910390fd5b611c5381611c5e565b50565b600033905090565b60008060009054906101000a900473ffffffffffffffffffffffffffffffffffffffff169050816000806101000a81548173ffffffffffffffffffffffffffffffffffffffff021916908373ffffffffffffffffffffffffffffffffffffffff1602179055508173ffffffffffffffffffffffffffffffffffffffff168173ffffffffffffffffffffffffffffffffffffffff167f8be0079c531659141344cd1fd0a4f28419497f9722a3daafe3b4186f6b6457e060405160405180910390a35050565b600080831480611d4a575081838385611d3b9190612884565b925082611d489190612853565b145b611d5357600080fd5b92915050565b6000611d9b83836040518060400160405280601a81526020017f536166654d6174683a206469766973696f6e206279207a65726f000000000000815250611e62565b905092915050565b6000828284611db291906128de565b9150811115611dc057600080fd5b92915050565b611e5e8282604051602401611ddc929190612661565b6040516020818303038152906040527f9710a9d0000000000000000000000000000000000000000000000000000000007bffffffffffffffffffffffffffffffffffffffffffffffffffffffff19166020820180517bffffffffffffffffffffffffffffffffffffffffffffffffffffffff8381831617835250505050611ec5565b5050565b60008083118290611ea9576040517f08c379a0000000000000000000000000000000000000000000000000000000008152600401611ea091906125a9565b60405180910390fd5b5060008385611eb89190612853565b9050809150509392505050565b60008151905060006a636f6e736f6c652e6c6f679050602083016000808483855afa5050505050565b60405180610120016040528060608152602001600073ffffffffffffffffffffffffffffffffffffffff168152602001600073ffffffffffffffffffffffffffffffffffffffff16815260200160008152602001611f4a612048565b815260200160006002811115611f89577f4e487b7100000000000000000000000000000000000000000000000000000000600052602160045260246000fd5b8152602001611f96612069565b8152602001600073ffffffffffffffffffffffffffffffffffffffff1681526020016000151581525090565b828054611fce906129cf565b90600052602060002090601f016020900481019282611ff05760008555612037565b82601f1061200957805160ff1916838001178555612037565b82800160010185558215612037579182015b8281111561203657825182559160200191906001019061201b565b5b509050612044919061208f565b5090565b60405180606001604052806000815260200160008152602001600081525090565b6040518060400160405280600063ffffffff168152602001600063ffffffff1681525090565b5b808211156120a8576000816000905550600101612090565b5090565b6000813590506120bb81612c27565b92915050565b6000815190506120d081612c3e565b92915050565b6000813590506120e581612c55565b92915050565b6000813590506120fa81612c65565b92915050565b60008151905061210f81612c65565b92915050565b60008135905061212481612c7c565b92915050565b60008135905061213981612c93565b92915050565b60006020828403121561215157600080fd5b600061215f848285016120ac565b91505092915050565b60006020828403121561217a57600080fd5b6000612188848285016120c1565b91505092915050565b600080600080600060a086880312156121a957600080fd5b60006121b7888289016120d6565b95505060206121c8888289016120ac565b94505060406121d9888289016120ac565b93505060606121ea888289016120ac565b92505060806121fb888289016120ac565b9150509295509295909350565b60006020828403121561221a57600080fd5b600061222884828501612100565b91505092915050565b60006020828403121561224357600080fd5b600061225184828501612115565b91505092915050565b600080600080600080600060e0888a03121561227557600080fd5b60006122838a828b01612115565b97505060206122948a828b01612115565b96505060406122a58a828b01612115565b95505060606122b68a828b016120eb565b94505060806122c78a828b016120eb565b93505060a06122d88a828b016120eb565b92505060c06122e98a828b016120eb565b91505092959891949750929550565b60006020828403121561230a57600080fd5b60006123188482850161212a565b91505092915050565b6000806040838503121561233457600080fd5b60006123428582860161212a565b925050602061235385828601612115565b9150509250929050565b61236681612912565b82525050565b61237581612924565b82525050565b6123848161298a565b82525050565b6000612395826127a7565b61239f81856127b2565b93506123af81856020860161299c565b6123b881612abd565b840191505092915050565b60006123d06026836127b2565b91506123db82612ace565b604082019050919050565b60006123f36020836127b2565b91506123fe82612b1d565b602082019050919050565b60006124166015836127b2565b915061242182612b46565b602082019050919050565b60006124396012836127b2565b915061244482612b6f565b602082019050919050565b600061245c6011836127b2565b915061246782612b98565b602082019050919050565b600061247f6012836127b2565b915061248a82612bc1565b602082019050919050565b60006124a26015836127b2565b91506124ad82612bea565b602082019050919050565b6040820160008201516124ce6000850182612547565b5060208201516124e16020850182612547565b50505050565b6060820160008201516124fd6000850182612529565b5060208201516125106020850182612529565b5060408201516125236040850182612529565b50505050565b61253281612963565b82525050565b61254181612963565b82525050565b6125508161296d565b82525050565b61255f8161296d565b82525050565b600060208201905061257a600083018461235d565b92915050565b6000604082019050612595600083018561235d565b6125a26020830184612538565b9392505050565b600060208201905081810360008301526125c3818461238a565b905092915050565b60006101808201905081810360008301526125e6818c61238a565b90506125f5602083018b61235d565b612602604083018a61235d565b61260f6060830189612538565b61261c60808301886124e7565b61262960e083018761237b565b6126376101008301866124b8565b61264561014083018561235d565b61265361016083018461236c565b9a9950505050505050505050565b6000604082019050818103600083015261267b818561238a565b905061268a6020830184612538565b9392505050565b600060208201905081810360008301526126aa816123c3565b9050919050565b600060208201905081810360008301526126ca816123e6565b9050919050565b600060208201905081810360008301526126ea81612409565b9050919050565b6000602082019050818103600083015261270a8161242c565b9050919050565b6000602082019050818103600083015261272a8161244f565b9050919050565b6000602082019050818103600083015261274a81612472565b9050919050565b6000602082019050818103600083015261276a81612495565b9050919050565b60006020820190506127866000830184612538565b92915050565b60006020820190506127a16000830184612556565b92915050565b600081519050919050565b600082825260208201905092915050565b60006127ce82612963565b91506127d983612963565b9250827fffffffffffffffffffffffffffffffffffffffffffffffffffffffffffffffff0382111561280e5761280d612a01565b5b828201905092915050565b60006128248261296d565b915061282f8361296d565b92508263ffffffff0382111561284857612847612a01565b5b828201905092915050565b600061285e82612963565b915061286983612963565b92508261287957612878612a30565b5b828204905092915050565b600061288f82612963565b915061289a83612963565b9250817fffffffffffffffffffffffffffffffffffffffffffffffffffffffffffffffff04831182151516156128d3576128d2612a01565b5b828202905092915050565b60006128e982612963565b91506128f483612963565b92508282101561290757612906612a01565b5b828203905092915050565b600061291d82612943565b9050919050565b60008115159050919050565b600081905061293e82612c13565b919050565b600073ffffffffffffffffffffffffffffffffffffffff82169050919050565b6000819050919050565b600063ffffffff82169050919050565b600060ff82169050919050565b600061299582612930565b9050919050565b60005b838110156129ba57808201518184015260208101905061299f565b838111156129c9576000848401525b50505050565b600060028204905060018216806129e757607f821691505b602082108114156129fb576129fa612a8e565b5b50919050565b7f4e487b7100000000000000000000000000000000000000000000000000000000600052601160045260246000fd5b7f4e487b7100000000000000000000000000000000000000000000000000000000600052601260045260246000fd5b7f4e487b7100000000000000000000000000000000000000000000000000000000600052602160045260246000fd5b7f4e487b7100000000000000000000000000000000000000000000000000000000600052602260045260246000fd5b6000601f19601f8301169050919050565b7f4f776e61626c653a206e6577206f776e657220697320746865207a65726f206160008201527f6464726573730000000000000000000000000000000000000000000000000000602082015250565b7f4f776e61626c653a2063616c6c6572206973206e6f7420746865206f776e6572600082015250565b7f496e76616c696420656e642074696d657374616d700000000000000000000000600082015250565b7f496e76616c69642073746172742074696d650000000000000000000000000000600082015250565b7f496e76616c69642050726f6a6563744964000000000000000000000000000000600082015250565b7f50726f6a65637420496420696e76616c69640000000000000000000000000000600082015250565b7f496e76616c696420456e642074696d657374616d700000000000000000000000600082015250565b60038110612c2457612c23612a5f565b5b50565b612c3081612912565b8114612c3b57600080fd5b50565b612c4781612924565b8114612c5257600080fd5b50565b60038110612c6257600080fd5b50565b612c6e81612963565b8114612c7957600080fd5b50565b612c858161296d565b8114612c9057600080fd5b50565b612c9c8161297d565b8114612ca757600080fd5b5056fea2646970667358221220970246811df511ce76a2f77459ead3c7b86f1019205fae15517f130cec090ea964736f6c63430008040033",
  "linkReferences": {},
  "deployedLinkReferences": {}
}