{
  "_format": "hh-sol-artifact-1",
  "contractName": "CorePad",
  "sourceName": "contracts/CorePad.sol",
  "abi": [
    {
      "inputs": [
        {
          "internalType": "address",
          "name": "stakedTokenAddress_",
          "type": "address"
        }
      ],
      "stateMutability": "nonpayable",
      "type": "constructor"
    },
    {
      "anonymous": false,
      "inputs": [
        {
          "indexed": true,
          "internalType": "address",
          "name": "previousOwner",
          "type": "address"
        },
        {
          "indexed": true,
          "internalType": "address",
          "name": "newOwner",
          "type": "address"
        }
      ],
      "name": "OwnershipTransferred",
      "type": "event"
    },
    {
      "inputs": [],
      "name": "PRICE_DECIMALS",
      "outputs": [
        {
          "internalType": "uint256",
          "name": "",
          "type": "uint256"
        }
      ],
      "stateMutability": "view",
      "type": "function"
    },
    {
      "inputs": [
        {
          "internalType": "enum CorePad.SaleType",
          "name": "saleType_",
          "type": "uint8"
        },
        {
          "internalType": "address",
          "name": "projectTokenAddress_",
          "type": "address"
        },
        {
          "internalType": "address",
          "name": "principalToken_",
          "type": "address"
        },
        {
          "internalType": "address",
          "name": "adminAddress_",
          "type": "address"
        },
        {
          "internalType": "address",
          "name": "projectSaleContractAddress_",
          "type": "address"
        }
      ],
      "name": "addProject",
      "outputs": [
        {
          "internalType": "uint32",
          "name": "",
          "type": "uint32"
        }
      ],
      "stateMutability": "nonpayable",
      "type": "function"
    },
    {
      "inputs": [
        {
          "internalType": "uint32",
          "name": "projectId_",
          "type": "uint32"
        },
        {
          "internalType": "uint32",
          "name": "startTime_",
          "type": "uint32"
        },
        {
          "internalType": "uint32",
          "name": "endTime_",
          "type": "uint32"
        },
        {
          "internalType": "uint256",
          "name": "amountToRaise_",
          "type": "uint256"
        },
        {
          "internalType": "uint256",
          "name": "price_",
          "type": "uint256"
        },
        {
          "internalType": "uint256",
          "name": "maxTokenPerUser_",
          "type": "uint256"
        },
        {
          "internalType": "uint256",
          "name": "tokenTotalSupply_",
          "type": "uint256"
        },
        {
          "internalType": "string",
          "name": "ipfsId_",
          "type": "string"
        }
      ],
      "name": "addProjectMetaData",
      "outputs": [],
      "stateMutability": "nonpayable",
      "type": "function"
    },
    {
      "inputs": [],
      "name": "getEcosystemManager",
      "outputs": [
        {
          "internalType": "address",
          "name": "",
          "type": "address"
        }
      ],
      "stateMutability": "view",
      "type": "function"
    },
    {
      "inputs": [],
      "name": "getNFTAddressForPrivateSale",
      "outputs": [
        {
          "internalType": "address",
          "name": "",
          "type": "address"
        }
      ],
      "stateMutability": "view",
      "type": "function"
    },
    {
      "inputs": [
        {
          "internalType": "uint8",
          "name": "projectId_",
          "type": "uint8"
        }
      ],
      "name": "getProjectContractAddress",
      "outputs": [
        {
          "internalType": "address",
          "name": "",
          "type": "address"
        }
      ],
      "stateMutability": "view",
      "type": "function"
    },
    {
      "inputs": [],
      "name": "getProjectId",
      "outputs": [
        {
          "internalType": "uint256",
          "name": "",
          "type": "uint256"
        }
      ],
      "stateMutability": "view",
      "type": "function"
    },
    {
      "inputs": [
        {
          "internalType": "uint32",
          "name": "projectId_",
          "type": "uint32"
        }
      ],
      "name": "getRateInfoForProject",
      "outputs": [
        {
          "internalType": "uint32",
          "name": "",
          "type": "uint32"
        }
      ],
      "stateMutability": "view",
      "type": "function"
    },
    {
      "inputs": [],
      "name": "getStakedAddress",
      "outputs": [
        {
          "internalType": "address",
          "name": "",
          "type": "address"
        }
      ],
      "stateMutability": "view",
      "type": "function"
    },
    {
      "inputs": [],
      "name": "getTotalPlatformFee",
      "outputs": [
        {
          "internalType": "uint256",
          "name": "",
          "type": "uint256"
        }
      ],
      "stateMutability": "view",
      "type": "function"
    },
    {
      "inputs": [],
      "name": "owner",
      "outputs": [
        {
          "internalType": "address",
          "name": "",
          "type": "address"
        }
      ],
      "stateMutability": "view",
      "type": "function"
    },
    {
      "inputs": [
        {
          "internalType": "uint32",
          "name": "",
          "type": "uint32"
        }
      ],
      "name": "projectInfoMapping",
      "outputs": [
        {
          "internalType": "string",
          "name": "ipfsId",
          "type": "string"
        },
        {
          "internalType": "address",
          "name": "projectToken",
          "type": "address"
        },
        {
          "internalType": "address",
          "name": "principalToken",
          "type": "address"
        },
        {
          "internalType": "uint256",
          "name": "totalAmountToRaise",
          "type": "uint256"
        },
        {
          "components": [
            {
              "internalType": "uint256",
              "name": "totalTokenSupply",
              "type": "uint256"
            },
            {
              "internalType": "uint256",
              "name": "price",
              "type": "uint256"
            },
            {
              "internalType": "uint256",
              "name": "maxTokenPerUser",
              "type": "uint256"
            }
          ],
          "internalType": "struct CorePad.TokenInfo",
          "name": "tokenInfo",
          "type": "tuple"
        },
        {
          "internalType": "enum CorePad.SaleType",
          "name": "saleType",
          "type": "uint8"
        },
        {
          "components": [
            {
              "internalType": "uint32",
              "name": "startTimestamp",
              "type": "uint32"
            },
            {
              "internalType": "uint32",
              "name": "endTimestamp",
              "type": "uint32"
            }
          ],
          "internalType": "struct CorePad.ProjectSaleTime",
          "name": "projectSaleTime",
          "type": "tuple"
        },
        {
          "internalType": "address",
          "name": "admin",
          "type": "address"
        },
        {
          "internalType": "bool",
          "name": "isValue",
          "type": "bool"
        }
      ],
      "stateMutability": "view",
      "type": "function"
    },
    {
      "inputs": [],
      "name": "renounceOwnership",
      "outputs": [],
      "stateMutability": "nonpayable",
      "type": "function"
    },
    {
      "inputs": [
        {
          "internalType": "address",
          "name": "ecosystemManager_",
          "type": "address"
        }
      ],
      "name": "setEcosystemManager",
      "outputs": [],
      "stateMutability": "nonpayable",
      "type": "function"
    },
    {
      "inputs": [
        {
          "internalType": "address",
          "name": "nftAddress_",
          "type": "address"
        }
      ],
      "name": "setNFTAddress",
      "outputs": [],
      "stateMutability": "nonpayable",
      "type": "function"
    },
    {
      "inputs": [
        {
          "internalType": "uint8",
          "name": "projectId_",
          "type": "uint8"
        },
        {
          "internalType": "uint32",
          "name": "ratePercent_",
          "type": "uint32"
        }
      ],
      "name": "setRateInfo",
      "outputs": [],
      "stateMutability": "nonpayable",
      "type": "function"
    },
    {
      "inputs": [
        {
          "internalType": "address",
          "name": "newOwner",
          "type": "address"
        }
      ],
      "name": "transferOwnership",
      "outputs": [],
      "stateMutability": "nonpayable",
      "type": "function"
    },
    {
      "inputs": [
        {
          "internalType": "uint8",
          "name": "projectId_",
          "type": "uint8"
        }
      ],
      "name": "withdrawRaisedAmount",
      "outputs": [],
      "stateMutability": "nonpayable",
      "type": "function"
    }
  ],
  "bytecode": "0x60806040523480156200001157600080fd5b50604051620030da380380620030da8339818101604052810190620000379190620001df565b620000576200004b620000fc60201b60201c565b6200010460201b60201c565b600073ffffffffffffffffffffffffffffffffffffffff168173ffffffffffffffffffffffffffffffffffffffff1614156200009257600080fd5b80600560006101000a81548173ffffffffffffffffffffffffffffffffffffffff021916908373ffffffffffffffffffffffffffffffffffffffff1602179055506000600260006101000a81548163ffffffff021916908363ffffffff1602179055505062000259565b600033905090565b60008060009054906101000a900473ffffffffffffffffffffffffffffffffffffffff169050816000806101000a81548173ffffffffffffffffffffffffffffffffffffffff021916908373ffffffffffffffffffffffffffffffffffffffff1602179055508173ffffffffffffffffffffffffffffffffffffffff168173ffffffffffffffffffffffffffffffffffffffff167f8be0079c531659141344cd1fd0a4f28419497f9722a3daafe3b4186f6b6457e060405160405180910390a35050565b600081519050620001d9816200023f565b92915050565b600060208284031215620001f257600080fd5b60006200020284828501620001c8565b91505092915050565b600062000218826200021f565b9050919050565b600073ffffffffffffffffffffffffffffffffffffffff82169050919050565b6200024a816200020b565b81146200025657600080fd5b50565b612e7180620002696000396000f3fe608060405234801561001057600080fd5b50600436106101165760003560e01c8063715018a6116100a2578063913c30de11610071578063913c30de146102d9578063a718f5c5146102f5578063cb36d3f614610311578063f1a640f81461032d578063f2fde38b1461034b57610116565b8063715018a6146102775780637cbc836d146102815780638cd75b261461029f5780638da5cb5b146102bb57610116565b806310ea1d6b116100e957806310ea1d6b146101d15780631270e10c146101ef5780632945f1071461020d578063504418641461023d57806369d037381461025b57610116565b8063046f78bf1461011b5780630d19acc3146101535780630d27afe2146101835780630fafd7e5146101a1575b600080fd5b610135600480360381019061013091906122d1565b610367565b60405161014a99989796959493929190612697565b60405180910390f35b61016d600480360381019061016891906123c4565b610535565b60405161017a9190612631565b60405180910390f35b61018b6105d9565b6040516101989190612631565b60405180910390f35b6101bb60048036038101906101b691906122d1565b610603565b6040516101c89190612858565b60405180910390f35b6101d96106b8565b6040516101e6919061283d565b60405180910390f35b6101f761073e565b604051610204919061283d565b60405180910390f35b61022760048036038101906102229190612231565b61075e565b6040516102349190612858565b60405180910390f35b610245610cfb565b6040516102529190612631565b60405180910390f35b610275600480360381019061027091906121df565b610d25565b005b61027f610e1f565b005b610289610ea7565b6040516102969190612631565b60405180910390f35b6102b960048036038101906102b491906123ed565b610ed1565b005b6102c3610fea565b6040516102d09190612631565b60405180910390f35b6102f360048036038101906102ee91906122fa565b611013565b005b61030f600480360381019061030a91906123c4565b611350565b005b61032b600480360381019061032691906121df565b611a90565b005b610335611b8a565b604051610342919061283d565b60405180910390f35b610365600480360381019061036091906121df565b611b96565b005b600160205280600052604060002060009150905080600001805461038a90612b00565b80601f01602080910402602001604051908101604052809291908181526020018280546103b690612b00565b80156104035780601f106103d857610100808354040283529160200191610403565b820191906000526020600020905b8154815290600101906020018083116103e657829003601f168201915b5050505050908060010160009054906101000a900473ffffffffffffffffffffffffffffffffffffffff16908060020160009054906101000a900473ffffffffffffffffffffffffffffffffffffffff1690806003015490806004016040518060600160405290816000820154815260200160018201548152602001600282015481525050908060070160009054906101000a900460ff1690806008016040518060400160405290816000820160009054906101000a900463ffffffff1663ffffffff1663ffffffff1681526020016000820160049054906101000a900463ffffffff1663ffffffff1663ffffffff1681525050908060090160009054906101000a900473ffffffffffffffffffffffffffffffffffffffff16908060090160149054906101000a900460ff16905089565b6000600260009054906101000a900463ffffffff1663ffffffff168260ff161115610595576040517f08c379a000000000000000000000000000000000000000000000000000000000815260040161058c906127dd565b60405180910390fd5b600360008360ff1663ffffffff16815260200190815260200160002060009054906101000a900473ffffffffffffffffffffffffffffffffffffffff169050919050565b6000600560009054906101000a900473ffffffffffffffffffffffffffffffffffffffff16905090565b600061060d611c8e565b73ffffffffffffffffffffffffffffffffffffffff1661062b610fea565b73ffffffffffffffffffffffffffffffffffffffff1614610681576040517f08c379a00000000000000000000000000000000000000000000000000000000081526004016106789061277d565b60405180910390fd5b600460008363ffffffff1663ffffffff16815260200190815260200160002060009054906101000a900463ffffffff169050919050565b60006106c2611c8e565b73ffffffffffffffffffffffffffffffffffffffff166106e0610fea565b73ffffffffffffffffffffffffffffffffffffffff1614610736576040517f08c379a000000000000000000000000000000000000000000000000000000000815260040161072d9061277d565b60405180910390fd5b600854905090565b6000600260009054906101000a900463ffffffff1663ffffffff16905090565b6000610768611c8e565b73ffffffffffffffffffffffffffffffffffffffff16610786610fea565b73ffffffffffffffffffffffffffffffffffffffff16146107dc576040517f08c379a00000000000000000000000000000000000000000000000000000000081526004016107d39061277d565b60405180910390fd5b600073ffffffffffffffffffffffffffffffffffffffff168573ffffffffffffffffffffffffffffffffffffffff16141561081657600080fd5b600073ffffffffffffffffffffffffffffffffffffffff168473ffffffffffffffffffffffffffffffffffffffff16141561085057600080fd5b600073ffffffffffffffffffffffffffffffffffffffff168373ffffffffffffffffffffffffffffffffffffffff16141561088a57600080fd5b600073ffffffffffffffffffffffffffffffffffffffff168273ffffffffffffffffffffffffffffffffffffffff1614156108c457600080fd5b6001600260008282829054906101000a900463ffffffff166108e6919061293b565b92506101000a81548163ffffffff021916908363ffffffff16021790555061090c611f26565b85816020019073ffffffffffffffffffffffffffffffffffffffff16908173ffffffffffffffffffffffffffffffffffffffff168152505084816040019073ffffffffffffffffffffffffffffffffffffffff16908173ffffffffffffffffffffffffffffffffffffffff1681525050838160e0019073ffffffffffffffffffffffffffffffffffffffff16908173ffffffffffffffffffffffffffffffffffffffff1681525050868160a0019060028111156109f2577f4e487b7100000000000000000000000000000000000000000000000000000000600052602160045260246000fd5b90816002811115610a2c577f4e487b7100000000000000000000000000000000000000000000000000000000600052602160045260246000fd5b815250506001816101000190151590811515815250508260036000600260009054906101000a900463ffffffff1663ffffffff1663ffffffff16815260200190815260200160002060006101000a81548173ffffffffffffffffffffffffffffffffffffffff021916908373ffffffffffffffffffffffffffffffffffffffff1602179055508060016000600260009054906101000a900463ffffffff1663ffffffff1663ffffffff1681526020019081526020016000206000820151816000019080519060200190610b00929190611ffa565b5060208201518160010160006101000a81548173ffffffffffffffffffffffffffffffffffffffff021916908373ffffffffffffffffffffffffffffffffffffffff16021790555060408201518160020160006101000a81548173ffffffffffffffffffffffffffffffffffffffff021916908373ffffffffffffffffffffffffffffffffffffffff16021790555060608201518160030155608082015181600401600082015181600001556020820151816001015560408201518160020155505060a08201518160070160006101000a81548160ff02191690836002811115610c13577f4e487b7100000000000000000000000000000000000000000000000000000000600052602160045260246000fd5b021790555060c08201518160080160008201518160000160006101000a81548163ffffffff021916908363ffffffff16021790555060208201518160000160046101000a81548163ffffffff021916908363ffffffff160217905550505060e08201518160090160006101000a81548173ffffffffffffffffffffffffffffffffffffffff021916908373ffffffffffffffffffffffffffffffffffffffff1602179055506101008201518160090160146101000a81548160ff021916908315150217905550905050600260009054906101000a900463ffffffff1691505095945050505050565b6000600760009054906101000a900473ffffffffffffffffffffffffffffffffffffffff16905090565b610d2d611c8e565b73ffffffffffffffffffffffffffffffffffffffff16610d4b610fea565b73ffffffffffffffffffffffffffffffffffffffff1614610da1576040517f08c379a0000000000000000000000000000000000000000000000000000000008152600401610d989061277d565b60405180910390fd5b600073ffffffffffffffffffffffffffffffffffffffff168173ffffffffffffffffffffffffffffffffffffffff161415610ddb57600080fd5b80600660006101000a81548173ffffffffffffffffffffffffffffffffffffffff021916908373ffffffffffffffffffffffffffffffffffffffff16021790555050565b610e27611c8e565b73ffffffffffffffffffffffffffffffffffffffff16610e45610fea565b73ffffffffffffffffffffffffffffffffffffffff1614610e9b576040517f08c379a0000000000000000000000000000000000000000000000000000000008152600401610e929061277d565b60405180910390fd5b610ea56000611c96565b565b6000600660009054906101000a900473ffffffffffffffffffffffffffffffffffffffff16905090565b610ed9611c8e565b73ffffffffffffffffffffffffffffffffffffffff16610ef7610fea565b73ffffffffffffffffffffffffffffffffffffffff1614610f4d576040517f08c379a0000000000000000000000000000000000000000000000000000000008152600401610f449061277d565b60405180910390fd5b600260009054906101000a900463ffffffff1663ffffffff168260ff161115610fab576040517f08c379a0000000000000000000000000000000000000000000000000000000008152600401610fa2906127dd565b60405180910390fd5b80600460008460ff1663ffffffff16815260200190815260200160002060006101000a81548163ffffffff021916908363ffffffff1602179055505050565b60008060009054906101000a900473ffffffffffffffffffffffffffffffffffffffff16905090565b61101b611c8e565b73ffffffffffffffffffffffffffffffffffffffff16611039610fea565b73ffffffffffffffffffffffffffffffffffffffff161461108f576040517f08c379a00000000000000000000000000000000000000000000000000000000081526004016110869061277d565b60405180910390fd5b600160008963ffffffff1663ffffffff16815260200190815260200160002060090160149054906101000a900460ff166110fe576040517f08c379a00000000000000000000000000000000000000000000000000000000081526004016110f5906127fd565b60405180910390fd5b428763ffffffff1610611146576040517f08c379a000000000000000000000000000000000000000000000000000000000815260040161113d906127bd565b60405180910390fd5b8663ffffffff168663ffffffff1611611194576040517f08c379a000000000000000000000000000000000000000000000000000000000815260040161118b9061279d565b60405180910390fd5b428663ffffffff16116111dc576040517f08c379a00000000000000000000000000000000000000000000000000000000081526004016111d39061281d565b60405180910390fd5b600085116111e957600080fd5b600084116111f657600080fd5b60405180604001604052808863ffffffff1681526020018763ffffffff16815250600160008a63ffffffff1663ffffffff16815260200190815260200160002060080160008201518160000160006101000a81548163ffffffff021916908363ffffffff16021790555060208201518160000160046101000a81548163ffffffff021916908363ffffffff160217905550905050604051806060016040528083815260200185815260200184815250600160008a63ffffffff1663ffffffff16815260200190815260200160002060040160008201518160000155602082015181600101556040820151816002015590505084600160008a63ffffffff1663ffffffff1681526020019081526020016000206003018190555080600160008a63ffffffff1663ffffffff1681526020019081526020016000206000019080519060200190611345929190611ffa565b505050505050505050565b611358611c8e565b73ffffffffffffffffffffffffffffffffffffffff16611376610fea565b73ffffffffffffffffffffffffffffffffffffffff16146113cc576040517f08c379a00000000000000000000000000000000000000000000000000000000081526004016113c39061277d565b60405180910390fd5b600260009054906101000a900463ffffffff1663ffffffff168160ff16111561142a576040517f08c379a0000000000000000000000000000000000000000000000000000000008152600401611421906127dd565b60405180910390fd5b6000600360008360ff1663ffffffff16815260200190815260200160002060009054906101000a900473ffffffffffffffffffffffffffffffffffffffff16905060008173ffffffffffffffffffffffffffffffffffffffff166378d185336040518163ffffffff1660e01b8152600401602060405180830381600087803b1580156114b557600080fd5b505af11580156114c9573d6000803e3d6000fd5b505050506040513d601f19601f820116820180604052508101906114ed91906122a8565b90506000600460008560ff1663ffffffff16815260200190815260200160002060009054906101000a900463ffffffff1690506000611550620186a06115428463ffffffff1686611d5a90919063ffffffff16565b611d9190919063ffffffff16565b905060006115678285611ddb90919063ffffffff16565b90506115a86040518060400160405280601581526020017f746f74616c526169736564416d6f756e7420697320000000000000000000000081525085611dfe565b6115e76040518060400160405280600f81526020017f706c6174466f726d46656520697320000000000000000000000000000000000081525083611dfe565b6116266040518060400160405280601181526020017f7061796f757420616d6f756e742069732000000000000000000000000000000081525082611dfe565b816008600082825461163891906128e5565b925050819055506000600160008860ff1663ffffffff1681526020019081526020016000206040518061012001604052908160008201805461167990612b00565b80601f01602080910402602001604051908101604052809291908181526020018280546116a590612b00565b80156116f25780601f106116c7576101008083540402835291602001916116f2565b820191906000526020600020905b8154815290600101906020018083116116d557829003601f168201915b505050505081526020016001820160009054906101000a900473ffffffffffffffffffffffffffffffffffffffff1673ffffffffffffffffffffffffffffffffffffffff1673ffffffffffffffffffffffffffffffffffffffff1681526020016002820160009054906101000a900473ffffffffffffffffffffffffffffffffffffffff1673ffffffffffffffffffffffffffffffffffffffff1673ffffffffffffffffffffffffffffffffffffffff1681526020016003820154815260200160048201604051806060016040529081600082015481526020016001820154815260200160028201548152505081526020016007820160009054906101000a900460ff16600281111561182e577f4e487b7100000000000000000000000000000000000000000000000000000000600052602160045260246000fd5b6002811115611866577f4e487b7100000000000000000000000000000000000000000000000000000000600052602160045260246000fd5b8152602001600882016040518060400160405290816000820160009054906101000a900463ffffffff1663ffffffff1663ffffffff1681526020016000820160049054906101000a900463ffffffff1663ffffffff1663ffffffff168152505081526020016009820160009054906101000a900473ffffffffffffffffffffffffffffffffffffffff1673ffffffffffffffffffffffffffffffffffffffff1673ffffffffffffffffffffffffffffffffffffffff1681526020016009820160149054906101000a900460ff1615151515815250509050806040015173ffffffffffffffffffffffffffffffffffffffff1663a9059cbb600760009054906101000a900473ffffffffffffffffffffffffffffffffffffffff16856040518363ffffffff1660e01b815260040161199e92919061264c565b602060405180830381600087803b1580156119b857600080fd5b505af11580156119cc573d6000803e3d6000fd5b505050506040513d601f19601f820116820180604052508101906119f09190612208565b50806040015173ffffffffffffffffffffffffffffffffffffffff1663a9059cbb8260e00151846040518363ffffffff1660e01b8152600401611a3492919061264c565b602060405180830381600087803b158015611a4e57600080fd5b505af1158015611a62573d6000803e3d6000fd5b505050506040513d601f19601f82011682018060405250810190611a869190612208565b5050505050505050565b611a98611c8e565b73ffffffffffffffffffffffffffffffffffffffff16611ab6610fea565b73ffffffffffffffffffffffffffffffffffffffff1614611b0c576040517f08c379a0000000000000000000000000000000000000000000000000000000008152600401611b039061277d565b60405180910390fd5b600073ffffffffffffffffffffffffffffffffffffffff168173ffffffffffffffffffffffffffffffffffffffff161415611b4657600080fd5b80600760006101000a81548173ffffffffffffffffffffffffffffffffffffffff021916908373ffffffffffffffffffffffffffffffffffffffff16021790555050565b670de0b6b3a764000081565b611b9e611c8e565b73ffffffffffffffffffffffffffffffffffffffff16611bbc610fea565b73ffffffffffffffffffffffffffffffffffffffff1614611c12576040517f08c379a0000000000000000000000000000000000000000000000000000000008152600401611c099061277d565b60405180910390fd5b600073ffffffffffffffffffffffffffffffffffffffff168173ffffffffffffffffffffffffffffffffffffffff161415611c82576040517f08c379a0000000000000000000000000000000000000000000000000000000008152600401611c799061275d565b60405180910390fd5b611c8b81611c96565b50565b600033905090565b60008060009054906101000a900473ffffffffffffffffffffffffffffffffffffffff169050816000806101000a81548173ffffffffffffffffffffffffffffffffffffffff021916908373ffffffffffffffffffffffffffffffffffffffff1602179055508173ffffffffffffffffffffffffffffffffffffffff168173ffffffffffffffffffffffffffffffffffffffff167f8be0079c531659141344cd1fd0a4f28419497f9722a3daafe3b4186f6b6457e060405160405180910390a35050565b600080831480611d82575081838385611d7391906129a6565b925082611d809190612975565b145b611d8b57600080fd5b92915050565b6000611dd383836040518060400160405280601a81526020017f536166654d6174683a206469766973696f6e206279207a65726f000000000000815250611e9a565b905092915050565b6000828284611dea9190612a00565b9150811115611df857600080fd5b92915050565b611e968282604051602401611e1492919061272d565b6040516020818303038152906040527f9710a9d0000000000000000000000000000000000000000000000000000000007bffffffffffffffffffffffffffffffffffffffffffffffffffffffff19166020820180517bffffffffffffffffffffffffffffffffffffffffffffffffffffffff8381831617835250505050611efd565b5050565b60008083118290611ee1576040517f08c379a0000000000000000000000000000000000000000000000000000000008152600401611ed89190612675565b60405180910390fd5b5060008385611ef09190612975565b9050809150509392505050565b60008151905060006a636f6e736f6c652e6c6f679050602083016000808483855afa5050505050565b60405180610120016040528060608152602001600073ffffffffffffffffffffffffffffffffffffffff168152602001600073ffffffffffffffffffffffffffffffffffffffff16815260200160008152602001611f82612080565b815260200160006002811115611fc1577f4e487b7100000000000000000000000000000000000000000000000000000000600052602160045260246000fd5b8152602001611fce6120a1565b8152602001600073ffffffffffffffffffffffffffffffffffffffff1681526020016000151581525090565b82805461200690612b00565b90600052602060002090601f016020900481019282612028576000855561206f565b82601f1061204157805160ff191683800117855561206f565b8280016001018555821561206f579182015b8281111561206e578251825591602001919060010190612053565b5b50905061207c91906120c7565b5090565b60405180606001604052806000815260200160008152602001600081525090565b6040518060400160405280600063ffffffff168152602001600063ffffffff1681525090565b5b808211156120e05760008160009055506001016120c8565b5090565b60006120f76120f284612898565b612873565b90508281526020810184848401111561210f57600080fd5b61211a848285612abe565b509392505050565b60008135905061213181612db8565b92915050565b60008151905061214681612dcf565b92915050565b60008135905061215b81612de6565b92915050565b600082601f83011261217257600080fd5b81356121828482602086016120e4565b91505092915050565b60008135905061219a81612df6565b92915050565b6000815190506121af81612df6565b92915050565b6000813590506121c481612e0d565b92915050565b6000813590506121d981612e24565b92915050565b6000602082840312156121f157600080fd5b60006121ff84828501612122565b91505092915050565b60006020828403121561221a57600080fd5b600061222884828501612137565b91505092915050565b600080600080600060a0868803121561224957600080fd5b60006122578882890161214c565b955050602061226888828901612122565b945050604061227988828901612122565b935050606061228a88828901612122565b925050608061229b88828901612122565b9150509295509295909350565b6000602082840312156122ba57600080fd5b60006122c8848285016121a0565b91505092915050565b6000602082840312156122e357600080fd5b60006122f1848285016121b5565b91505092915050565b600080600080600080600080610100898b03121561231757600080fd5b60006123258b828c016121b5565b98505060206123368b828c016121b5565b97505060406123478b828c016121b5565b96505060606123588b828c0161218b565b95505060806123698b828c0161218b565b94505060a061237a8b828c0161218b565b93505060c061238b8b828c0161218b565b92505060e089013567ffffffffffffffff8111156123a857600080fd5b6123b48b828c01612161565b9150509295985092959890939650565b6000602082840312156123d657600080fd5b60006123e4848285016121ca565b91505092915050565b6000806040838503121561240057600080fd5b600061240e858286016121ca565b925050602061241f858286016121b5565b9150509250929050565b61243281612a34565b82525050565b61244181612a46565b82525050565b61245081612aac565b82525050565b6000612461826128c9565b61246b81856128d4565b935061247b818560208601612acd565b61248481612c4e565b840191505092915050565b600061249c6026836128d4565b91506124a782612c5f565b604082019050919050565b60006124bf6020836128d4565b91506124ca82612cae565b602082019050919050565b60006124e26015836128d4565b91506124ed82612cd7565b602082019050919050565b60006125056012836128d4565b915061251082612d00565b602082019050919050565b60006125286011836128d4565b915061253382612d29565b602082019050919050565b600061254b6012836128d4565b915061255682612d52565b602082019050919050565b600061256e6015836128d4565b915061257982612d7b565b602082019050919050565b60408201600082015161259a6000850182612613565b5060208201516125ad6020850182612613565b50505050565b6060820160008201516125c960008501826125f5565b5060208201516125dc60208501826125f5565b5060408201516125ef60408501826125f5565b50505050565b6125fe81612a85565b82525050565b61260d81612a85565b82525050565b61261c81612a8f565b82525050565b61262b81612a8f565b82525050565b60006020820190506126466000830184612429565b92915050565b60006040820190506126616000830185612429565b61266e6020830184612604565b9392505050565b6000602082019050818103600083015261268f8184612456565b905092915050565b60006101808201905081810360008301526126b2818c612456565b90506126c1602083018b612429565b6126ce604083018a612429565b6126db6060830189612604565b6126e860808301886125b3565b6126f560e0830187612447565b612703610100830186612584565b612711610140830185612429565b61271f610160830184612438565b9a9950505050505050505050565b600060408201905081810360008301526127478185612456565b90506127566020830184612604565b9392505050565b600060208201905081810360008301526127768161248f565b9050919050565b60006020820190508181036000830152612796816124b2565b9050919050565b600060208201905081810360008301526127b6816124d5565b9050919050565b600060208201905081810360008301526127d6816124f8565b9050919050565b600060208201905081810360008301526127f68161251b565b9050919050565b600060208201905081810360008301526128168161253e565b9050919050565b6000602082019050818103600083015261283681612561565b9050919050565b60006020820190506128526000830184612604565b92915050565b600060208201905061286d6000830184612622565b92915050565b600061287d61288e565b90506128898282612b32565b919050565b6000604051905090565b600067ffffffffffffffff8211156128b3576128b2612c1f565b5b6128bc82612c4e565b9050602081019050919050565b600081519050919050565b600082825260208201905092915050565b60006128f082612a85565b91506128fb83612a85565b9250827fffffffffffffffffffffffffffffffffffffffffffffffffffffffffffffffff038211156129305761292f612b63565b5b828201905092915050565b600061294682612a8f565b915061295183612a8f565b92508263ffffffff0382111561296a57612969612b63565b5b828201905092915050565b600061298082612a85565b915061298b83612a85565b92508261299b5761299a612b92565b5b828204905092915050565b60006129b182612a85565b91506129bc83612a85565b9250817fffffffffffffffffffffffffffffffffffffffffffffffffffffffffffffffff04831182151516156129f5576129f4612b63565b5b828202905092915050565b6000612a0b82612a85565b9150612a1683612a85565b925082821015612a2957612a28612b63565b5b828203905092915050565b6000612a3f82612a65565b9050919050565b60008115159050919050565b6000819050612a6082612da4565b919050565b600073ffffffffffffffffffffffffffffffffffffffff82169050919050565b6000819050919050565b600063ffffffff82169050919050565b600060ff82169050919050565b6000612ab782612a52565b9050919050565b82818337600083830152505050565b60005b83811015612aeb578082015181840152602081019050612ad0565b83811115612afa576000848401525b50505050565b60006002820490506001821680612b1857607f821691505b60208210811415612b2c57612b2b612bf0565b5b50919050565b612b3b82612c4e565b810181811067ffffffffffffffff82111715612b5a57612b59612c1f565b5b80604052505050565b7f4e487b7100000000000000000000000000000000000000000000000000000000600052601160045260246000fd5b7f4e487b7100000000000000000000000000000000000000000000000000000000600052601260045260246000fd5b7f4e487b7100000000000000000000000000000000000000000000000000000000600052602160045260246000fd5b7f4e487b7100000000000000000000000000000000000000000000000000000000600052602260045260246000fd5b7f4e487b7100000000000000000000000000000000000000000000000000000000600052604160045260246000fd5b6000601f19601f8301169050919050565b7f4f776e61626c653a206e6577206f776e657220697320746865207a65726f206160008201527f6464726573730000000000000000000000000000000000000000000000000000602082015250565b7f4f776e61626c653a2063616c6c6572206973206e6f7420746865206f776e6572600082015250565b7f496e76616c696420656e642074696d657374616d700000000000000000000000600082015250565b7f496e76616c69642073746172742074696d650000000000000000000000000000600082015250565b7f496e76616c69642050726f6a6563744964000000000000000000000000000000600082015250565b7f50726f6a65637420496420696e76616c69640000000000000000000000000000600082015250565b7f496e76616c696420456e642074696d657374616d700000000000000000000000600082015250565b60038110612db557612db4612bc1565b5b50565b612dc181612a34565b8114612dcc57600080fd5b50565b612dd881612a46565b8114612de357600080fd5b50565b60038110612df357600080fd5b50565b612dff81612a85565b8114612e0a57600080fd5b50565b612e1681612a8f565b8114612e2157600080fd5b50565b612e2d81612a9f565b8114612e3857600080fd5b5056fea26469706673582212201fd235d43e077207b55b3ab1644ea013447168e5b3d4f6e993b32999285cdbf964736f6c63430008040033",
  "linkReferences": {},
  "deployedLinkReferences": {}
}