{
  "_format": "hh-sol-artifact-1",
  "contractName": "MockNft",
  "sourceName": "contracts/mock/MockNft.sol",
  "abi": [
    {
      "inputs": [
        {
          "internalType": "string",
          "name": "baseURI_",
          "type": "string"
        }
      ],
      "stateMutability": "nonpayable",
      "type": "constructor"
    },
    {
      "anonymous": false,
      "inputs": [
        {
          "indexed": true,
          "internalType": "address",
          "name": "owner",
          "type": "address"
        },
        {
          "indexed": true,
          "internalType": "address",
          "name": "approved",
          "type": "address"
        },
        {
          "indexed": true,
          "internalType": "uint256",
          "name": "tokenId",
          "type": "uint256"
        }
      ],
      "name": "Approval",
      "type": "event"
    },
    {
      "anonymous": false,
      "inputs": [
        {
          "indexed": true,
          "internalType": "address",
          "name": "owner",
          "type": "address"
        },
        {
          "indexed": true,
          "internalType": "address",
          "name": "operator",
          "type": "address"
        },
        {
          "indexed": false,
          "internalType": "bool",
          "name": "approved",
          "type": "bool"
        }
      ],
      "name": "ApprovalForAll",
      "type": "event"
    },
    {
      "anonymous": false,
      "inputs": [
        {
          "indexed": true,
          "internalType": "address",
          "name": "previousOwner",
          "type": "address"
        },
        {
          "indexed": true,
          "internalType": "address",
          "name": "newOwner",
          "type": "address"
        }
      ],
      "name": "OwnershipTransferred",
      "type": "event"
    },
    {
      "anonymous": false,
      "inputs": [
        {
          "indexed": true,
          "internalType": "address",
          "name": "from",
          "type": "address"
        },
        {
          "indexed": true,
          "internalType": "address",
          "name": "to",
          "type": "address"
        },
        {
          "indexed": true,
          "internalType": "uint256",
          "name": "tokenId",
          "type": "uint256"
        }
      ],
      "name": "Transfer",
      "type": "event"
    },
    {
      "inputs": [
        {
          "internalType": "address",
          "name": "to",
          "type": "address"
        },
        {
          "internalType": "uint256",
          "name": "tokenId",
          "type": "uint256"
        }
      ],
      "name": "approve",
      "outputs": [],
      "stateMutability": "nonpayable",
      "type": "function"
    },
    {
      "inputs": [
        {
          "internalType": "address",
          "name": "owner",
          "type": "address"
        }
      ],
      "name": "balanceOf",
      "outputs": [
        {
          "internalType": "uint256",
          "name": "",
          "type": "uint256"
        }
      ],
      "stateMutability": "view",
      "type": "function"
    },
    {
      "inputs": [
        {
          "internalType": "uint256",
          "name": "tokenId",
          "type": "uint256"
        }
      ],
      "name": "getApproved",
      "outputs": [
        {
          "internalType": "address",
          "name": "",
          "type": "address"
        }
      ],
      "stateMutability": "view",
      "type": "function"
    },
    {
      "inputs": [
        {
          "internalType": "address",
          "name": "owner",
          "type": "address"
        },
        {
          "internalType": "address",
          "name": "operator",
          "type": "address"
        }
      ],
      "name": "isApprovedForAll",
      "outputs": [
        {
          "internalType": "bool",
          "name": "",
          "type": "bool"
        }
      ],
      "stateMutability": "view",
      "type": "function"
    },
    {
      "inputs": [
        {
          "internalType": "address",
          "name": "to",
          "type": "address"
        }
      ],
      "name": "mint",
      "outputs": [],
      "stateMutability": "nonpayable",
      "type": "function"
    },
    {
      "inputs": [],
      "name": "name",
      "outputs": [
        {
          "internalType": "string",
          "name": "",
          "type": "string"
        }
      ],
      "stateMutability": "view",
      "type": "function"
    },
    {
      "inputs": [],
      "name": "owner",
      "outputs": [
        {
          "internalType": "address",
          "name": "",
          "type": "address"
        }
      ],
      "stateMutability": "view",
      "type": "function"
    },
    {
      "inputs": [
        {
          "internalType": "uint256",
          "name": "tokenId",
          "type": "uint256"
        }
      ],
      "name": "ownerOf",
      "outputs": [
        {
          "internalType": "address",
          "name": "",
          "type": "address"
        }
      ],
      "stateMutability": "view",
      "type": "function"
    },
    {
      "inputs": [],
      "name": "renounceOwnership",
      "outputs": [],
      "stateMutability": "nonpayable",
      "type": "function"
    },
    {
      "inputs": [
        {
          "internalType": "address",
          "name": "from",
          "type": "address"
        },
        {
          "internalType": "address",
          "name": "to",
          "type": "address"
        },
        {
          "internalType": "uint256",
          "name": "tokenId",
          "type": "uint256"
        }
      ],
      "name": "safeTransferFrom",
      "outputs": [],
      "stateMutability": "nonpayable",
      "type": "function"
    },
    {
      "inputs": [
        {
          "internalType": "address",
          "name": "from",
          "type": "address"
        },
        {
          "internalType": "address",
          "name": "to",
          "type": "address"
        },
        {
          "internalType": "uint256",
          "name": "tokenId",
          "type": "uint256"
        },
        {
          "internalType": "bytes",
          "name": "_data",
          "type": "bytes"
        }
      ],
      "name": "safeTransferFrom",
      "outputs": [],
      "stateMutability": "nonpayable",
      "type": "function"
    },
    {
      "inputs": [
        {
          "internalType": "address",
          "name": "operator",
          "type": "address"
        },
        {
          "internalType": "bool",
          "name": "approved",
          "type": "bool"
        }
      ],
      "name": "setApprovalForAll",
      "outputs": [],
      "stateMutability": "nonpayable",
      "type": "function"
    },
    {
      "inputs": [
        {
          "internalType": "bytes4",
          "name": "interfaceId",
          "type": "bytes4"
        }
      ],
      "name": "supportsInterface",
      "outputs": [
        {
          "internalType": "bool",
          "name": "",
          "type": "bool"
        }
      ],
      "stateMutability": "view",
      "type": "function"
    },
    {
      "inputs": [],
      "name": "symbol",
      "outputs": [
        {
          "internalType": "string",
          "name": "",
          "type": "string"
        }
      ],
      "stateMutability": "view",
      "type": "function"
    },
    {
      "inputs": [
        {
          "internalType": "uint256",
          "name": "tokenId",
          "type": "uint256"
        }
      ],
      "name": "tokenURI",
      "outputs": [
        {
          "internalType": "string",
          "name": "",
          "type": "string"
        }
      ],
      "stateMutability": "view",
      "type": "function"
    },
    {
      "inputs": [
        {
          "internalType": "address",
          "name": "from",
          "type": "address"
        },
        {
          "internalType": "address",
          "name": "to",
          "type": "address"
        },
        {
          "internalType": "uint256",
          "name": "tokenId",
          "type": "uint256"
        }
      ],
      "name": "transferFrom",
      "outputs": [],
      "stateMutability": "nonpayable",
      "type": "function"
    },
    {
      "inputs": [
        {
          "internalType": "address",
          "name": "newOwner",
          "type": "address"
        }
      ],
      "name": "transferOwnership",
      "outputs": [],
      "stateMutability": "nonpayable",
      "type": "function"
    }
  ],
  "bytecode": "0x60806040523480156200001157600080fd5b506040516200340338038062003403833981810160405281019062000037919062000591565b6040518060400160405280600a81526020017f4d6f636b537461626c65000000000000000000000000000000000000000000008152506040518060400160405280600281526020017f4d53000000000000000000000000000000000000000000000000000000000000815250620000c3620000b76200013360201b60201c565b6200013b60201b60201c565b8160019080519060200190620000db9291906200046f565b508060029080519060200190620000f49291906200046f565b50505080600790805190602001906200010f9291906200046f565b5060016008819055506200012c33600854620001ff60201b60201c565b50620008d1565b600033905090565b60008060009054906101000a900473ffffffffffffffffffffffffffffffffffffffff169050816000806101000a81548173ffffffffffffffffffffffffffffffffffffffff021916908373ffffffffffffffffffffffffffffffffffffffff1602179055508173ffffffffffffffffffffffffffffffffffffffff168173ffffffffffffffffffffffffffffffffffffffff167f8be0079c531659141344cd1fd0a4f28419497f9722a3daafe3b4186f6b6457e060405160405180910390a35050565b600073ffffffffffffffffffffffffffffffffffffffff168273ffffffffffffffffffffffffffffffffffffffff16141562000272576040517f08c379a0000000000000000000000000000000000000000000000000000000008152600401620002699062000646565b60405180910390fd5b6200028381620003f960201b60201c565b15620002c6576040517f08c379a0000000000000000000000000000000000000000000000000000000008152600401620002bd9062000624565b60405180910390fd5b620002da600083836200046560201b60201c565b6001600460008473ffffffffffffffffffffffffffffffffffffffff1673ffffffffffffffffffffffffffffffffffffffff16815260200190815260200160002060008282546200032c9190620006d8565b92505081905550816003600083815260200190815260200160002060006101000a81548173ffffffffffffffffffffffffffffffffffffffff021916908373ffffffffffffffffffffffffffffffffffffffff160217905550808273ffffffffffffffffffffffffffffffffffffffff16600073ffffffffffffffffffffffffffffffffffffffff167fddf252ad1be2c89b69c2b068fc378daa952ba7f163c4a11628f55a4df523b3ef60405160405180910390a4620003f5600083836200046a60201b60201c565b5050565b60008073ffffffffffffffffffffffffffffffffffffffff166003600084815260200190815260200160002060009054906101000a900473ffffffffffffffffffffffffffffffffffffffff1673ffffffffffffffffffffffffffffffffffffffff1614159050919050565b505050565b505050565b8280546200047d9062000775565b90600052602060002090601f016020900481019282620004a15760008555620004ed565b82601f10620004bc57805160ff1916838001178555620004ed565b82800160010185558215620004ed579182015b82811115620004ec578251825591602001919060010190620004cf565b5b509050620004fc919062000500565b5090565b5b808211156200051b57600081600090555060010162000501565b5090565b600062000536620005308462000691565b62000668565b9050828152602081018484840111156200054f57600080fd5b6200055c8482856200073f565b509392505050565b600082601f8301126200057657600080fd5b8151620005888482602086016200051f565b91505092915050565b600060208284031215620005a457600080fd5b600082015167ffffffffffffffff811115620005bf57600080fd5b620005cd8482850162000564565b91505092915050565b6000620005e5601c83620006c7565b9150620005f2826200087f565b602082019050919050565b60006200060c602083620006c7565b91506200061982620008a8565b602082019050919050565b600060208201905081810360008301526200063f81620005d6565b9050919050565b600060208201905081810360008301526200066181620005fd565b9050919050565b60006200067462000687565b9050620006828282620007ab565b919050565b6000604051905090565b600067ffffffffffffffff821115620006af57620006ae6200083f565b5b620006ba826200086e565b9050602081019050919050565b600082825260208201905092915050565b6000620006e58262000735565b9150620006f28362000735565b9250827fffffffffffffffffffffffffffffffffffffffffffffffffffffffffffffffff038211156200072a5762000729620007e1565b5b828201905092915050565b6000819050919050565b60005b838110156200075f57808201518184015260208101905062000742565b838111156200076f576000848401525b50505050565b600060028204905060018216806200078e57607f821691505b60208210811415620007a557620007a462000810565b5b50919050565b620007b6826200086e565b810181811067ffffffffffffffff82111715620007d857620007d76200083f565b5b80604052505050565b7f4e487b7100000000000000000000000000000000000000000000000000000000600052601160045260246000fd5b7f4e487b7100000000000000000000000000000000000000000000000000000000600052602260045260246000fd5b7f4e487b7100000000000000000000000000000000000000000000000000000000600052604160045260246000fd5b6000601f19601f8301169050919050565b7f4552433732313a20746f6b656e20616c7265616479206d696e74656400000000600082015250565b7f4552433732313a206d696e7420746f20746865207a65726f2061646472657373600082015250565b612b2280620008e16000396000f3fe608060405234801561001057600080fd5b506004361061010b5760003560e01c806370a08231116100a2578063a22cb46511610071578063a22cb465146102a4578063b88d4fde146102c0578063c87b56dd146102dc578063e985e9c51461030c578063f2fde38b1461033c5761010b565b806370a082311461022e578063715018a61461025e5780638da5cb5b1461026857806395d89b41146102865761010b565b806323b872dd116100de57806323b872dd146101aa57806342842e0e146101c65780636352211e146101e25780636a627842146102125761010b565b806301ffc9a71461011057806306fdde0314610140578063081812fc1461015e578063095ea7b31461018e575b600080fd5b61012a60048036038101906101259190611c26565b610358565b604051610137919061202c565b60405180910390f35b61014861043a565b6040516101559190612047565b60405180910390f35b61017860048036038101906101739190611c78565b6104cc565b6040516101859190611fc5565b60405180910390f35b6101a860048036038101906101a39190611bea565b610551565b005b6101c460048036038101906101bf9190611ae4565b610669565b005b6101e060048036038101906101db9190611ae4565b6106c9565b005b6101fc60048036038101906101f79190611c78565b6106e9565b6040516102099190611fc5565b60405180910390f35b61022c60048036038101906102279190611a7f565b61079b565b005b61024860048036038101906102439190611a7f565b6107c2565b6040516102559190612269565b60405180910390f35b61026661087a565b005b610270610902565b60405161027d9190611fc5565b60405180910390f35b61028e61092b565b60405161029b9190612047565b60405180910390f35b6102be60048036038101906102b99190611bae565b6109bd565b005b6102da60048036038101906102d59190611b33565b6109d3565b005b6102f660048036038101906102f19190611c78565b610a35565b6040516103039190612047565b60405180910390f35b61032660048036038101906103219190611aa8565b610adc565b604051610333919061202c565b60405180910390f35b61035660048036038101906103519190611a7f565b610b70565b005b60007f80ac58cd000000000000000000000000000000000000000000000000000000007bffffffffffffffffffffffffffffffffffffffffffffffffffffffff1916827bffffffffffffffffffffffffffffffffffffffffffffffffffffffff1916148061042357507f5b5e139f000000000000000000000000000000000000000000000000000000007bffffffffffffffffffffffffffffffffffffffffffffffffffffffff1916827bffffffffffffffffffffffffffffffffffffffffffffffffffffffff1916145b80610433575061043282610c68565b5b9050919050565b6060600180546104499061248e565b80601f01602080910402602001604051908101604052809291908181526020018280546104759061248e565b80156104c25780601f10610497576101008083540402835291602001916104c2565b820191906000526020600020905b8154815290600101906020018083116104a557829003601f168201915b5050505050905090565b60006104d782610cd2565b610516576040517f08c379a000000000000000000000000000000000000000000000000000000000815260040161050d906121c9565b60405180910390fd5b6005600083815260200190815260200160002060009054906101000a900473ffffffffffffffffffffffffffffffffffffffff169050919050565b600061055c826106e9565b90508073ffffffffffffffffffffffffffffffffffffffff168373ffffffffffffffffffffffffffffffffffffffff1614156105cd576040517f08c379a00000000000000000000000000000000000000000000000000000000081526004016105c490612229565b60405180910390fd5b8073ffffffffffffffffffffffffffffffffffffffff166105ec610d3e565b73ffffffffffffffffffffffffffffffffffffffff16148061061b575061061a81610615610d3e565b610adc565b5b61065a576040517f08c379a000000000000000000000000000000000000000000000000000000000815260040161065190612149565b60405180910390fd5b6106648383610d46565b505050565b61067a610674610d3e565b82610dff565b6106b9576040517f08c379a00000000000000000000000000000000000000000000000000000000081526004016106b090612249565b60405180910390fd5b6106c4838383610edd565b505050565b6106e4838383604051806020016040528060008152506109d3565b505050565b6000806003600084815260200190815260200160002060009054906101000a900473ffffffffffffffffffffffffffffffffffffffff169050600073ffffffffffffffffffffffffffffffffffffffff168173ffffffffffffffffffffffffffffffffffffffff161415610792576040517f08c379a000000000000000000000000000000000000000000000000000000000815260040161078990612189565b60405180910390fd5b80915050919050565b600860008154809291906107ae906124f1565b91905055506107bf81600854611144565b50565b60008073ffffffffffffffffffffffffffffffffffffffff168273ffffffffffffffffffffffffffffffffffffffff161415610833576040517f08c379a000000000000000000000000000000000000000000000000000000000815260040161082a90612169565b60405180910390fd5b600460008373ffffffffffffffffffffffffffffffffffffffff1673ffffffffffffffffffffffffffffffffffffffff168152602001908152602001600020549050919050565b610882610d3e565b73ffffffffffffffffffffffffffffffffffffffff166108a0610902565b73ffffffffffffffffffffffffffffffffffffffff16146108f6576040517f08c379a00000000000000000000000000000000000000000000000000000000081526004016108ed906121e9565b60405180910390fd5b610900600061131e565b565b60008060009054906101000a900473ffffffffffffffffffffffffffffffffffffffff16905090565b60606002805461093a9061248e565b80601f01602080910402602001604051908101604052809291908181526020018280546109669061248e565b80156109b35780601f10610988576101008083540402835291602001916109b3565b820191906000526020600020905b81548152906001019060200180831161099657829003601f168201915b5050505050905090565b6109cf6109c8610d3e565b83836113e2565b5050565b6109e46109de610d3e565b83610dff565b610a23576040517f08c379a0000000000000000000000000000000000000000000000000000000008152600401610a1a90612249565b60405180910390fd5b610a2f8484848461154f565b50505050565b6060610a4082610cd2565b610a7f576040517f08c379a0000000000000000000000000000000000000000000000000000000008152600401610a7690612209565b60405180910390fd5b6000610a896115ab565b90506000815111610aa95760405180602001604052806000815250610ad4565b80610ab38461163d565b604051602001610ac4929190611fa1565b6040516020818303038152906040525b915050919050565b6000600660008473ffffffffffffffffffffffffffffffffffffffff1673ffffffffffffffffffffffffffffffffffffffff16815260200190815260200160002060008373ffffffffffffffffffffffffffffffffffffffff1673ffffffffffffffffffffffffffffffffffffffff16815260200190815260200160002060009054906101000a900460ff16905092915050565b610b78610d3e565b73ffffffffffffffffffffffffffffffffffffffff16610b96610902565b73ffffffffffffffffffffffffffffffffffffffff1614610bec576040517f08c379a0000000000000000000000000000000000000000000000000000000008152600401610be3906121e9565b60405180910390fd5b600073ffffffffffffffffffffffffffffffffffffffff168173ffffffffffffffffffffffffffffffffffffffff161415610c5c576040517f08c379a0000000000000000000000000000000000000000000000000000000008152600401610c5390612089565b60405180910390fd5b610c658161131e565b50565b60007f01ffc9a7000000000000000000000000000000000000000000000000000000007bffffffffffffffffffffffffffffffffffffffffffffffffffffffff1916827bffffffffffffffffffffffffffffffffffffffffffffffffffffffff1916149050919050565b60008073ffffffffffffffffffffffffffffffffffffffff166003600084815260200190815260200160002060009054906101000a900473ffffffffffffffffffffffffffffffffffffffff1673ffffffffffffffffffffffffffffffffffffffff1614159050919050565b600033905090565b816005600083815260200190815260200160002060006101000a81548173ffffffffffffffffffffffffffffffffffffffff021916908373ffffffffffffffffffffffffffffffffffffffff160217905550808273ffffffffffffffffffffffffffffffffffffffff16610db9836106e9565b73ffffffffffffffffffffffffffffffffffffffff167f8c5be1e5ebec7d5bd14f71427d1e84f3dd0314c0f7b2291e5b200ac8c7c3b92560405160405180910390a45050565b6000610e0a82610cd2565b610e49576040517f08c379a0000000000000000000000000000000000000000000000000000000008152600401610e4090612129565b60405180910390fd5b6000610e54836106e9565b90508073ffffffffffffffffffffffffffffffffffffffff168473ffffffffffffffffffffffffffffffffffffffff161480610ec357508373ffffffffffffffffffffffffffffffffffffffff16610eab846104cc565b73ffffffffffffffffffffffffffffffffffffffff16145b80610ed45750610ed38185610adc565b5b91505092915050565b8273ffffffffffffffffffffffffffffffffffffffff16610efd826106e9565b73ffffffffffffffffffffffffffffffffffffffff1614610f53576040517f08c379a0000000000000000000000000000000000000000000000000000000008152600401610f4a906120a9565b60405180910390fd5b600073ffffffffffffffffffffffffffffffffffffffff168273ffffffffffffffffffffffffffffffffffffffff161415610fc3576040517f08c379a0000000000000000000000000000000000000000000000000000000008152600401610fba906120e9565b60405180910390fd5b610fce8383836117ea565b610fd9600082610d46565b6001600460008573ffffffffffffffffffffffffffffffffffffffff1673ffffffffffffffffffffffffffffffffffffffff168152602001908152602001600020600082825461102991906123a4565b925050819055506001600460008473ffffffffffffffffffffffffffffffffffffffff1673ffffffffffffffffffffffffffffffffffffffff1681526020019081526020016000206000828254611080919061231d565b92505081905550816003600083815260200190815260200160002060006101000a81548173ffffffffffffffffffffffffffffffffffffffff021916908373ffffffffffffffffffffffffffffffffffffffff160217905550808273ffffffffffffffffffffffffffffffffffffffff168473ffffffffffffffffffffffffffffffffffffffff167fddf252ad1be2c89b69c2b068fc378daa952ba7f163c4a11628f55a4df523b3ef60405160405180910390a461113f8383836117ef565b505050565b600073ffffffffffffffffffffffffffffffffffffffff168273ffffffffffffffffffffffffffffffffffffffff1614156111b4576040517f08c379a00000000000000000000000000000000000000000000000000000000081526004016111ab906121a9565b60405180910390fd5b6111bd81610cd2565b156111fd576040517f08c379a00000000000000000000000000000000000000000000000000000000081526004016111f4906120c9565b60405180910390fd5b611209600083836117ea565b6001600460008473ffffffffffffffffffffffffffffffffffffffff1673ffffffffffffffffffffffffffffffffffffffff1681526020019081526020016000206000828254611259919061231d565b92505081905550816003600083815260200190815260200160002060006101000a81548173ffffffffffffffffffffffffffffffffffffffff021916908373ffffffffffffffffffffffffffffffffffffffff160217905550808273ffffffffffffffffffffffffffffffffffffffff16600073ffffffffffffffffffffffffffffffffffffffff167fddf252ad1be2c89b69c2b068fc378daa952ba7f163c4a11628f55a4df523b3ef60405160405180910390a461131a600083836117ef565b5050565b60008060009054906101000a900473ffffffffffffffffffffffffffffffffffffffff169050816000806101000a81548173ffffffffffffffffffffffffffffffffffffffff021916908373ffffffffffffffffffffffffffffffffffffffff1602179055508173ffffffffffffffffffffffffffffffffffffffff168173ffffffffffffffffffffffffffffffffffffffff167f8be0079c531659141344cd1fd0a4f28419497f9722a3daafe3b4186f6b6457e060405160405180910390a35050565b8173ffffffffffffffffffffffffffffffffffffffff168373ffffffffffffffffffffffffffffffffffffffff161415611451576040517f08c379a000000000000000000000000000000000000000000000000000000000815260040161144890612109565b60405180910390fd5b80600660008573ffffffffffffffffffffffffffffffffffffffff1673ffffffffffffffffffffffffffffffffffffffff16815260200190815260200160002060008473ffffffffffffffffffffffffffffffffffffffff1673ffffffffffffffffffffffffffffffffffffffff16815260200190815260200160002060006101000a81548160ff0219169083151502179055508173ffffffffffffffffffffffffffffffffffffffff168373ffffffffffffffffffffffffffffffffffffffff167f17307eab39ab6107e8899845ad3d59bd9653f200f220920489ca2b5937696c3183604051611542919061202c565b60405180910390a3505050565b61155a848484610edd565b611566848484846117f4565b6115a5576040517f08c379a000000000000000000000000000000000000000000000000000000000815260040161159c90612069565b60405180910390fd5b50505050565b6060600780546115ba9061248e565b80601f01602080910402602001604051908101604052809291908181526020018280546115e69061248e565b80156116335780601f1061160857610100808354040283529160200191611633565b820191906000526020600020905b81548152906001019060200180831161161657829003601f168201915b5050505050905090565b60606000821415611685576040518060400160405280600181526020017f300000000000000000000000000000000000000000000000000000000000000081525090506117e5565b600082905060005b600082146116b75780806116a0906124f1565b915050600a826116b09190612373565b915061168d565b60008167ffffffffffffffff8111156116f9577f4e487b7100000000000000000000000000000000000000000000000000000000600052604160045260246000fd5b6040519080825280601f01601f19166020018201604052801561172b5781602001600182028036833780820191505090505b5090505b600085146117de5760018261174491906123a4565b9150600a85611753919061253a565b603061175f919061231d565b60f81b81838151811061179b577f4e487b7100000000000000000000000000000000000000000000000000000000600052603260045260246000fd5b60200101907effffffffffffffffffffffffffffffffffffffffffffffffffffffffffffff1916908160001a905350600a856117d79190612373565b945061172f565b8093505050505b919050565b505050565b505050565b60006118158473ffffffffffffffffffffffffffffffffffffffff1661198b565b1561197e578373ffffffffffffffffffffffffffffffffffffffff1663150b7a0261183e610d3e565b8786866040518563ffffffff1660e01b81526004016118609493929190611fe0565b602060405180830381600087803b15801561187a57600080fd5b505af19250505080156118ab57506040513d601f19601f820116820180604052508101906118a89190611c4f565b60015b61192e573d80600081146118db576040519150601f19603f3d011682016040523d82523d6000602084013e6118e0565b606091505b50600081511415611926576040517f08c379a000000000000000000000000000000000000000000000000000000000815260040161191d90612069565b60405180910390fd5b805181602001fd5b63150b7a0260e01b7bffffffffffffffffffffffffffffffffffffffffffffffffffffffff1916817bffffffffffffffffffffffffffffffffffffffffffffffffffffffff191614915050611983565b600190505b949350505050565b6000808273ffffffffffffffffffffffffffffffffffffffff163b119050919050565b60006119c16119bc846122a9565b612284565b9050828152602081018484840111156119d957600080fd5b6119e484828561244c565b509392505050565b6000813590506119fb81612a90565b92915050565b600081359050611a1081612aa7565b92915050565b600081359050611a2581612abe565b92915050565b600081519050611a3a81612abe565b92915050565b600082601f830112611a5157600080fd5b8135611a618482602086016119ae565b91505092915050565b600081359050611a7981612ad5565b92915050565b600060208284031215611a9157600080fd5b6000611a9f848285016119ec565b91505092915050565b60008060408385031215611abb57600080fd5b6000611ac9858286016119ec565b9250506020611ada858286016119ec565b9150509250929050565b600080600060608486031215611af957600080fd5b6000611b07868287016119ec565b9350506020611b18868287016119ec565b9250506040611b2986828701611a6a565b9150509250925092565b60008060008060808587031215611b4957600080fd5b6000611b57878288016119ec565b9450506020611b68878288016119ec565b9350506040611b7987828801611a6a565b925050606085013567ffffffffffffffff811115611b9657600080fd5b611ba287828801611a40565b91505092959194509250565b60008060408385031215611bc157600080fd5b6000611bcf858286016119ec565b9250506020611be085828601611a01565b9150509250929050565b60008060408385031215611bfd57600080fd5b6000611c0b858286016119ec565b9250506020611c1c85828601611a6a565b9150509250929050565b600060208284031215611c3857600080fd5b6000611c4684828501611a16565b91505092915050565b600060208284031215611c6157600080fd5b6000611c6f84828501611a2b565b91505092915050565b600060208284031215611c8a57600080fd5b6000611c9884828501611a6a565b91505092915050565b611caa816123d8565b82525050565b611cb9816123ea565b82525050565b6000611cca826122da565b611cd481856122f0565b9350611ce481856020860161245b565b611ced81612627565b840191505092915050565b6000611d03826122e5565b611d0d8185612301565b9350611d1d81856020860161245b565b611d2681612627565b840191505092915050565b6000611d3c826122e5565b611d468185612312565b9350611d5681856020860161245b565b80840191505092915050565b6000611d6f603283612301565b9150611d7a82612638565b604082019050919050565b6000611d92602683612301565b9150611d9d82612687565b604082019050919050565b6000611db5602583612301565b9150611dc0826126d6565b604082019050919050565b6000611dd8601c83612301565b9150611de382612725565b602082019050919050565b6000611dfb602483612301565b9150611e068261274e565b604082019050919050565b6000611e1e601983612301565b9150611e298261279d565b602082019050919050565b6000611e41602c83612301565b9150611e4c826127c6565b604082019050919050565b6000611e64603883612301565b9150611e6f82612815565b604082019050919050565b6000611e87602a83612301565b9150611e9282612864565b604082019050919050565b6000611eaa602983612301565b9150611eb5826128b3565b604082019050919050565b6000611ecd602083612301565b9150611ed882612902565b602082019050919050565b6000611ef0602c83612301565b9150611efb8261292b565b604082019050919050565b6000611f13602083612301565b9150611f1e8261297a565b602082019050919050565b6000611f36602f83612301565b9150611f41826129a3565b604082019050919050565b6000611f59602183612301565b9150611f64826129f2565b604082019050919050565b6000611f7c603183612301565b9150611f8782612a41565b604082019050919050565b611f9b81612442565b82525050565b6000611fad8285611d31565b9150611fb98284611d31565b91508190509392505050565b6000602082019050611fda6000830184611ca1565b92915050565b6000608082019050611ff56000830187611ca1565b6120026020830186611ca1565b61200f6040830185611f92565b81810360608301526120218184611cbf565b905095945050505050565b60006020820190506120416000830184611cb0565b92915050565b600060208201905081810360008301526120618184611cf8565b905092915050565b6000602082019050818103600083015261208281611d62565b9050919050565b600060208201905081810360008301526120a281611d85565b9050919050565b600060208201905081810360008301526120c281611da8565b9050919050565b600060208201905081810360008301526120e281611dcb565b9050919050565b6000602082019050818103600083015261210281611dee565b9050919050565b6000602082019050818103600083015261212281611e11565b9050919050565b6000602082019050818103600083015261214281611e34565b9050919050565b6000602082019050818103600083015261216281611e57565b9050919050565b6000602082019050818103600083015261218281611e7a565b9050919050565b600060208201905081810360008301526121a281611e9d565b9050919050565b600060208201905081810360008301526121c281611ec0565b9050919050565b600060208201905081810360008301526121e281611ee3565b9050919050565b6000602082019050818103600083015261220281611f06565b9050919050565b6000602082019050818103600083015261222281611f29565b9050919050565b6000602082019050818103600083015261224281611f4c565b9050919050565b6000602082019050818103600083015261226281611f6f565b9050919050565b600060208201905061227e6000830184611f92565b92915050565b600061228e61229f565b905061229a82826124c0565b919050565b6000604051905090565b600067ffffffffffffffff8211156122c4576122c36125f8565b5b6122cd82612627565b9050602081019050919050565b600081519050919050565b600081519050919050565b600082825260208201905092915050565b600082825260208201905092915050565b600081905092915050565b600061232882612442565b915061233383612442565b9250827fffffffffffffffffffffffffffffffffffffffffffffffffffffffffffffffff038211156123685761236761256b565b5b828201905092915050565b600061237e82612442565b915061238983612442565b9250826123995761239861259a565b5b828204905092915050565b60006123af82612442565b91506123ba83612442565b9250828210156123cd576123cc61256b565b5b828203905092915050565b60006123e382612422565b9050919050565b60008115159050919050565b60007fffffffff0000000000000000000000000000000000000000000000000000000082169050919050565b600073ffffffffffffffffffffffffffffffffffffffff82169050919050565b6000819050919050565b82818337600083830152505050565b60005b8381101561247957808201518184015260208101905061245e565b83811115612488576000848401525b50505050565b600060028204905060018216806124a657607f821691505b602082108114156124ba576124b96125c9565b5b50919050565b6124c982612627565b810181811067ffffffffffffffff821117156124e8576124e76125f8565b5b80604052505050565b60006124fc82612442565b91507fffffffffffffffffffffffffffffffffffffffffffffffffffffffffffffffff82141561252f5761252e61256b565b5b600182019050919050565b600061254582612442565b915061255083612442565b9250826125605761255f61259a565b5b828206905092915050565b7f4e487b7100000000000000000000000000000000000000000000000000000000600052601160045260246000fd5b7f4e487b7100000000000000000000000000000000000000000000000000000000600052601260045260246000fd5b7f4e487b7100000000000000000000000000000000000000000000000000000000600052602260045260246000fd5b7f4e487b7100000000000000000000000000000000000000000000000000000000600052604160045260246000fd5b6000601f19601f8301169050919050565b7f4552433732313a207472616e7366657220746f206e6f6e20455243373231526560008201527f63656976657220696d706c656d656e7465720000000000000000000000000000602082015250565b7f4f776e61626c653a206e6577206f776e657220697320746865207a65726f206160008201527f6464726573730000000000000000000000000000000000000000000000000000602082015250565b7f4552433732313a207472616e736665722066726f6d20696e636f72726563742060008201527f6f776e6572000000000000000000000000000000000000000000000000000000602082015250565b7f4552433732313a20746f6b656e20616c7265616479206d696e74656400000000600082015250565b7f4552433732313a207472616e7366657220746f20746865207a65726f2061646460008201527f7265737300000000000000000000000000000000000000000000000000000000602082015250565b7f4552433732313a20617070726f766520746f2063616c6c657200000000000000600082015250565b7f4552433732313a206f70657261746f7220717565727920666f72206e6f6e657860008201527f697374656e7420746f6b656e0000000000000000000000000000000000000000602082015250565b7f4552433732313a20617070726f76652063616c6c6572206973206e6f74206f7760008201527f6e6572206e6f7220617070726f76656420666f7220616c6c0000000000000000602082015250565b7f4552433732313a2062616c616e636520717565727920666f7220746865207a6560008201527f726f206164647265737300000000000000000000000000000000000000000000602082015250565b7f4552433732313a206f776e657220717565727920666f72206e6f6e657869737460008201527f656e7420746f6b656e0000000000000000000000000000000000000000000000602082015250565b7f4552433732313a206d696e7420746f20746865207a65726f2061646472657373600082015250565b7f4552433732313a20617070726f76656420717565727920666f72206e6f6e657860008201527f697374656e7420746f6b656e0000000000000000000000000000000000000000602082015250565b7f4f776e61626c653a2063616c6c6572206973206e6f7420746865206f776e6572600082015250565b7f4552433732314d657461646174613a2055524920717565727920666f72206e6f60008201527f6e6578697374656e7420746f6b656e0000000000000000000000000000000000602082015250565b7f4552433732313a20617070726f76616c20746f2063757272656e74206f776e6560008201527f7200000000000000000000000000000000000000000000000000000000000000602082015250565b7f4552433732313a207472616e736665722063616c6c6572206973206e6f74206f60008201527f776e6572206e6f7220617070726f766564000000000000000000000000000000602082015250565b612a99816123d8565b8114612aa457600080fd5b50565b612ab0816123ea565b8114612abb57600080fd5b50565b612ac7816123f6565b8114612ad257600080fd5b50565b612ade81612442565b8114612ae957600080fd5b5056fea2646970667358221220f5f01ce1aa17075998bdc76f447ed9732af7bda9575ae1796301689b2ad8c4ef64736f6c63430008040033",
  "linkReferences": {},
  "deployedLinkReferences": {}
}