{
  "_format": "hh-sol-artifact-1",
  "contractName": "MockNft",
  "sourceName": "contracts/mock/MockNft.sol",
  "abi": [
    {
      "inputs": [
        {
          "internalType": "string",
          "name": "baseURI_",
          "type": "string"
        }
      ],
      "stateMutability": "nonpayable",
      "type": "constructor"
    },
    {
      "anonymous": false,
      "inputs": [
        {
          "indexed": true,
          "internalType": "address",
          "name": "owner",
          "type": "address"
        },
        {
          "indexed": true,
          "internalType": "address",
          "name": "approved",
          "type": "address"
        },
        {
          "indexed": true,
          "internalType": "uint256",
          "name": "tokenId",
          "type": "uint256"
        }
      ],
      "name": "Approval",
      "type": "event"
    },
    {
      "anonymous": false,
      "inputs": [
        {
          "indexed": true,
          "internalType": "address",
          "name": "owner",
          "type": "address"
        },
        {
          "indexed": true,
          "internalType": "address",
          "name": "operator",
          "type": "address"
        },
        {
          "indexed": false,
          "internalType": "bool",
          "name": "approved",
          "type": "bool"
        }
      ],
      "name": "ApprovalForAll",
      "type": "event"
    },
    {
      "anonymous": false,
      "inputs": [
        {
          "indexed": true,
          "internalType": "address",
          "name": "previousOwner",
          "type": "address"
        },
        {
          "indexed": true,
          "internalType": "address",
          "name": "newOwner",
          "type": "address"
        }
      ],
      "name": "OwnershipTransferred",
      "type": "event"
    },
    {
      "anonymous": false,
      "inputs": [
        {
          "indexed": true,
          "internalType": "address",
          "name": "from",
          "type": "address"
        },
        {
          "indexed": true,
          "internalType": "address",
          "name": "to",
          "type": "address"
        },
        {
          "indexed": true,
          "internalType": "uint256",
          "name": "tokenId",
          "type": "uint256"
        }
      ],
      "name": "Transfer",
      "type": "event"
    },
    {
      "inputs": [
        {
          "internalType": "address",
          "name": "to",
          "type": "address"
        },
        {
          "internalType": "uint256",
          "name": "tokenId",
          "type": "uint256"
        }
      ],
      "name": "approve",
      "outputs": [],
      "stateMutability": "nonpayable",
      "type": "function"
    },
    {
      "inputs": [
        {
          "internalType": "address",
          "name": "owner",
          "type": "address"
        }
      ],
      "name": "balanceOf",
      "outputs": [
        {
          "internalType": "uint256",
          "name": "",
          "type": "uint256"
        }
      ],
      "stateMutability": "view",
      "type": "function"
    },
    {
      "inputs": [
        {
          "internalType": "uint256",
          "name": "tokenId",
          "type": "uint256"
        }
      ],
      "name": "getApproved",
      "outputs": [
        {
          "internalType": "address",
          "name": "",
          "type": "address"
        }
      ],
      "stateMutability": "view",
      "type": "function"
    },
    {
      "inputs": [
        {
          "internalType": "address",
          "name": "owner",
          "type": "address"
        },
        {
          "internalType": "address",
          "name": "operator",
          "type": "address"
        }
      ],
      "name": "isApprovedForAll",
      "outputs": [
        {
          "internalType": "bool",
          "name": "",
          "type": "bool"
        }
      ],
      "stateMutability": "view",
      "type": "function"
    },
    {
      "inputs": [
        {
          "internalType": "address",
          "name": "to",
          "type": "address"
        }
      ],
      "name": "mint",
      "outputs": [],
      "stateMutability": "nonpayable",
      "type": "function"
    },
    {
      "inputs": [],
      "name": "name",
      "outputs": [
        {
          "internalType": "string",
          "name": "",
          "type": "string"
        }
      ],
      "stateMutability": "view",
      "type": "function"
    },
    {
      "inputs": [],
      "name": "owner",
      "outputs": [
        {
          "internalType": "address",
          "name": "",
          "type": "address"
        }
      ],
      "stateMutability": "view",
      "type": "function"
    },
    {
      "inputs": [
        {
          "internalType": "uint256",
          "name": "tokenId",
          "type": "uint256"
        }
      ],
      "name": "ownerOf",
      "outputs": [
        {
          "internalType": "address",
          "name": "",
          "type": "address"
        }
      ],
      "stateMutability": "view",
      "type": "function"
    },
    {
      "inputs": [],
      "name": "renounceOwnership",
      "outputs": [],
      "stateMutability": "nonpayable",
      "type": "function"
    },
    {
      "inputs": [
        {
          "internalType": "address",
          "name": "from",
          "type": "address"
        },
        {
          "internalType": "address",
          "name": "to",
          "type": "address"
        },
        {
          "internalType": "uint256",
          "name": "tokenId",
          "type": "uint256"
        }
      ],
      "name": "safeTransferFrom",
      "outputs": [],
      "stateMutability": "nonpayable",
      "type": "function"
    },
    {
      "inputs": [
        {
          "internalType": "address",
          "name": "from",
          "type": "address"
        },
        {
          "internalType": "address",
          "name": "to",
          "type": "address"
        },
        {
          "internalType": "uint256",
          "name": "tokenId",
          "type": "uint256"
        },
        {
          "internalType": "bytes",
          "name": "_data",
          "type": "bytes"
        }
      ],
      "name": "safeTransferFrom",
      "outputs": [],
      "stateMutability": "nonpayable",
      "type": "function"
    },
    {
      "inputs": [
        {
          "internalType": "address",
          "name": "operator",
          "type": "address"
        },
        {
          "internalType": "bool",
          "name": "approved",
          "type": "bool"
        }
      ],
      "name": "setApprovalForAll",
      "outputs": [],
      "stateMutability": "nonpayable",
      "type": "function"
    },
    {
      "inputs": [
        {
          "internalType": "bytes4",
          "name": "interfaceId",
          "type": "bytes4"
        }
      ],
      "name": "supportsInterface",
      "outputs": [
        {
          "internalType": "bool",
          "name": "",
          "type": "bool"
        }
      ],
      "stateMutability": "view",
      "type": "function"
    },
    {
      "inputs": [],
      "name": "symbol",
      "outputs": [
        {
          "internalType": "string",
          "name": "",
          "type": "string"
        }
      ],
      "stateMutability": "view",
      "type": "function"
    },
    {
      "inputs": [
        {
          "internalType": "uint256",
          "name": "tokenId",
          "type": "uint256"
        }
      ],
      "name": "tokenURI",
      "outputs": [
        {
          "internalType": "string",
          "name": "",
          "type": "string"
        }
      ],
      "stateMutability": "view",
      "type": "function"
    },
    {
      "inputs": [
        {
          "internalType": "address",
          "name": "from",
          "type": "address"
        },
        {
          "internalType": "address",
          "name": "to",
          "type": "address"
        },
        {
          "internalType": "uint256",
          "name": "tokenId",
          "type": "uint256"
        }
      ],
      "name": "transferFrom",
      "outputs": [],
      "stateMutability": "nonpayable",
      "type": "function"
    },
    {
      "inputs": [
        {
          "internalType": "address",
          "name": "newOwner",
          "type": "address"
        }
      ],
      "name": "transferOwnership",
      "outputs": [],
      "stateMutability": "nonpayable",
      "type": "function"
    }
  ],
  "bytecode": "0x60806040523480156200001157600080fd5b506040516200347f3803806200347f833981810160405281019062000037919062000591565b6040518060400160405280600a81526020017f4d6f636b537461626c65000000000000000000000000000000000000000000008152506040518060400160405280600281526020017f4d53000000000000000000000000000000000000000000000000000000000000815250620000c3620000b76200013360201b60201c565b6200013b60201b60201c565b8160019080519060200190620000db9291906200046f565b508060029080519060200190620000f49291906200046f565b50505080600790805190602001906200010f9291906200046f565b5060016008819055506200012c33600854620001ff60201b60201c565b50620008d1565b600033905090565b60008060009054906101000a900473ffffffffffffffffffffffffffffffffffffffff169050816000806101000a81548173ffffffffffffffffffffffffffffffffffffffff021916908373ffffffffffffffffffffffffffffffffffffffff1602179055508173ffffffffffffffffffffffffffffffffffffffff168173ffffffffffffffffffffffffffffffffffffffff167f8be0079c531659141344cd1fd0a4f28419497f9722a3daafe3b4186f6b6457e060405160405180910390a35050565b600073ffffffffffffffffffffffffffffffffffffffff168273ffffffffffffffffffffffffffffffffffffffff16141562000272576040517f08c379a0000000000000000000000000000000000000000000000000000000008152600401620002699062000646565b60405180910390fd5b6200028381620003f960201b60201c565b15620002c6576040517f08c379a0000000000000000000000000000000000000000000000000000000008152600401620002bd9062000624565b60405180910390fd5b620002da600083836200046560201b60201c565b6001600460008473ffffffffffffffffffffffffffffffffffffffff1673ffffffffffffffffffffffffffffffffffffffff16815260200190815260200160002060008282546200032c9190620006d8565b92505081905550816003600083815260200190815260200160002060006101000a81548173ffffffffffffffffffffffffffffffffffffffff021916908373ffffffffffffffffffffffffffffffffffffffff160217905550808273ffffffffffffffffffffffffffffffffffffffff16600073ffffffffffffffffffffffffffffffffffffffff167fddf252ad1be2c89b69c2b068fc378daa952ba7f163c4a11628f55a4df523b3ef60405160405180910390a4620003f5600083836200046a60201b60201c565b5050565b60008073ffffffffffffffffffffffffffffffffffffffff166003600084815260200190815260200160002060009054906101000a900473ffffffffffffffffffffffffffffffffffffffff1673ffffffffffffffffffffffffffffffffffffffff1614159050919050565b505050565b505050565b8280546200047d9062000775565b90600052602060002090601f016020900481019282620004a15760008555620004ed565b82601f10620004bc57805160ff1916838001178555620004ed565b82800160010185558215620004ed579182015b82811115620004ec578251825591602001919060010190620004cf565b5b509050620004fc919062000500565b5090565b5b808211156200051b57600081600090555060010162000501565b5090565b600062000536620005308462000691565b62000668565b9050828152602081018484840111156200054f57600080fd5b6200055c8482856200073f565b509392505050565b600082601f8301126200057657600080fd5b8151620005888482602086016200051f565b91505092915050565b600060208284031215620005a457600080fd5b600082015167ffffffffffffffff811115620005bf57600080fd5b620005cd8482850162000564565b91505092915050565b6000620005e5601c83620006c7565b9150620005f2826200087f565b602082019050919050565b60006200060c602083620006c7565b91506200061982620008a8565b602082019050919050565b600060208201905081810360008301526200063f81620005d6565b9050919050565b600060208201905081810360008301526200066181620005fd565b9050919050565b60006200067462000687565b9050620006828282620007ab565b919050565b6000604051905090565b600067ffffffffffffffff821115620006af57620006ae6200083f565b5b620006ba826200086e565b9050602081019050919050565b600082825260208201905092915050565b6000620006e58262000735565b9150620006f28362000735565b9250827fffffffffffffffffffffffffffffffffffffffffffffffffffffffffffffffff038211156200072a5762000729620007e1565b5b828201905092915050565b6000819050919050565b60005b838110156200075f57808201518184015260208101905062000742565b838111156200076f576000848401525b50505050565b600060028204905060018216806200078e57607f821691505b60208210811415620007a557620007a462000810565b5b50919050565b620007b6826200086e565b810181811067ffffffffffffffff82111715620007d857620007d76200083f565b5b80604052505050565b7f4e487b7100000000000000000000000000000000000000000000000000000000600052601160045260246000fd5b7f4e487b7100000000000000000000000000000000000000000000000000000000600052602260045260246000fd5b7f4e487b7100000000000000000000000000000000000000000000000000000000600052604160045260246000fd5b6000601f19601f8301169050919050565b7f4552433732313a20746f6b656e20616c7265616479206d696e74656400000000600082015250565b7f4552433732313a206d696e7420746f20746865207a65726f2061646472657373600082015250565b612b9e80620008e16000396000f3fe608060405234801561001057600080fd5b506004361061010b5760003560e01c806370a08231116100a2578063a22cb46511610071578063a22cb465146102a4578063b88d4fde146102c0578063c87b56dd146102dc578063e985e9c51461030c578063f2fde38b1461033c5761010b565b806370a082311461022e578063715018a61461025e5780638da5cb5b1461026857806395d89b41146102865761010b565b806323b872dd116100de57806323b872dd146101aa57806342842e0e146101c65780636352211e146101e25780636a627842146102125761010b565b806301ffc9a71461011057806306fdde0314610140578063081812fc1461015e578063095ea7b31461018e575b600080fd5b61012a60048036038101906101259190611ca2565b610358565b60405161013791906120a8565b60405180910390f35b61014861043a565b60405161015591906120c3565b60405180910390f35b61017860048036038101906101739190611cf4565b6104cc565b6040516101859190612041565b60405180910390f35b6101a860048036038101906101a39190611c66565b610551565b005b6101c460048036038101906101bf9190611b60565b610669565b005b6101e060048036038101906101db9190611b60565b6106c9565b005b6101fc60048036038101906101f79190611cf4565b6106e9565b6040516102099190612041565b60405180910390f35b61022c60048036038101906102279190611afb565b61079b565b005b61024860048036038101906102439190611afb565b61083e565b60405161025591906122e5565b60405180910390f35b6102666108f6565b005b61027061097e565b60405161027d9190612041565b60405180910390f35b61028e6109a7565b60405161029b91906120c3565b60405180910390f35b6102be60048036038101906102b99190611c2a565b610a39565b005b6102da60048036038101906102d59190611baf565b610a4f565b005b6102f660048036038101906102f19190611cf4565b610ab1565b60405161030391906120c3565b60405180910390f35b61032660048036038101906103219190611b24565b610b58565b60405161033391906120a8565b60405180910390f35b61035660048036038101906103519190611afb565b610bec565b005b60007f80ac58cd000000000000000000000000000000000000000000000000000000007bffffffffffffffffffffffffffffffffffffffffffffffffffffffff1916827bffffffffffffffffffffffffffffffffffffffffffffffffffffffff1916148061042357507f5b5e139f000000000000000000000000000000000000000000000000000000007bffffffffffffffffffffffffffffffffffffffffffffffffffffffff1916827bffffffffffffffffffffffffffffffffffffffffffffffffffffffff1916145b80610433575061043282610ce4565b5b9050919050565b6060600180546104499061250a565b80601f01602080910402602001604051908101604052809291908181526020018280546104759061250a565b80156104c25780601f10610497576101008083540402835291602001916104c2565b820191906000526020600020905b8154815290600101906020018083116104a557829003601f168201915b5050505050905090565b60006104d782610d4e565b610516576040517f08c379a000000000000000000000000000000000000000000000000000000000815260040161050d90612245565b60405180910390fd5b6005600083815260200190815260200160002060009054906101000a900473ffffffffffffffffffffffffffffffffffffffff169050919050565b600061055c826106e9565b90508073ffffffffffffffffffffffffffffffffffffffff168373ffffffffffffffffffffffffffffffffffffffff1614156105cd576040517f08c379a00000000000000000000000000000000000000000000000000000000081526004016105c4906122a5565b60405180910390fd5b8073ffffffffffffffffffffffffffffffffffffffff166105ec610dba565b73ffffffffffffffffffffffffffffffffffffffff16148061061b575061061a81610615610dba565b610b58565b5b61065a576040517f08c379a0000000000000000000000000000000000000000000000000000000008152600401610651906121c5565b60405180910390fd5b6106648383610dc2565b505050565b61067a610674610dba565b82610e7b565b6106b9576040517f08c379a00000000000000000000000000000000000000000000000000000000081526004016106b0906122c5565b60405180910390fd5b6106c4838383610f59565b505050565b6106e483838360405180602001604052806000815250610a4f565b505050565b6000806003600084815260200190815260200160002060009054906101000a900473ffffffffffffffffffffffffffffffffffffffff169050600073ffffffffffffffffffffffffffffffffffffffff168173ffffffffffffffffffffffffffffffffffffffff161415610792576040517f08c379a000000000000000000000000000000000000000000000000000000000815260040161078990612205565b60405180910390fd5b80915050919050565b6107a3610dba565b73ffffffffffffffffffffffffffffffffffffffff166107c161097e565b73ffffffffffffffffffffffffffffffffffffffff1614610817576040517f08c379a000000000000000000000000000000000000000000000000000000000815260040161080e90612265565b60405180910390fd5b6008600081548092919061082a9061256d565b919050555061083b816008546111c0565b50565b60008073ffffffffffffffffffffffffffffffffffffffff168273ffffffffffffffffffffffffffffffffffffffff1614156108af576040517f08c379a00000000000000000000000000000000000000000000000000000000081526004016108a6906121e5565b60405180910390fd5b600460008373ffffffffffffffffffffffffffffffffffffffff1673ffffffffffffffffffffffffffffffffffffffff168152602001908152602001600020549050919050565b6108fe610dba565b73ffffffffffffffffffffffffffffffffffffffff1661091c61097e565b73ffffffffffffffffffffffffffffffffffffffff1614610972576040517f08c379a000000000000000000000000000000000000000000000000000000000815260040161096990612265565b60405180910390fd5b61097c600061139a565b565b60008060009054906101000a900473ffffffffffffffffffffffffffffffffffffffff16905090565b6060600280546109b69061250a565b80601f01602080910402602001604051908101604052809291908181526020018280546109e29061250a565b8015610a2f5780601f10610a0457610100808354040283529160200191610a2f565b820191906000526020600020905b815481529060010190602001808311610a1257829003601f168201915b5050505050905090565b610a4b610a44610dba565b838361145e565b5050565b610a60610a5a610dba565b83610e7b565b610a9f576040517f08c379a0000000000000000000000000000000000000000000000000000000008152600401610a96906122c5565b60405180910390fd5b610aab848484846115cb565b50505050565b6060610abc82610d4e565b610afb576040517f08c379a0000000000000000000000000000000000000000000000000000000008152600401610af290612285565b60405180910390fd5b6000610b05611627565b90506000815111610b255760405180602001604052806000815250610b50565b80610b2f846116b9565b604051602001610b4092919061201d565b6040516020818303038152906040525b915050919050565b6000600660008473ffffffffffffffffffffffffffffffffffffffff1673ffffffffffffffffffffffffffffffffffffffff16815260200190815260200160002060008373ffffffffffffffffffffffffffffffffffffffff1673ffffffffffffffffffffffffffffffffffffffff16815260200190815260200160002060009054906101000a900460ff16905092915050565b610bf4610dba565b73ffffffffffffffffffffffffffffffffffffffff16610c1261097e565b73ffffffffffffffffffffffffffffffffffffffff1614610c68576040517f08c379a0000000000000000000000000000000000000000000000000000000008152600401610c5f90612265565b60405180910390fd5b600073ffffffffffffffffffffffffffffffffffffffff168173ffffffffffffffffffffffffffffffffffffffff161415610cd8576040517f08c379a0000000000000000000000000000000000000000000000000000000008152600401610ccf90612105565b60405180910390fd5b610ce18161139a565b50565b60007f01ffc9a7000000000000000000000000000000000000000000000000000000007bffffffffffffffffffffffffffffffffffffffffffffffffffffffff1916827bffffffffffffffffffffffffffffffffffffffffffffffffffffffff1916149050919050565b60008073ffffffffffffffffffffffffffffffffffffffff166003600084815260200190815260200160002060009054906101000a900473ffffffffffffffffffffffffffffffffffffffff1673ffffffffffffffffffffffffffffffffffffffff1614159050919050565b600033905090565b816005600083815260200190815260200160002060006101000a81548173ffffffffffffffffffffffffffffffffffffffff021916908373ffffffffffffffffffffffffffffffffffffffff160217905550808273ffffffffffffffffffffffffffffffffffffffff16610e35836106e9565b73ffffffffffffffffffffffffffffffffffffffff167f8c5be1e5ebec7d5bd14f71427d1e84f3dd0314c0f7b2291e5b200ac8c7c3b92560405160405180910390a45050565b6000610e8682610d4e565b610ec5576040517f08c379a0000000000000000000000000000000000000000000000000000000008152600401610ebc906121a5565b60405180910390fd5b6000610ed0836106e9565b90508073ffffffffffffffffffffffffffffffffffffffff168473ffffffffffffffffffffffffffffffffffffffff161480610f3f57508373ffffffffffffffffffffffffffffffffffffffff16610f27846104cc565b73ffffffffffffffffffffffffffffffffffffffff16145b80610f505750610f4f8185610b58565b5b91505092915050565b8273ffffffffffffffffffffffffffffffffffffffff16610f79826106e9565b73ffffffffffffffffffffffffffffffffffffffff1614610fcf576040517f08c379a0000000000000000000000000000000000000000000000000000000008152600401610fc690612125565b60405180910390fd5b600073ffffffffffffffffffffffffffffffffffffffff168273ffffffffffffffffffffffffffffffffffffffff16141561103f576040517f08c379a000000000000000000000000000000000000000000000000000000000815260040161103690612165565b60405180910390fd5b61104a838383611866565b611055600082610dc2565b6001600460008573ffffffffffffffffffffffffffffffffffffffff1673ffffffffffffffffffffffffffffffffffffffff16815260200190815260200160002060008282546110a59190612420565b925050819055506001600460008473ffffffffffffffffffffffffffffffffffffffff1673ffffffffffffffffffffffffffffffffffffffff16815260200190815260200160002060008282546110fc9190612399565b92505081905550816003600083815260200190815260200160002060006101000a81548173ffffffffffffffffffffffffffffffffffffffff021916908373ffffffffffffffffffffffffffffffffffffffff160217905550808273ffffffffffffffffffffffffffffffffffffffff168473ffffffffffffffffffffffffffffffffffffffff167fddf252ad1be2c89b69c2b068fc378daa952ba7f163c4a11628f55a4df523b3ef60405160405180910390a46111bb83838361186b565b505050565b600073ffffffffffffffffffffffffffffffffffffffff168273ffffffffffffffffffffffffffffffffffffffff161415611230576040517f08c379a000000000000000000000000000000000000000000000000000000000815260040161122790612225565b60405180910390fd5b61123981610d4e565b15611279576040517f08c379a000000000000000000000000000000000000000000000000000000000815260040161127090612145565b60405180910390fd5b61128560008383611866565b6001600460008473ffffffffffffffffffffffffffffffffffffffff1673ffffffffffffffffffffffffffffffffffffffff16815260200190815260200160002060008282546112d59190612399565b92505081905550816003600083815260200190815260200160002060006101000a81548173ffffffffffffffffffffffffffffffffffffffff021916908373ffffffffffffffffffffffffffffffffffffffff160217905550808273ffffffffffffffffffffffffffffffffffffffff16600073ffffffffffffffffffffffffffffffffffffffff167fddf252ad1be2c89b69c2b068fc378daa952ba7f163c4a11628f55a4df523b3ef60405160405180910390a46113966000838361186b565b5050565b60008060009054906101000a900473ffffffffffffffffffffffffffffffffffffffff169050816000806101000a81548173ffffffffffffffffffffffffffffffffffffffff021916908373ffffffffffffffffffffffffffffffffffffffff1602179055508173ffffffffffffffffffffffffffffffffffffffff168173ffffffffffffffffffffffffffffffffffffffff167f8be0079c531659141344cd1fd0a4f28419497f9722a3daafe3b4186f6b6457e060405160405180910390a35050565b8173ffffffffffffffffffffffffffffffffffffffff168373ffffffffffffffffffffffffffffffffffffffff1614156114cd576040517f08c379a00000000000000000000000000000000000000000000000000000000081526004016114c490612185565b60405180910390fd5b80600660008573ffffffffffffffffffffffffffffffffffffffff1673ffffffffffffffffffffffffffffffffffffffff16815260200190815260200160002060008473ffffffffffffffffffffffffffffffffffffffff1673ffffffffffffffffffffffffffffffffffffffff16815260200190815260200160002060006101000a81548160ff0219169083151502179055508173ffffffffffffffffffffffffffffffffffffffff168373ffffffffffffffffffffffffffffffffffffffff167f17307eab39ab6107e8899845ad3d59bd9653f200f220920489ca2b5937696c31836040516115be91906120a8565b60405180910390a3505050565b6115d6848484610f59565b6115e284848484611870565b611621576040517f08c379a0000000000000000000000000000000000000000000000000000000008152600401611618906120e5565b60405180910390fd5b50505050565b6060600780546116369061250a565b80601f01602080910402602001604051908101604052809291908181526020018280546116629061250a565b80156116af5780601f10611684576101008083540402835291602001916116af565b820191906000526020600020905b81548152906001019060200180831161169257829003601f168201915b5050505050905090565b60606000821415611701576040518060400160405280600181526020017f30000000000000000000000000000000000000000000000000000000000000008152509050611861565b600082905060005b6000821461173357808061171c9061256d565b915050600a8261172c91906123ef565b9150611709565b60008167ffffffffffffffff811115611775577f4e487b7100000000000000000000000000000000000000000000000000000000600052604160045260246000fd5b6040519080825280601f01601f1916602001820160405280156117a75781602001600182028036833780820191505090505b5090505b6000851461185a576001826117c09190612420565b9150600a856117cf91906125b6565b60306117db9190612399565b60f81b818381518110611817577f4e487b7100000000000000000000000000000000000000000000000000000000600052603260045260246000fd5b60200101907effffffffffffffffffffffffffffffffffffffffffffffffffffffffffffff1916908160001a905350600a8561185391906123ef565b94506117ab565b8093505050505b919050565b505050565b505050565b60006118918473ffffffffffffffffffffffffffffffffffffffff16611a07565b156119fa578373ffffffffffffffffffffffffffffffffffffffff1663150b7a026118ba610dba565b8786866040518563ffffffff1660e01b81526004016118dc949392919061205c565b602060405180830381600087803b1580156118f657600080fd5b505af192505050801561192757506040513d601f19601f820116820180604052508101906119249190611ccb565b60015b6119aa573d8060008114611957576040519150601f19603f3d011682016040523d82523d6000602084013e61195c565b606091505b506000815114156119a2576040517f08c379a0000000000000000000000000000000000000000000000000000000008152600401611999906120e5565b60405180910390fd5b805181602001fd5b63150b7a0260e01b7bffffffffffffffffffffffffffffffffffffffffffffffffffffffff1916817bffffffffffffffffffffffffffffffffffffffffffffffffffffffff1916149150506119ff565b600190505b949350505050565b6000808273ffffffffffffffffffffffffffffffffffffffff163b119050919050565b6000611a3d611a3884612325565b612300565b905082815260208101848484011115611a5557600080fd5b611a608482856124c8565b509392505050565b600081359050611a7781612b0c565b92915050565b600081359050611a8c81612b23565b92915050565b600081359050611aa181612b3a565b92915050565b600081519050611ab681612b3a565b92915050565b600082601f830112611acd57600080fd5b8135611add848260208601611a2a565b91505092915050565b600081359050611af581612b51565b92915050565b600060208284031215611b0d57600080fd5b6000611b1b84828501611a68565b91505092915050565b60008060408385031215611b3757600080fd5b6000611b4585828601611a68565b9250506020611b5685828601611a68565b9150509250929050565b600080600060608486031215611b7557600080fd5b6000611b8386828701611a68565b9350506020611b9486828701611a68565b9250506040611ba586828701611ae6565b9150509250925092565b60008060008060808587031215611bc557600080fd5b6000611bd387828801611a68565b9450506020611be487828801611a68565b9350506040611bf587828801611ae6565b925050606085013567ffffffffffffffff811115611c1257600080fd5b611c1e87828801611abc565b91505092959194509250565b60008060408385031215611c3d57600080fd5b6000611c4b85828601611a68565b9250506020611c5c85828601611a7d565b9150509250929050565b60008060408385031215611c7957600080fd5b6000611c8785828601611a68565b9250506020611c9885828601611ae6565b9150509250929050565b600060208284031215611cb457600080fd5b6000611cc284828501611a92565b91505092915050565b600060208284031215611cdd57600080fd5b6000611ceb84828501611aa7565b91505092915050565b600060208284031215611d0657600080fd5b6000611d1484828501611ae6565b91505092915050565b611d2681612454565b82525050565b611d3581612466565b82525050565b6000611d4682612356565b611d50818561236c565b9350611d608185602086016124d7565b611d69816126a3565b840191505092915050565b6000611d7f82612361565b611d89818561237d565b9350611d998185602086016124d7565b611da2816126a3565b840191505092915050565b6000611db882612361565b611dc2818561238e565b9350611dd28185602086016124d7565b80840191505092915050565b6000611deb60328361237d565b9150611df6826126b4565b604082019050919050565b6000611e0e60268361237d565b9150611e1982612703565b604082019050919050565b6000611e3160258361237d565b9150611e3c82612752565b604082019050919050565b6000611e54601c8361237d565b9150611e5f826127a1565b602082019050919050565b6000611e7760248361237d565b9150611e82826127ca565b604082019050919050565b6000611e9a60198361237d565b9150611ea582612819565b602082019050919050565b6000611ebd602c8361237d565b9150611ec882612842565b604082019050919050565b6000611ee060388361237d565b9150611eeb82612891565b604082019050919050565b6000611f03602a8361237d565b9150611f0e826128e0565b604082019050919050565b6000611f2660298361237d565b9150611f318261292f565b604082019050919050565b6000611f4960208361237d565b9150611f548261297e565b602082019050919050565b6000611f6c602c8361237d565b9150611f77826129a7565b604082019050919050565b6000611f8f60208361237d565b9150611f9a826129f6565b602082019050919050565b6000611fb2602f8361237d565b9150611fbd82612a1f565b604082019050919050565b6000611fd560218361237d565b9150611fe082612a6e565b604082019050919050565b6000611ff860318361237d565b915061200382612abd565b604082019050919050565b612017816124be565b82525050565b60006120298285611dad565b91506120358284611dad565b91508190509392505050565b60006020820190506120566000830184611d1d565b92915050565b60006080820190506120716000830187611d1d565b61207e6020830186611d1d565b61208b604083018561200e565b818103606083015261209d8184611d3b565b905095945050505050565b60006020820190506120bd6000830184611d2c565b92915050565b600060208201905081810360008301526120dd8184611d74565b905092915050565b600060208201905081810360008301526120fe81611dde565b9050919050565b6000602082019050818103600083015261211e81611e01565b9050919050565b6000602082019050818103600083015261213e81611e24565b9050919050565b6000602082019050818103600083015261215e81611e47565b9050919050565b6000602082019050818103600083015261217e81611e6a565b9050919050565b6000602082019050818103600083015261219e81611e8d565b9050919050565b600060208201905081810360008301526121be81611eb0565b9050919050565b600060208201905081810360008301526121de81611ed3565b9050919050565b600060208201905081810360008301526121fe81611ef6565b9050919050565b6000602082019050818103600083015261221e81611f19565b9050919050565b6000602082019050818103600083015261223e81611f3c565b9050919050565b6000602082019050818103600083015261225e81611f5f565b9050919050565b6000602082019050818103600083015261227e81611f82565b9050919050565b6000602082019050818103600083015261229e81611fa5565b9050919050565b600060208201905081810360008301526122be81611fc8565b9050919050565b600060208201905081810360008301526122de81611feb565b9050919050565b60006020820190506122fa600083018461200e565b92915050565b600061230a61231b565b9050612316828261253c565b919050565b6000604051905090565b600067ffffffffffffffff8211156123405761233f612674565b5b612349826126a3565b9050602081019050919050565b600081519050919050565b600081519050919050565b600082825260208201905092915050565b600082825260208201905092915050565b600081905092915050565b60006123a4826124be565b91506123af836124be565b9250827fffffffffffffffffffffffffffffffffffffffffffffffffffffffffffffffff038211156123e4576123e36125e7565b5b828201905092915050565b60006123fa826124be565b9150612405836124be565b92508261241557612414612616565b5b828204905092915050565b600061242b826124be565b9150612436836124be565b925082821015612449576124486125e7565b5b828203905092915050565b600061245f8261249e565b9050919050565b60008115159050919050565b60007fffffffff0000000000000000000000000000000000000000000000000000000082169050919050565b600073ffffffffffffffffffffffffffffffffffffffff82169050919050565b6000819050919050565b82818337600083830152505050565b60005b838110156124f55780820151818401526020810190506124da565b83811115612504576000848401525b50505050565b6000600282049050600182168061252257607f821691505b6020821081141561253657612535612645565b5b50919050565b612545826126a3565b810181811067ffffffffffffffff8211171561256457612563612674565b5b80604052505050565b6000612578826124be565b91507fffffffffffffffffffffffffffffffffffffffffffffffffffffffffffffffff8214156125ab576125aa6125e7565b5b600182019050919050565b60006125c1826124be565b91506125cc836124be565b9250826125dc576125db612616565b5b828206905092915050565b7f4e487b7100000000000000000000000000000000000000000000000000000000600052601160045260246000fd5b7f4e487b7100000000000000000000000000000000000000000000000000000000600052601260045260246000fd5b7f4e487b7100000000000000000000000000000000000000000000000000000000600052602260045260246000fd5b7f4e487b7100000000000000000000000000000000000000000000000000000000600052604160045260246000fd5b6000601f19601f8301169050919050565b7f4552433732313a207472616e7366657220746f206e6f6e20455243373231526560008201527f63656976657220696d706c656d656e7465720000000000000000000000000000602082015250565b7f4f776e61626c653a206e6577206f776e657220697320746865207a65726f206160008201527f6464726573730000000000000000000000000000000000000000000000000000602082015250565b7f4552433732313a207472616e736665722066726f6d20696e636f72726563742060008201527f6f776e6572000000000000000000000000000000000000000000000000000000602082015250565b7f4552433732313a20746f6b656e20616c7265616479206d696e74656400000000600082015250565b7f4552433732313a207472616e7366657220746f20746865207a65726f2061646460008201527f7265737300000000000000000000000000000000000000000000000000000000602082015250565b7f4552433732313a20617070726f766520746f2063616c6c657200000000000000600082015250565b7f4552433732313a206f70657261746f7220717565727920666f72206e6f6e657860008201527f697374656e7420746f6b656e0000000000000000000000000000000000000000602082015250565b7f4552433732313a20617070726f76652063616c6c6572206973206e6f74206f7760008201527f6e6572206e6f7220617070726f76656420666f7220616c6c0000000000000000602082015250565b7f4552433732313a2062616c616e636520717565727920666f7220746865207a6560008201527f726f206164647265737300000000000000000000000000000000000000000000602082015250565b7f4552433732313a206f776e657220717565727920666f72206e6f6e657869737460008201527f656e7420746f6b656e0000000000000000000000000000000000000000000000602082015250565b7f4552433732313a206d696e7420746f20746865207a65726f2061646472657373600082015250565b7f4552433732313a20617070726f76656420717565727920666f72206e6f6e657860008201527f697374656e7420746f6b656e0000000000000000000000000000000000000000602082015250565b7f4f776e61626c653a2063616c6c6572206973206e6f7420746865206f776e6572600082015250565b7f4552433732314d657461646174613a2055524920717565727920666f72206e6f60008201527f6e6578697374656e7420746f6b656e0000000000000000000000000000000000602082015250565b7f4552433732313a20617070726f76616c20746f2063757272656e74206f776e6560008201527f7200000000000000000000000000000000000000000000000000000000000000602082015250565b7f4552433732313a207472616e736665722063616c6c6572206973206e6f74206f60008201527f776e6572206e6f7220617070726f766564000000000000000000000000000000602082015250565b612b1581612454565b8114612b2057600080fd5b50565b612b2c81612466565b8114612b3757600080fd5b50565b612b4381612472565b8114612b4e57600080fd5b50565b612b5a816124be565b8114612b6557600080fd5b5056fea2646970667358221220c46253331ef8df7ff25a74fbfb2d9e1143a9e2bc1f3b4a781292f1130572b07f64736f6c63430008040033",
  "linkReferences": {},
  "deployedLinkReferences": {}
}