{
  "_format": "hh-sol-artifact-1",
  "contractName": "PrivateSale",
  "sourceName": "contracts/PrivateSale.sol",
  "abi": [
    {
      "inputs": [
        {
          "internalType": "address",
          "name": "tokenAdd_",
          "type": "address"
        },
        {
          "internalType": "address",
          "name": "principal_",
          "type": "address"
        },
        {
          "internalType": "uint256",
          "name": "price_",
          "type": "uint256"
        },
        {
          "internalType": "uint256",
          "name": "totalAmountToRaise_",
          "type": "uint256"
        },
        {
          "internalType": "uint256",
          "name": "totalTokenSupply_",
          "type": "uint256"
        },
        {
          "internalType": "address",
          "name": "nftAddress_",
          "type": "address"
        },
        {
          "internalType": "uint32",
          "name": "startTime_",
          "type": "uint32"
        },
        {
          "internalType": "uint32",
          "name": "endTime_",
          "type": "uint32"
        },
        {
          "internalType": "string",
          "name": "ipfsId_",
          "type": "string"
        }
      ],
      "stateMutability": "nonpayable",
      "type": "constructor"
    },
    {
      "inputs": [],
      "name": "admin",
      "outputs": [
        {
          "internalType": "address",
          "name": "",
          "type": "address"
        }
      ],
      "stateMutability": "view",
      "type": "function"
    },
    {
      "inputs": [
        {
          "internalType": "bool",
          "name": "status",
          "type": "bool"
        }
      ],
      "name": "changeContractStatus",
      "outputs": [],
      "stateMutability": "nonpayable",
      "type": "function"
    },
    {
      "inputs": [],
      "name": "contractStatus",
      "outputs": [
        {
          "internalType": "bool",
          "name": "",
          "type": "bool"
        }
      ],
      "stateMutability": "view",
      "type": "function"
    },
    {
      "inputs": [],
      "name": "endTimestamp",
      "outputs": [
        {
          "internalType": "uint32",
          "name": "",
          "type": "uint32"
        }
      ],
      "stateMutability": "view",
      "type": "function"
    },
    {
      "inputs": [],
      "name": "getNFTAddress",
      "outputs": [
        {
          "internalType": "address",
          "name": "",
          "type": "address"
        }
      ],
      "stateMutability": "view",
      "type": "function"
    },
    {
      "inputs": [],
      "name": "getProjectTokenAddress",
      "outputs": [
        {
          "internalType": "address",
          "name": "",
          "type": "address"
        }
      ],
      "stateMutability": "view",
      "type": "function"
    },
    {
      "inputs": [
        {
          "internalType": "address",
          "name": "owner_",
          "type": "address"
        },
        {
          "internalType": "address",
          "name": "admin_",
          "type": "address"
        }
      ],
      "name": "initialize",
      "outputs": [],
      "stateMutability": "nonpayable",
      "type": "function"
    },
    {
      "inputs": [],
      "name": "owner",
      "outputs": [
        {
          "internalType": "address",
          "name": "",
          "type": "address"
        }
      ],
      "stateMutability": "view",
      "type": "function"
    },
    {
      "inputs": [
        {
          "internalType": "address",
          "name": "to_",
          "type": "address"
        },
        {
          "internalType": "uint256",
          "name": "amount",
          "type": "uint256"
        }
      ],
      "name": "participate",
      "outputs": [],
      "stateMutability": "nonpayable",
      "type": "function"
    },
    {
      "inputs": [],
      "name": "price",
      "outputs": [
        {
          "internalType": "uint256",
          "name": "",
          "type": "uint256"
        }
      ],
      "stateMutability": "view",
      "type": "function"
    },
    {
      "inputs": [],
      "name": "projectId",
      "outputs": [
        {
          "internalType": "uint32",
          "name": "",
          "type": "uint32"
        }
      ],
      "stateMutability": "view",
      "type": "function"
    },
    {
      "inputs": [
        {
          "internalType": "address",
          "name": "nftTokenAddress_",
          "type": "address"
        }
      ],
      "name": "setNftAddress",
      "outputs": [
        {
          "internalType": "address",
          "name": "",
          "type": "address"
        }
      ],
      "stateMutability": "nonpayable",
      "type": "function"
    },
    {
      "inputs": [],
      "name": "startTimestamp",
      "outputs": [
        {
          "internalType": "uint32",
          "name": "",
          "type": "uint32"
        }
      ],
      "stateMutability": "view",
      "type": "function"
    },
    {
      "inputs": [],
      "name": "totalAmountRaised",
      "outputs": [
        {
          "internalType": "uint256",
          "name": "",
          "type": "uint256"
        }
      ],
      "stateMutability": "view",
      "type": "function"
    },
    {
      "inputs": [],
      "name": "totalAmountToRaise",
      "outputs": [
        {
          "internalType": "uint256",
          "name": "",
          "type": "uint256"
        }
      ],
      "stateMutability": "view",
      "type": "function"
    },
    {
      "inputs": [],
      "name": "totalParticipatedUser",
      "outputs": [
        {
          "internalType": "uint32",
          "name": "",
          "type": "uint32"
        }
      ],
      "stateMutability": "view",
      "type": "function"
    },
    {
      "inputs": [],
      "name": "totalTokenSupply",
      "outputs": [
        {
          "internalType": "uint256",
          "name": "",
          "type": "uint256"
        }
      ],
      "stateMutability": "view",
      "type": "function"
    },
    {
      "inputs": [
        {
          "internalType": "address",
          "name": "",
          "type": "address"
        }
      ],
      "name": "userToTokenAmount",
      "outputs": [
        {
          "internalType": "uint256",
          "name": "",
          "type": "uint256"
        }
      ],
      "stateMutability": "view",
      "type": "function"
    },
    {
      "inputs": [],
      "name": "withdrawRaisedAmount",
      "outputs": [
        {
          "internalType": "uint256",
          "name": "",
          "type": "uint256"
        }
      ],
      "stateMutability": "nonpayable",
      "type": "function"
    },
    {
      "inputs": [
        {
          "internalType": "address",
          "name": "to_",
          "type": "address"
        }
      ],
      "name": "withdrawRemainingTokens",
      "outputs": [
        {
          "internalType": "uint256",
          "name": "",
          "type": "uint256"
        }
      ],
      "stateMutability": "nonpayable",
      "type": "function"
    },
    {
      "stateMutability": "payable",
      "type": "receive"
    }
  ],
  "bytecode": "0x60806040523480156200001157600080fd5b5060405162002d4638038062002d4683398181016040528101906200003791906200033c565b33600960006101000a81548173ffffffffffffffffffffffffffffffffffffffff021916908373ffffffffffffffffffffffffffffffffffffffff16021790555088600a60006101000a81548173ffffffffffffffffffffffffffffffffffffffff021916908373ffffffffffffffffffffffffffffffffffffffff16021790555087600b60006101000a81548173ffffffffffffffffffffffffffffffffffffffff021916908373ffffffffffffffffffffffffffffffffffffffff16021790555086600581905550856004819055508460028190555083600c60006101000a81548173ffffffffffffffffffffffffffffffffffffffff021916908373ffffffffffffffffffffffffffffffffffffffff16021790555082600660046101000a81548163ffffffff021916908363ffffffff16021790555081600660086101000a81548163ffffffff021916908363ffffffff1602179055508060079080519060200190620001aa929190620001d5565b5060016006600c6101000a81548160ff0219169083151502179055505050505050505050506200063a565b828054620001e39062000511565b90600052602060002090601f01602090048101928262000207576000855562000253565b82601f106200022257805160ff191683800117855562000253565b8280016001018555821562000253579182015b828111156200025257825182559160200191906001019062000235565b5b50905062000262919062000266565b5090565b5b808211156200028157600081600090555060010162000267565b5090565b60006200029c620002968462000457565b6200042e565b905082815260208101848484011115620002b557600080fd5b620002c2848285620004db565b509392505050565b600081519050620002db81620005ec565b92915050565b600082601f830112620002f357600080fd5b81516200030584826020860162000285565b91505092915050565b6000815190506200031f8162000606565b92915050565b600081519050620003368162000620565b92915050565b60008060008060008060008060006101208a8c0312156200035c57600080fd5b60006200036c8c828d01620002ca565b99505060206200037f8c828d01620002ca565b9850506040620003928c828d016200030e565b9750506060620003a58c828d016200030e565b9650506080620003b88c828d016200030e565b95505060a0620003cb8c828d01620002ca565b94505060c0620003de8c828d0162000325565b93505060e0620003f18c828d0162000325565b9250506101008a015167ffffffffffffffff8111156200041057600080fd5b6200041e8c828d01620002e1565b9150509295985092959850929598565b60006200043a6200044d565b905062000448828262000547565b919050565b6000604051905090565b600067ffffffffffffffff821115620004755762000474620005ac565b5b6200048082620005db565b9050602081019050919050565b60006200049a82620004a1565b9050919050565b600073ffffffffffffffffffffffffffffffffffffffff82169050919050565b6000819050919050565b600063ffffffff82169050919050565b60005b83811015620004fb578082015181840152602081019050620004de565b838111156200050b576000848401525b50505050565b600060028204905060018216806200052a57607f821691505b602082108114156200054157620005406200057d565b5b50919050565b6200055282620005db565b810181811067ffffffffffffffff82111715620005745762000573620005ac565b5b80604052505050565b7f4e487b7100000000000000000000000000000000000000000000000000000000600052602260045260246000fd5b7f4e487b7100000000000000000000000000000000000000000000000000000000600052604160045260246000fd5b6000601f19601f8301169050919050565b620005f7816200048d565b81146200060357600080fd5b50565b6200061181620004c1565b81146200061d57600080fd5b50565b6200062b81620004cb565b81146200063757600080fd5b50565b6126fc806200064a6000396000f3fe6080604052600436106101235760003560e01c80639ebe2d0a116100a0578063b961847811610064578063b9618478146103d2578063c6ee20d2146103fd578063e6fd48bc14610428578063f851a44014610453578063f9af1a981461047e5761012a565b80639ebe2d0a146102fd578063a035b1fe14610328578063a0a7a18314610353578063a85adeab1461037e578063b64afbe5146103a95761012a565b80634b6c36b5116100e75780634b6c36b5146102165780635affbd971461023f57806378d185331461027c5780637cbb7b46146102a75780638da5cb5b146102d25761012a565b80630b102d1a1461012f5780631ca8b6cb1461016c578063242d7dba146101975780633fafa127146101c2578063485cc955146101ed5761012a565b3661012a57005b600080fd5b34801561013b57600080fd5b5061015660048036038101906101519190611abf565b6104bb565b6040516101639190611e82565b60405180910390f35b34801561017857600080fd5b506101816105f2565b60405161018e91906120fa565b60405180910390f35b3480156101a357600080fd5b506101ac6105f8565b6040516101b991906120fa565b60405180910390f35b3480156101ce57600080fd5b506101d76105fe565b6040516101e49190612115565b60405180910390f35b3480156101f957600080fd5b50610214600480360381019061020f9190611ae8565b610612565b005b34801561022257600080fd5b5061023d60048036038101906102389190611b60565b610708565b005b34801561024b57600080fd5b5061026660048036038101906102619190611abf565b61080d565b60405161027391906120fa565b60405180910390f35b34801561028857600080fd5b506102916109fc565b60405161029e91906120fa565b60405180910390f35b3480156102b357600080fd5b506102bc610b5b565b6040516102c99190611e82565b60405180910390f35b3480156102de57600080fd5b506102e7610b85565b6040516102f49190611e82565b60405180910390f35b34801561030957600080fd5b50610312610baf565b60405161031f91906120fa565b60405180910390f35b34801561033457600080fd5b5061033d610bb5565b60405161034a91906120fa565b60405180910390f35b34801561035f57600080fd5b50610368610bbb565b6040516103759190612115565b60405180910390f35b34801561038a57600080fd5b50610393610bd1565b6040516103a09190612115565b60405180910390f35b3480156103b557600080fd5b506103d060048036038101906103cb9190611b24565b610be7565b005b3480156103de57600080fd5b506103e7610f73565b6040516103f49190611e82565b60405180910390f35b34801561040957600080fd5b50610412610f9d565b60405161041f9190611efd565b60405180910390f35b34801561043457600080fd5b5061043d610fb0565b60405161044a9190612115565b60405180910390f35b34801561045f57600080fd5b50610468610fc6565b6040516104759190611e82565b60405180910390f35b34801561048a57600080fd5b506104a560048036038101906104a09190611abf565b610ff0565b6040516104b291906120fa565b60405180910390f35b6000600960009054906101000a900473ffffffffffffffffffffffffffffffffffffffff1673ffffffffffffffffffffffffffffffffffffffff163373ffffffffffffffffffffffffffffffffffffffff161461054d576040517f08c379a000000000000000000000000000000000000000000000000000000000815260040161054490611f5a565b60405180910390fd5b600073ffffffffffffffffffffffffffffffffffffffff168273ffffffffffffffffffffffffffffffffffffffff16141561058757600080fd5b81600c60006101000a81548173ffffffffffffffffffffffffffffffffffffffff021916908373ffffffffffffffffffffffffffffffffffffffff160217905550600c60009054906101000a900473ffffffffffffffffffffffffffffffffffffffff169050919050565b60025481565b60035481565b60008054906101000a900463ffffffff1681565b3373ffffffffffffffffffffffffffffffffffffffff168273ffffffffffffffffffffffffffffffffffffffff161461064a57600080fd5b3373ffffffffffffffffffffffffffffffffffffffff168173ffffffffffffffffffffffffffffffffffffffff161461068257600080fd5b81600960006101000a81548173ffffffffffffffffffffffffffffffffffffffff021916908373ffffffffffffffffffffffffffffffffffffffff16021790555080600860006101000a81548173ffffffffffffffffffffffffffffffffffffffff021916908373ffffffffffffffffffffffffffffffffffffffff1602179055505050565b3373ffffffffffffffffffffffffffffffffffffffff16600960009054906101000a900473ffffffffffffffffffffffffffffffffffffffff1673ffffffffffffffffffffffffffffffffffffffff1614806107b157503373ffffffffffffffffffffffffffffffffffffffff16600860009054906101000a900473ffffffffffffffffffffffffffffffffffffffff1673ffffffffffffffffffffffffffffffffffffffff16145b6107f0576040517f08c379a00000000000000000000000000000000000000000000000000000000081526004016107e79061209a565b60405180910390fd5b806006600c6101000a81548160ff02191690831515021790555050565b60003373ffffffffffffffffffffffffffffffffffffffff16600960009054906101000a900473ffffffffffffffffffffffffffffffffffffffff1673ffffffffffffffffffffffffffffffffffffffff1614806108b857503373ffffffffffffffffffffffffffffffffffffffff16600860009054906101000a900473ffffffffffffffffffffffffffffffffffffffff1673ffffffffffffffffffffffffffffffffffffffff16145b6108f7576040517f08c379a00000000000000000000000000000000000000000000000000000000081526004016108ee9061209a565b60405180910390fd5b6000600a60009054906101000a900473ffffffffffffffffffffffffffffffffffffffff1673ffffffffffffffffffffffffffffffffffffffff166370a08231306040518263ffffffff1660e01b81526004016109549190611e82565b60206040518083038186803b15801561096c57600080fd5b505afa158015610980573d6000803e3d6000fd5b505050506040513d601f19601f820116820180604052508101906109a49190611bb2565b90506109f38382600a60009054906101000a900473ffffffffffffffffffffffffffffffffffffffff1673ffffffffffffffffffffffffffffffffffffffff166110089092919063ffffffff16565b80915050919050565b60003373ffffffffffffffffffffffffffffffffffffffff16600960009054906101000a900473ffffffffffffffffffffffffffffffffffffffff1673ffffffffffffffffffffffffffffffffffffffff1614610a5857600080fd5b6000600a60009054906101000a900473ffffffffffffffffffffffffffffffffffffffff1673ffffffffffffffffffffffffffffffffffffffff166370a08231306040518263ffffffff1660e01b8152600401610ab59190611e82565b60206040518083038186803b158015610acd57600080fd5b505afa158015610ae1573d6000803e3d6000fd5b505050506040513d601f19601f82011682018060405250810190610b059190611bb2565b9050610b543382600b60009054906101000a900473ffffffffffffffffffffffffffffffffffffffff1673ffffffffffffffffffffffffffffffffffffffff166110089092919063ffffffff16565b8091505090565b6000600a60009054906101000a900473ffffffffffffffffffffffffffffffffffffffff16905090565b6000600960009054906101000a900473ffffffffffffffffffffffffffffffffffffffff16905090565b60045481565b60055481565b600660009054906101000a900463ffffffff1681565b600660089054906101000a900463ffffffff1681565b6006600c9054906101000a900460ff16610c36576040517f08c379a0000000000000000000000000000000000000000000000000000000008152600401610c2d90611fda565b60405180910390fd5b60008111610c79576040517f08c379a0000000000000000000000000000000000000000000000000000000008152600401610c7090611f3a565b60405180910390fd5b42600660049054906101000a900463ffffffff1663ffffffff1610610cd3576040517f08c379a0000000000000000000000000000000000000000000000000000000008152600401610cca90611ffa565b60405180910390fd5b42600660089054906101000a900463ffffffff1663ffffffff1611610d2d576040517f08c379a0000000000000000000000000000000000000000000000000000000008152600401610d249061205a565b60405180910390fd5b600454610d458260035461108e90919063ffffffff16565b11610d85576040517f08c379a0000000000000000000000000000000000000000000000000000000008152600401610d7c90611f9a565b60405180910390fd5b6000610d90826110b1565b9050610d9b836110ce565b6000600160008573ffffffffffffffffffffffffffffffffffffffff1673ffffffffffffffffffffffffffffffffffffffff168152602001908152602001600020541415610e24576001600660008282829054906101000a900463ffffffff16610e0591906121b8565b92506101000a81548163ffffffff021916908363ffffffff1602179055505b8160036000828254610e369190612162565b92505081905550610e8f81600160008673ffffffffffffffffffffffffffffffffffffffff1673ffffffffffffffffffffffffffffffffffffffff1681526020019081526020016000205461108e90919063ffffffff16565b600160008573ffffffffffffffffffffffffffffffffffffffff1673ffffffffffffffffffffffffffffffffffffffff16815260200190815260200160002081905550610f21833084600b60009054906101000a900473ffffffffffffffffffffffffffffffffffffffff1673ffffffffffffffffffffffffffffffffffffffff166111be909392919063ffffffff16565b610f6e8382600a60009054906101000a900473ffffffffffffffffffffffffffffffffffffffff1673ffffffffffffffffffffffffffffffffffffffff166110089092919063ffffffff16565b505050565b6000600c60009054906101000a900473ffffffffffffffffffffffffffffffffffffffff16905090565b6006600c9054906101000a900460ff1681565b600660049054906101000a900463ffffffff1681565b6000600860009054906101000a900473ffffffffffffffffffffffffffffffffffffffff16905090565b60016020528060005260406000206000915090505481565b6110898363a9059cbb60e01b8484604051602401611027929190611ed4565b604051602081830303815290604052907bffffffffffffffffffffffffffffffffffffffffffffffffffffffff19166020820180517bffffffffffffffffffffffffffffffffffffffffffffffffffffffff8381831617835250505050611247565b505050565b600082828461109d9190612162565b91508110156110ab57600080fd5b92915050565b60006110c76110c28360055461130e565b611515565b9050919050565b6000600c60009054906101000a900473ffffffffffffffffffffffffffffffffffffffff1673ffffffffffffffffffffffffffffffffffffffff166370a08231836040518263ffffffff1660e01b815260040161112b9190611e82565b60206040518083038186803b15801561114357600080fd5b505afa158015611157573d6000803e3d6000fd5b505050506040513d601f19601f8201168201806040525081019061117b9190611bb2565b116111bb576040517f08c379a00000000000000000000000000000000000000000000000000000000081526004016111b2906120ba565b60405180910390fd5b50565b611241846323b872dd60e01b8585856040516024016111df93929190611e9d565b604051602081830303815290604052907bffffffffffffffffffffffffffffffffffffffffffffffffffffffff19166020820180517bffffffffffffffffffffffffffffffffffffffffffffffffffffffff8381831617835250505050611247565b50505050565b60006112a9826040518060400160405280602081526020017f5361666545524332303a206c6f772d6c6576656c2063616c6c206661696c65648152508573ffffffffffffffffffffffffffffffffffffffff166115539092919063ffffffff16565b905060008151111561130957808060200190518101906112c99190611b89565b611308576040517f08c379a00000000000000000000000000000000000000000000000000000000081526004016112ff906120da565b60405180910390fd5b5b505050565b611316611a25565b60008211611359576040517f08c379a000000000000000000000000000000000000000000000000000000000815260040161135090611fba565b60405180910390fd5b600083141561139757604051806020016040528060007bffffffffffffffffffffffffffffffffffffffffffffffffffffffff16815250905061150f565b71ffffffffffffffffffffffffffffffffffff8016831161145f57600082607060ff1685901b6113c791906121f2565b90507bffffffffffffffffffffffffffffffffffffffffffffffffffffffff801681111561142a576040517f08c379a00000000000000000000000000000000000000000000000000000000081526004016114219061203a565b60405180910390fd5b6040518060200160405280827bffffffffffffffffffffffffffffffffffffffffffffffffffffffff1681525091505061150f565b600061147b846e0100000000000000000000000000008561156b565b90507bffffffffffffffffffffffffffffffffffffffffffffffffffffffff80168111156114de576040517f08c379a00000000000000000000000000000000000000000000000000000000081526004016114d59061203a565b60405180910390fd5b6040518060200160405280827bffffffffffffffffffffffffffffffffffffffffffffffffffffffff168152509150505b92915050565b60006612725dd1d243ab82600001517bffffffffffffffffffffffffffffffffffffffffffffffffffffffff1661154c91906121f2565b9050919050565b60606115628484600085611639565b90509392505050565b600080600061157a868661174d565b91509150600084806115b5577f4e487b7100000000000000000000000000000000000000000000000000000000600052601260045260246000fd5b8688099050828111156115d2576001826115cf919061227d565b91505b80836115de919061227d565b9250848210611622576040517f08c379a00000000000000000000000000000000000000000000000000000000081526004016116199061201a565b60405180910390fd5b61162d8383876117e8565b93505050509392505050565b60608247101561167e576040517f08c379a000000000000000000000000000000000000000000000000000000000815260040161167590611f7a565b60405180910390fd5b6116878561199b565b6116c6576040517f08c379a00000000000000000000000000000000000000000000000000000000081526004016116bd9061207a565b60405180910390fd5b6000808673ffffffffffffffffffffffffffffffffffffffff1685876040516116ef9190611e6b565b60006040518083038185875af1925050503d806000811461172c576040519150601f19603f3d011682016040523d82523d6000602084013e611731565b606091505b50915091506117418282866119be565b92505050949350505050565b60008060007fffffffffffffffffffffffffffffffffffffffffffffffffffffffffffffffff806117a7577f4e487b7100000000000000000000000000000000000000000000000000000000600052601260045260246000fd5b848609905083856117b89190612223565b925082816117c6919061227d565b9150828110156117e0576001826117dd919061227d565b91505b509250929050565b600080600183196117f99190612162565b83169050808361180991906121f2565b9250808561181791906121f2565b94506001816001831961182a9190612162565b61183491906121f2565b61183e9190612162565b846118499190612223565b856118549190612162565b945060006001905080846118689190612223565b6002611874919061227d565b8161187f9190612223565b9050808461188d9190612223565b6002611899919061227d565b816118a49190612223565b905080846118b29190612223565b60026118be919061227d565b816118c99190612223565b905080846118d79190612223565b60026118e3919061227d565b816118ee9190612223565b905080846118fc9190612223565b6002611908919061227d565b816119139190612223565b905080846119219190612223565b600261192d919061227d565b816119389190612223565b905080846119469190612223565b6002611952919061227d565b8161195d9190612223565b9050808461196b9190612223565b6002611977919061227d565b816119829190612223565b905080866119909190612223565b925050509392505050565b6000808273ffffffffffffffffffffffffffffffffffffffff163b119050919050565b606083156119ce57829050611a1e565b6000835111156119e15782518084602001fd5b816040517f08c379a0000000000000000000000000000000000000000000000000000000008152600401611a159190611f18565b60405180910390fd5b9392505050565b604051806020016040528060007bffffffffffffffffffffffffffffffffffffffffffffffffffffffff1681525090565b600081359050611a6581612681565b92915050565b600081359050611a7a81612698565b92915050565b600081519050611a8f81612698565b92915050565b600081359050611aa4816126af565b92915050565b600081519050611ab9816126af565b92915050565b600060208284031215611ad157600080fd5b6000611adf84828501611a56565b91505092915050565b60008060408385031215611afb57600080fd5b6000611b0985828601611a56565b9250506020611b1a85828601611a56565b9150509250929050565b60008060408385031215611b3757600080fd5b6000611b4585828601611a56565b9250506020611b5685828601611a95565b9150509250929050565b600060208284031215611b7257600080fd5b6000611b8084828501611a6b565b91505092915050565b600060208284031215611b9b57600080fd5b6000611ba984828501611a80565b91505092915050565b600060208284031215611bc457600080fd5b6000611bd284828501611aaa565b91505092915050565b611be4816122b1565b82525050565b611bf3816122c3565b82525050565b6000611c0482612130565b611c0e8185612146565b9350611c1e818560208601612309565b80840191505092915050565b6000611c358261213b565b611c3f8185612151565b9350611c4f818560208601612309565b611c588161239a565b840191505092915050565b6000611c70600e83612151565b9150611c7b826123ab565b602082019050919050565b6000611c93600c83612151565b9150611c9e826123d4565b602082019050919050565b6000611cb6602683612151565b9150611cc1826123fd565b604082019050919050565b6000611cd9602483612151565b9150611ce48261244c565b604082019050919050565b6000611cfc602683612151565b9150611d078261249b565b604082019050919050565b6000611d1f601983612151565b9150611d2a826124ea565b602082019050919050565b6000611d42601083612151565b9150611d4d82612513565b602082019050919050565b6000611d65601a83612151565b9150611d708261253c565b602082019050919050565b6000611d88601e83612151565b9150611d9382612565565b602082019050919050565b6000611dab601183612151565b9150611db68261258e565b602082019050919050565b6000611dce601d83612151565b9150611dd9826125b7565b602082019050919050565b6000611df1600e83612151565b9150611dfc826125e0565b602082019050919050565b6000611e14601b83612151565b9150611e1f82612609565b602082019050919050565b6000611e37602a83612151565b9150611e4282612632565b604082019050919050565b611e56816122ef565b82525050565b611e65816122f9565b82525050565b6000611e778284611bf9565b915081905092915050565b6000602082019050611e976000830184611bdb565b92915050565b6000606082019050611eb26000830186611bdb565b611ebf6020830185611bdb565b611ecc6040830184611e4d565b949350505050565b6000604082019050611ee96000830185611bdb565b611ef66020830184611e4d565b9392505050565b6000602082019050611f126000830184611bea565b92915050565b60006020820190508181036000830152611f328184611c2a565b905092915050565b60006020820190508181036000830152611f5381611c63565b9050919050565b60006020820190508181036000830152611f7381611c86565b9050919050565b60006020820190508181036000830152611f9381611ca9565b9050919050565b60006020820190508181036000830152611fb381611ccc565b9050919050565b60006020820190508181036000830152611fd381611cef565b9050919050565b60006020820190508181036000830152611ff381611d12565b9050919050565b6000602082019050818103600083015261201381611d35565b9050919050565b6000602082019050818103600083015261203381611d58565b9050919050565b6000602082019050818103600083015261205381611d7b565b9050919050565b6000602082019050818103600083015261207381611d9e565b9050919050565b6000602082019050818103600083015261209381611dc1565b9050919050565b600060208201905081810360008301526120b381611de4565b9050919050565b600060208201905081810360008301526120d381611e07565b9050919050565b600060208201905081810360008301526120f381611e2a565b9050919050565b600060208201905061210f6000830184611e4d565b92915050565b600060208201905061212a6000830184611e5c565b92915050565b600081519050919050565b600081519050919050565b600081905092915050565b600082825260208201905092915050565b600061216d826122ef565b9150612178836122ef565b9250827fffffffffffffffffffffffffffffffffffffffffffffffffffffffffffffffff038211156121ad576121ac61233c565b5b828201905092915050565b60006121c3826122f9565b91506121ce836122f9565b92508263ffffffff038211156121e7576121e661233c565b5b828201905092915050565b60006121fd826122ef565b9150612208836122ef565b9250826122185761221761236b565b5b828204905092915050565b600061222e826122ef565b9150612239836122ef565b9250817fffffffffffffffffffffffffffffffffffffffffffffffffffffffffffffffff04831182151516156122725761227161233c565b5b828202905092915050565b6000612288826122ef565b9150612293836122ef565b9250828210156122a6576122a561233c565b5b828203905092915050565b60006122bc826122cf565b9050919050565b60008115159050919050565b600073ffffffffffffffffffffffffffffffffffffffff82169050919050565b6000819050919050565b600063ffffffff82169050919050565b60005b8381101561232757808201518184015260208101905061230c565b83811115612336576000848401525b50505050565b7f4e487b7100000000000000000000000000000000000000000000000000000000600052601160045260246000fd5b7f4e487b7100000000000000000000000000000000000000000000000000000000600052601260045260246000fd5b6000601f19601f8301169050919050565b7f696e76616c696420616d6f756e74000000000000000000000000000000000000600082015250565b7f496e76616c696420557365720000000000000000000000000000000000000000600082015250565b7f416464726573733a20696e73756666696369656e742062616c616e636520666f60008201527f722063616c6c0000000000000000000000000000000000000000000000000000602082015250565b7f416d6f756e74206578636565647320746f74616c20616d6f756e7420746f207260008201527f6169736500000000000000000000000000000000000000000000000000000000602082015250565b7f4669786564506f696e743a3a6672616374696f6e3a206469766973696f6e206260008201527f79207a65726f0000000000000000000000000000000000000000000000000000602082015250565b7f53616c6520436f6e747261637420697320496e61637469766500000000000000600082015250565b7f70726f6a656374206e6f74206c69766500000000000000000000000000000000600082015250565b7f46756c6c4d6174683a3a6d756c4469763a206f766572666c6f77000000000000600082015250565b7f4669786564506f696e743a3a6672616374696f6e3a206f766572666c6f770000600082015250565b7f70726f6a6563742068617320656e646564000000000000000000000000000000600082015250565b7f416464726573733a2063616c6c20746f206e6f6e2d636f6e7472616374000000600082015250565b7f43616c6c657220496e76616c6964000000000000000000000000000000000000600082015250565b7f4e6f204e66742070726573656e7420666f722074686520757365720000000000600082015250565b7f5361666545524332303a204552433230206f7065726174696f6e20646964206e60008201527f6f74207375636365656400000000000000000000000000000000000000000000602082015250565b61268a816122b1565b811461269557600080fd5b50565b6126a1816122c3565b81146126ac57600080fd5b50565b6126b8816122ef565b81146126c357600080fd5b5056fea264697066735822122087f2cb8c5a207898d316c921559744116dc506a0923e8aed177f1c66d2ee26e864736f6c63430008040033",
  "linkReferences": {},
  "deployedLinkReferences": {}
}