{
  "_format": "hh-sol-artifact-1",
  "contractName": "PrivateSale",
  "sourceName": "contracts/PrivateSale.sol",
  "abi": [
    {
      "inputs": [
        {
          "internalType": "address",
          "name": "tokenAdd_",
          "type": "address"
        },
        {
          "internalType": "address",
          "name": "principal_",
          "type": "address"
        },
        {
          "internalType": "uint256",
          "name": "price_",
          "type": "uint256"
        },
        {
          "internalType": "uint256",
          "name": "totalAmountToRaise_",
          "type": "uint256"
        },
        {
          "internalType": "uint256",
          "name": "totalTokenSupply_",
          "type": "uint256"
        },
        {
          "internalType": "address",
          "name": "nftAddress_",
          "type": "address"
        },
        {
          "internalType": "uint32",
          "name": "startTime_",
          "type": "uint32"
        },
        {
          "internalType": "uint32",
          "name": "endTime_",
          "type": "uint32"
        },
        {
          "internalType": "string",
          "name": "ipfsId_",
          "type": "string"
        }
      ],
      "stateMutability": "nonpayable",
      "type": "constructor"
    },
    {
      "inputs": [],
      "name": "admin",
      "outputs": [
        {
          "internalType": "address",
          "name": "",
          "type": "address"
        }
      ],
      "stateMutability": "view",
      "type": "function"
    },
    {
      "inputs": [
        {
          "internalType": "bool",
          "name": "status",
          "type": "bool"
        }
      ],
      "name": "changeContractStatus",
      "outputs": [],
      "stateMutability": "nonpayable",
      "type": "function"
    },
    {
      "inputs": [],
      "name": "contractStatus",
      "outputs": [
        {
          "internalType": "bool",
          "name": "",
          "type": "bool"
        }
      ],
      "stateMutability": "view",
      "type": "function"
    },
    {
      "inputs": [],
      "name": "endTimestamp",
      "outputs": [
        {
          "internalType": "uint32",
          "name": "",
          "type": "uint32"
        }
      ],
      "stateMutability": "view",
      "type": "function"
    },
    {
      "inputs": [],
      "name": "getNFTAddress",
      "outputs": [
        {
          "internalType": "address",
          "name": "",
          "type": "address"
        }
      ],
      "stateMutability": "view",
      "type": "function"
    },
    {
      "inputs": [],
      "name": "getProjectTokenAddress",
      "outputs": [
        {
          "internalType": "address",
          "name": "",
          "type": "address"
        }
      ],
      "stateMutability": "view",
      "type": "function"
    },
    {
      "inputs": [
        {
          "internalType": "address",
          "name": "owner_",
          "type": "address"
        },
        {
          "internalType": "address",
          "name": "admin_",
          "type": "address"
        }
      ],
      "name": "initialize",
      "outputs": [],
      "stateMutability": "nonpayable",
      "type": "function"
    },
    {
      "inputs": [],
      "name": "owner",
      "outputs": [
        {
          "internalType": "address",
          "name": "",
          "type": "address"
        }
      ],
      "stateMutability": "view",
      "type": "function"
    },
    {
      "inputs": [
        {
          "internalType": "address",
          "name": "to_",
          "type": "address"
        },
        {
          "internalType": "uint256",
          "name": "amount",
          "type": "uint256"
        }
      ],
      "name": "participate",
      "outputs": [],
      "stateMutability": "nonpayable",
      "type": "function"
    },
    {
      "inputs": [],
      "name": "price",
      "outputs": [
        {
          "internalType": "uint256",
          "name": "",
          "type": "uint256"
        }
      ],
      "stateMutability": "view",
      "type": "function"
    },
    {
      "inputs": [],
      "name": "projectId",
      "outputs": [
        {
          "internalType": "uint32",
          "name": "",
          "type": "uint32"
        }
      ],
      "stateMutability": "view",
      "type": "function"
    },
    {
      "inputs": [
        {
          "internalType": "address",
          "name": "nftTokenAddress_",
          "type": "address"
        }
      ],
      "name": "setNftAddress",
      "outputs": [
        {
          "internalType": "address",
          "name": "",
          "type": "address"
        }
      ],
      "stateMutability": "nonpayable",
      "type": "function"
    },
    {
      "inputs": [
        {
          "internalType": "uint32",
          "name": "startTime_",
          "type": "uint32"
        },
        {
          "internalType": "uint32",
          "name": "endTime_",
          "type": "uint32"
        }
      ],
      "name": "setTimeInfo",
      "outputs": [],
      "stateMutability": "nonpayable",
      "type": "function"
    },
    {
      "inputs": [],
      "name": "startTimestamp",
      "outputs": [
        {
          "internalType": "uint32",
          "name": "",
          "type": "uint32"
        }
      ],
      "stateMutability": "view",
      "type": "function"
    },
    {
      "inputs": [],
      "name": "totalAmountRaised",
      "outputs": [
        {
          "internalType": "uint256",
          "name": "",
          "type": "uint256"
        }
      ],
      "stateMutability": "view",
      "type": "function"
    },
    {
      "inputs": [],
      "name": "totalAmountToRaise",
      "outputs": [
        {
          "internalType": "uint256",
          "name": "",
          "type": "uint256"
        }
      ],
      "stateMutability": "view",
      "type": "function"
    },
    {
      "inputs": [],
      "name": "totalParticipatedUser",
      "outputs": [
        {
          "internalType": "uint32",
          "name": "",
          "type": "uint32"
        }
      ],
      "stateMutability": "view",
      "type": "function"
    },
    {
      "inputs": [],
      "name": "totalTokenSupply",
      "outputs": [
        {
          "internalType": "uint256",
          "name": "",
          "type": "uint256"
        }
      ],
      "stateMutability": "view",
      "type": "function"
    },
    {
      "inputs": [
        {
          "internalType": "address",
          "name": "",
          "type": "address"
        }
      ],
      "name": "userToTokenAmount",
      "outputs": [
        {
          "internalType": "uint256",
          "name": "",
          "type": "uint256"
        }
      ],
      "stateMutability": "view",
      "type": "function"
    },
    {
      "inputs": [],
      "name": "withdrawRaisedAmount",
      "outputs": [
        {
          "internalType": "uint256",
          "name": "",
          "type": "uint256"
        }
      ],
      "stateMutability": "nonpayable",
      "type": "function"
    },
    {
      "inputs": [
        {
          "internalType": "address",
          "name": "to_",
          "type": "address"
        }
      ],
      "name": "withdrawRemainingTokens",
      "outputs": [
        {
          "internalType": "uint256",
          "name": "",
          "type": "uint256"
        }
      ],
      "stateMutability": "nonpayable",
      "type": "function"
    },
    {
      "stateMutability": "payable",
      "type": "receive"
    }
  ],
  "bytecode": "0x60806040523480156200001157600080fd5b5060405162002ffb38038062002ffb83398181016040528101906200003791906200033c565b33600960006101000a81548173ffffffffffffffffffffffffffffffffffffffff021916908373ffffffffffffffffffffffffffffffffffffffff16021790555088600a60006101000a81548173ffffffffffffffffffffffffffffffffffffffff021916908373ffffffffffffffffffffffffffffffffffffffff16021790555087600b60006101000a81548173ffffffffffffffffffffffffffffffffffffffff021916908373ffffffffffffffffffffffffffffffffffffffff16021790555086600581905550856004819055508460028190555083600c60006101000a81548173ffffffffffffffffffffffffffffffffffffffff021916908373ffffffffffffffffffffffffffffffffffffffff16021790555082600660046101000a81548163ffffffff021916908363ffffffff16021790555081600660086101000a81548163ffffffff021916908363ffffffff1602179055508060079080519060200190620001aa929190620001d5565b5060016006600c6101000a81548160ff0219169083151502179055505050505050505050506200063a565b828054620001e39062000511565b90600052602060002090601f01602090048101928262000207576000855562000253565b82601f106200022257805160ff191683800117855562000253565b8280016001018555821562000253579182015b828111156200025257825182559160200191906001019062000235565b5b50905062000262919062000266565b5090565b5b808211156200028157600081600090555060010162000267565b5090565b60006200029c620002968462000457565b6200042e565b905082815260208101848484011115620002b557600080fd5b620002c2848285620004db565b509392505050565b600081519050620002db81620005ec565b92915050565b600082601f830112620002f357600080fd5b81516200030584826020860162000285565b91505092915050565b6000815190506200031f8162000606565b92915050565b600081519050620003368162000620565b92915050565b60008060008060008060008060006101208a8c0312156200035c57600080fd5b60006200036c8c828d01620002ca565b99505060206200037f8c828d01620002ca565b9850506040620003928c828d016200030e565b9750506060620003a58c828d016200030e565b9650506080620003b88c828d016200030e565b95505060a0620003cb8c828d01620002ca565b94505060c0620003de8c828d0162000325565b93505060e0620003f18c828d0162000325565b9250506101008a015167ffffffffffffffff8111156200041057600080fd5b6200041e8c828d01620002e1565b9150509295985092959850929598565b60006200043a6200044d565b905062000448828262000547565b919050565b6000604051905090565b600067ffffffffffffffff821115620004755762000474620005ac565b5b6200048082620005db565b9050602081019050919050565b60006200049a82620004a1565b9050919050565b600073ffffffffffffffffffffffffffffffffffffffff82169050919050565b6000819050919050565b600063ffffffff82169050919050565b60005b83811015620004fb578082015181840152602081019050620004de565b838111156200050b576000848401525b50505050565b600060028204905060018216806200052a57607f821691505b602082108114156200054157620005406200057d565b5b50919050565b6200055282620005db565b810181811067ffffffffffffffff82111715620005745762000573620005ac565b5b80604052505050565b7f4e487b7100000000000000000000000000000000000000000000000000000000600052602260045260246000fd5b7f4e487b7100000000000000000000000000000000000000000000000000000000600052604160045260246000fd5b6000601f19601f8301169050919050565b620005f7816200048d565b81146200060357600080fd5b50565b6200061181620004c1565b81146200061d57600080fd5b50565b6200062b81620004cb565b81146200063757600080fd5b50565b6129b1806200064a6000396000f3fe60806040526004361061012e5760003560e01c80639ebe2d0a116100ab578063b96184781161006f578063b9618478146103dd578063c6ee20d214610408578063e6fd48bc14610433578063f851a4401461045e578063f9af1a9814610489578063fb8130ec146104c657610135565b80639ebe2d0a14610308578063a035b1fe14610333578063a0a7a1831461035e578063a85adeab14610389578063b64afbe5146103b457610135565b80634b6c36b5116100f25780634b6c36b5146102215780635affbd971461024a57806378d18533146102875780637cbb7b46146102b25780638da5cb5b146102dd57610135565b80630b102d1a1461013a5780631ca8b6cb14610177578063242d7dba146101a25780633fafa127146101cd578063485cc955146101f857610135565b3661013557005b600080fd5b34801561014657600080fd5b50610161600480360381019061015c9190611cb5565b6104ef565b60405161016e91906120d7565b60405180910390f35b34801561018357600080fd5b5061018c610626565b604051610199919061236f565b60405180910390f35b3480156101ae57600080fd5b506101b761062c565b6040516101c4919061236f565b60405180910390f35b3480156101d957600080fd5b506101e2610632565b6040516101ef919061238a565b60405180910390f35b34801561020457600080fd5b5061021f600480360381019061021a9190611cde565b610646565b005b34801561022d57600080fd5b5061024860048036038101906102439190611d56565b610740565b005b34801561025657600080fd5b50610271600480360381019061026c9190611cb5565b610845565b60405161027e919061236f565b60405180910390f35b34801561029357600080fd5b5061029c610a34565b6040516102a9919061236f565b60405180910390f35b3480156102be57600080fd5b506102c7610b93565b6040516102d491906120d7565b60405180910390f35b3480156102e957600080fd5b506102f2610bbd565b6040516102ff91906120d7565b60405180910390f35b34801561031457600080fd5b5061031d610be7565b60405161032a919061236f565b60405180910390f35b34801561033f57600080fd5b50610348610bed565b604051610355919061236f565b60405180910390f35b34801561036a57600080fd5b50610373610bf3565b604051610380919061238a565b60405180910390f35b34801561039557600080fd5b5061039e610c09565b6040516103ab919061238a565b60405180910390f35b3480156103c057600080fd5b506103db60048036038101906103d69190611d1a565b610c1f565b005b3480156103e957600080fd5b506103f2610fac565b6040516103ff91906120d7565b60405180910390f35b34801561041457600080fd5b5061041d610fd6565b60405161042a9190612152565b60405180910390f35b34801561043f57600080fd5b50610448610fe9565b604051610455919061238a565b60405180910390f35b34801561046a57600080fd5b50610473610fff565b60405161048091906120d7565b60405180910390f35b34801561049557600080fd5b506104b060048036038101906104ab9190611cb5565b611029565b6040516104bd919061236f565b60405180910390f35b3480156104d257600080fd5b506104ed60048036038101906104e89190611dd1565b611041565b005b6000600960009054906101000a900473ffffffffffffffffffffffffffffffffffffffff1673ffffffffffffffffffffffffffffffffffffffff163373ffffffffffffffffffffffffffffffffffffffff1614610581576040517f08c379a00000000000000000000000000000000000000000000000000000000081526004016105789061218f565b60405180910390fd5b600073ffffffffffffffffffffffffffffffffffffffff168273ffffffffffffffffffffffffffffffffffffffff1614156105bb57600080fd5b81600c60006101000a81548173ffffffffffffffffffffffffffffffffffffffff021916908373ffffffffffffffffffffffffffffffffffffffff160217905550600c60009054906101000a900473ffffffffffffffffffffffffffffffffffffffff169050919050565b60025481565b60035481565b60008054906101000a900463ffffffff1681565b600073ffffffffffffffffffffffffffffffffffffffff168273ffffffffffffffffffffffffffffffffffffffff16141561068057600080fd5b600073ffffffffffffffffffffffffffffffffffffffff168173ffffffffffffffffffffffffffffffffffffffff1614156106ba57600080fd5b81600960006101000a81548173ffffffffffffffffffffffffffffffffffffffff021916908373ffffffffffffffffffffffffffffffffffffffff16021790555080600860006101000a81548173ffffffffffffffffffffffffffffffffffffffff021916908373ffffffffffffffffffffffffffffffffffffffff1602179055505050565b3373ffffffffffffffffffffffffffffffffffffffff16600960009054906101000a900473ffffffffffffffffffffffffffffffffffffffff1673ffffffffffffffffffffffffffffffffffffffff1614806107e957503373ffffffffffffffffffffffffffffffffffffffff16600860009054906101000a900473ffffffffffffffffffffffffffffffffffffffff1673ffffffffffffffffffffffffffffffffffffffff16145b610828576040517f08c379a000000000000000000000000000000000000000000000000000000000815260040161081f9061230f565b60405180910390fd5b806006600c6101000a81548160ff02191690831515021790555050565b60003373ffffffffffffffffffffffffffffffffffffffff16600960009054906101000a900473ffffffffffffffffffffffffffffffffffffffff1673ffffffffffffffffffffffffffffffffffffffff1614806108f057503373ffffffffffffffffffffffffffffffffffffffff16600860009054906101000a900473ffffffffffffffffffffffffffffffffffffffff1673ffffffffffffffffffffffffffffffffffffffff16145b61092f576040517f08c379a00000000000000000000000000000000000000000000000000000000081526004016109269061230f565b60405180910390fd5b6000600a60009054906101000a900473ffffffffffffffffffffffffffffffffffffffff1673ffffffffffffffffffffffffffffffffffffffff166370a08231306040518263ffffffff1660e01b815260040161098c91906120d7565b60206040518083038186803b1580156109a457600080fd5b505afa1580156109b8573d6000803e3d6000fd5b505050506040513d601f19601f820116820180604052508101906109dc9190611da8565b9050610a2b8382600a60009054906101000a900473ffffffffffffffffffffffffffffffffffffffff1673ffffffffffffffffffffffffffffffffffffffff166111e99092919063ffffffff16565b80915050919050565b60003373ffffffffffffffffffffffffffffffffffffffff16600960009054906101000a900473ffffffffffffffffffffffffffffffffffffffff1673ffffffffffffffffffffffffffffffffffffffff1614610a9057600080fd5b6000600a60009054906101000a900473ffffffffffffffffffffffffffffffffffffffff1673ffffffffffffffffffffffffffffffffffffffff166370a08231306040518263ffffffff1660e01b8152600401610aed91906120d7565b60206040518083038186803b158015610b0557600080fd5b505afa158015610b19573d6000803e3d6000fd5b505050506040513d601f19601f82011682018060405250810190610b3d9190611da8565b9050610b8c3382600b60009054906101000a900473ffffffffffffffffffffffffffffffffffffffff1673ffffffffffffffffffffffffffffffffffffffff166111e99092919063ffffffff16565b8091505090565b6000600a60009054906101000a900473ffffffffffffffffffffffffffffffffffffffff16905090565b6000600960009054906101000a900473ffffffffffffffffffffffffffffffffffffffff16905090565b60045481565b60055481565b600660009054906101000a900463ffffffff1681565b600660089054906101000a900463ffffffff1681565b6006600c9054906101000a900460ff16610c6e576040517f08c379a0000000000000000000000000000000000000000000000000000000008152600401610c659061224f565b60405180910390fd5b60008111610cb1576040517f08c379a0000000000000000000000000000000000000000000000000000000008152600401610ca8906121af565b60405180910390fd5b42600660049054906101000a900463ffffffff1663ffffffff1610610d0b576040517f08c379a0000000000000000000000000000000000000000000000000000000008152600401610d029061226f565b60405180910390fd5b42600660089054906101000a900463ffffffff1663ffffffff1611610d65576040517f08c379a0000000000000000000000000000000000000000000000000000000008152600401610d5c906122cf565b60405180910390fd5b600454610d7d8260035461126f90919063ffffffff16565b1115610dbe576040517f08c379a0000000000000000000000000000000000000000000000000000000008152600401610db59061220f565b60405180910390fd5b6000610dc982611292565b9050610dd4836112af565b6000600160008573ffffffffffffffffffffffffffffffffffffffff1673ffffffffffffffffffffffffffffffffffffffff168152602001908152602001600020541415610e5d576001600660008282829054906101000a900463ffffffff16610e3e919061242d565b92506101000a81548163ffffffff021916908363ffffffff1602179055505b8160036000828254610e6f91906123d7565b92505081905550610ec881600160008673ffffffffffffffffffffffffffffffffffffffff1673ffffffffffffffffffffffffffffffffffffffff1681526020019081526020016000205461126f90919063ffffffff16565b600160008573ffffffffffffffffffffffffffffffffffffffff1673ffffffffffffffffffffffffffffffffffffffff16815260200190815260200160002081905550610f5a833084600b60009054906101000a900473ffffffffffffffffffffffffffffffffffffffff1673ffffffffffffffffffffffffffffffffffffffff1661139f909392919063ffffffff16565b610fa78382600a60009054906101000a900473ffffffffffffffffffffffffffffffffffffffff1673ffffffffffffffffffffffffffffffffffffffff166111e99092919063ffffffff16565b505050565b6000600c60009054906101000a900473ffffffffffffffffffffffffffffffffffffffff16905090565b6006600c9054906101000a900460ff1681565b600660049054906101000a900463ffffffff1681565b6000600860009054906101000a900473ffffffffffffffffffffffffffffffffffffffff16905090565b60016020528060005260406000206000915090505481565b3373ffffffffffffffffffffffffffffffffffffffff16600960009054906101000a900473ffffffffffffffffffffffffffffffffffffffff1673ffffffffffffffffffffffffffffffffffffffff1614806110ea57503373ffffffffffffffffffffffffffffffffffffffff16600860009054906101000a900473ffffffffffffffffffffffffffffffffffffffff1673ffffffffffffffffffffffffffffffffffffffff16145b611129576040517f08c379a00000000000000000000000000000000000000000000000000000000081526004016111209061230f565b60405180910390fd5b60008263ffffffff16141580611146575060008163ffffffff1614155b611185576040517f08c379a000000000000000000000000000000000000000000000000000000000815260040161117c906121cf565b60405180910390fd5b60008263ffffffff16146111b55781600660046101000a81548163ffffffff021916908363ffffffff1602179055505b60008163ffffffff16146111e55780600660086101000a81548163ffffffff021916908363ffffffff1602179055505b5050565b61126a8363a9059cbb60e01b8484604051602401611208929190612129565b604051602081830303815290604052907bffffffffffffffffffffffffffffffffffffffffffffffffffffffff19166020820180517bffffffffffffffffffffffffffffffffffffffffffffffffffffffff8381831617835250505050611428565b505050565b600082828461127e91906123d7565b915081101561128c57600080fd5b92915050565b60006112a86112a3836005546114ef565b6116f6565b9050919050565b6000600c60009054906101000a900473ffffffffffffffffffffffffffffffffffffffff1673ffffffffffffffffffffffffffffffffffffffff166370a08231836040518263ffffffff1660e01b815260040161130c91906120d7565b60206040518083038186803b15801561132457600080fd5b505afa158015611338573d6000803e3d6000fd5b505050506040513d601f19601f8201168201806040525081019061135c9190611da8565b1161139c576040517f08c379a00000000000000000000000000000000000000000000000000000000081526004016113939061232f565b60405180910390fd5b50565b611422846323b872dd60e01b8585856040516024016113c0939291906120f2565b604051602081830303815290604052907bffffffffffffffffffffffffffffffffffffffffffffffffffffffff19166020820180517bffffffffffffffffffffffffffffffffffffffffffffffffffffffff8381831617835250505050611428565b50505050565b600061148a826040518060400160405280602081526020017f5361666545524332303a206c6f772d6c6576656c2063616c6c206661696c65648152508573ffffffffffffffffffffffffffffffffffffffff166117349092919063ffffffff16565b90506000815111156114ea57808060200190518101906114aa9190611d7f565b6114e9576040517f08c379a00000000000000000000000000000000000000000000000000000000081526004016114e09061234f565b60405180910390fd5b5b505050565b6114f7611c06565b6000821161153a576040517f08c379a00000000000000000000000000000000000000000000000000000000081526004016115319061222f565b60405180910390fd5b600083141561157857604051806020016040528060007bffffffffffffffffffffffffffffffffffffffffffffffffffffffff1681525090506116f0565b71ffffffffffffffffffffffffffffffffffff8016831161164057600082607060ff1685901b6115a89190612467565b90507bffffffffffffffffffffffffffffffffffffffffffffffffffffffff801681111561160b576040517f08c379a0000000000000000000000000000000000000000000000000000000008152600401611602906122af565b60405180910390fd5b6040518060200160405280827bffffffffffffffffffffffffffffffffffffffffffffffffffffffff168152509150506116f0565b600061165c846e0100000000000000000000000000008561174c565b90507bffffffffffffffffffffffffffffffffffffffffffffffffffffffff80168111156116bf576040517f08c379a00000000000000000000000000000000000000000000000000000000081526004016116b6906122af565b60405180910390fd5b6040518060200160405280827bffffffffffffffffffffffffffffffffffffffffffffffffffffffff168152509150505b92915050565b60006612725dd1d243ab82600001517bffffffffffffffffffffffffffffffffffffffffffffffffffffffff1661172d9190612467565b9050919050565b6060611743848460008561181a565b90509392505050565b600080600061175b868661192e565b9150915060008480611796577f4e487b7100000000000000000000000000000000000000000000000000000000600052601260045260246000fd5b8688099050828111156117b3576001826117b091906124f2565b91505b80836117bf91906124f2565b9250848210611803576040517f08c379a00000000000000000000000000000000000000000000000000000000081526004016117fa9061228f565b60405180910390fd5b61180e8383876119c9565b93505050509392505050565b60608247101561185f576040517f08c379a0000000000000000000000000000000000000000000000000000000008152600401611856906121ef565b60405180910390fd5b61186885611b7c565b6118a7576040517f08c379a000000000000000000000000000000000000000000000000000000000815260040161189e906122ef565b60405180910390fd5b6000808673ffffffffffffffffffffffffffffffffffffffff1685876040516118d091906120c0565b60006040518083038185875af1925050503d806000811461190d576040519150601f19603f3d011682016040523d82523d6000602084013e611912565b606091505b5091509150611922828286611b9f565b92505050949350505050565b60008060007fffffffffffffffffffffffffffffffffffffffffffffffffffffffffffffffff80611988577f4e487b7100000000000000000000000000000000000000000000000000000000600052601260045260246000fd5b848609905083856119999190612498565b925082816119a791906124f2565b9150828110156119c1576001826119be91906124f2565b91505b509250929050565b600080600183196119da91906123d7565b8316905080836119ea9190612467565b925080856119f89190612467565b945060018160018319611a0b91906123d7565b611a159190612467565b611a1f91906123d7565b84611a2a9190612498565b85611a3591906123d7565b94506000600190508084611a499190612498565b6002611a5591906124f2565b81611a609190612498565b90508084611a6e9190612498565b6002611a7a91906124f2565b81611a859190612498565b90508084611a939190612498565b6002611a9f91906124f2565b81611aaa9190612498565b90508084611ab89190612498565b6002611ac491906124f2565b81611acf9190612498565b90508084611add9190612498565b6002611ae991906124f2565b81611af49190612498565b90508084611b029190612498565b6002611b0e91906124f2565b81611b199190612498565b90508084611b279190612498565b6002611b3391906124f2565b81611b3e9190612498565b90508084611b4c9190612498565b6002611b5891906124f2565b81611b639190612498565b90508086611b719190612498565b925050509392505050565b6000808273ffffffffffffffffffffffffffffffffffffffff163b119050919050565b60608315611baf57829050611bff565b600083511115611bc25782518084602001fd5b816040517f08c379a0000000000000000000000000000000000000000000000000000000008152600401611bf6919061216d565b60405180910390fd5b9392505050565b604051806020016040528060007bffffffffffffffffffffffffffffffffffffffffffffffffffffffff1681525090565b600081359050611c468161291f565b92915050565b600081359050611c5b81612936565b92915050565b600081519050611c7081612936565b92915050565b600081359050611c858161294d565b92915050565b600081519050611c9a8161294d565b92915050565b600081359050611caf81612964565b92915050565b600060208284031215611cc757600080fd5b6000611cd584828501611c37565b91505092915050565b60008060408385031215611cf157600080fd5b6000611cff85828601611c37565b9250506020611d1085828601611c37565b9150509250929050565b60008060408385031215611d2d57600080fd5b6000611d3b85828601611c37565b9250506020611d4c85828601611c76565b9150509250929050565b600060208284031215611d6857600080fd5b6000611d7684828501611c4c565b91505092915050565b600060208284031215611d9157600080fd5b6000611d9f84828501611c61565b91505092915050565b600060208284031215611dba57600080fd5b6000611dc884828501611c8b565b91505092915050565b60008060408385031215611de457600080fd5b6000611df285828601611ca0565b9250506020611e0385828601611ca0565b9150509250929050565b611e1681612526565b82525050565b611e2581612538565b82525050565b6000611e36826123a5565b611e4081856123bb565b9350611e5081856020860161257e565b80840191505092915050565b6000611e67826123b0565b611e7181856123c6565b9350611e8181856020860161257e565b611e8a8161260f565b840191505092915050565b6000611ea26010836123c6565b9150611ead82612620565b602082019050919050565b6000611ec5600e836123c6565b9150611ed082612649565b602082019050919050565b6000611ee8601a836123c6565b9150611ef382612672565b602082019050919050565b6000611f0b6026836123c6565b9150611f168261269b565b604082019050919050565b6000611f2e6024836123c6565b9150611f39826126ea565b604082019050919050565b6000611f516026836123c6565b9150611f5c82612739565b604082019050919050565b6000611f746019836123c6565b9150611f7f82612788565b602082019050919050565b6000611f976010836123c6565b9150611fa2826127b1565b602082019050919050565b6000611fba601a836123c6565b9150611fc5826127da565b602082019050919050565b6000611fdd601e836123c6565b9150611fe882612803565b602082019050919050565b60006120006011836123c6565b915061200b8261282c565b602082019050919050565b6000612023601d836123c6565b915061202e82612855565b602082019050919050565b6000612046600e836123c6565b91506120518261287e565b602082019050919050565b6000612069601b836123c6565b9150612074826128a7565b602082019050919050565b600061208c602a836123c6565b9150612097826128d0565b604082019050919050565b6120ab81612564565b82525050565b6120ba8161256e565b82525050565b60006120cc8284611e2b565b915081905092915050565b60006020820190506120ec6000830184611e0d565b92915050565b60006060820190506121076000830186611e0d565b6121146020830185611e0d565b61212160408301846120a2565b949350505050565b600060408201905061213e6000830185611e0d565b61214b60208301846120a2565b9392505050565b60006020820190506121676000830184611e1c565b92915050565b600060208201905081810360008301526121878184611e5c565b905092915050565b600060208201905081810360008301526121a881611e95565b9050919050565b600060208201905081810360008301526121c881611eb8565b9050919050565b600060208201905081810360008301526121e881611edb565b9050919050565b6000602082019050818103600083015261220881611efe565b9050919050565b6000602082019050818103600083015261222881611f21565b9050919050565b6000602082019050818103600083015261224881611f44565b9050919050565b6000602082019050818103600083015261226881611f67565b9050919050565b6000602082019050818103600083015261228881611f8a565b9050919050565b600060208201905081810360008301526122a881611fad565b9050919050565b600060208201905081810360008301526122c881611fd0565b9050919050565b600060208201905081810360008301526122e881611ff3565b9050919050565b6000602082019050818103600083015261230881612016565b9050919050565b6000602082019050818103600083015261232881612039565b9050919050565b600060208201905081810360008301526123488161205c565b9050919050565b600060208201905081810360008301526123688161207f565b9050919050565b600060208201905061238460008301846120a2565b92915050565b600060208201905061239f60008301846120b1565b92915050565b600081519050919050565b600081519050919050565b600081905092915050565b600082825260208201905092915050565b60006123e282612564565b91506123ed83612564565b9250827fffffffffffffffffffffffffffffffffffffffffffffffffffffffffffffffff03821115612422576124216125b1565b5b828201905092915050565b60006124388261256e565b91506124438361256e565b92508263ffffffff0382111561245c5761245b6125b1565b5b828201905092915050565b600061247282612564565b915061247d83612564565b92508261248d5761248c6125e0565b5b828204905092915050565b60006124a382612564565b91506124ae83612564565b9250817fffffffffffffffffffffffffffffffffffffffffffffffffffffffffffffffff04831182151516156124e7576124e66125b1565b5b828202905092915050565b60006124fd82612564565b915061250883612564565b92508282101561251b5761251a6125b1565b5b828203905092915050565b600061253182612544565b9050919050565b60008115159050919050565b600073ffffffffffffffffffffffffffffffffffffffff82169050919050565b6000819050919050565b600063ffffffff82169050919050565b60005b8381101561259c578082015181840152602081019050612581565b838111156125ab576000848401525b50505050565b7f4e487b7100000000000000000000000000000000000000000000000000000000600052601160045260246000fd5b7f4e487b7100000000000000000000000000000000000000000000000000000000600052601260045260246000fd5b6000601f19601f8301169050919050565b7f43616c6c6572206e6f74206f776e657200000000000000000000000000000000600082015250565b7f696e76616c696420616d6f756e74000000000000000000000000000000000000600082015250565b7f426f74682074696d657374616d702063616e6e6f742062652030000000000000600082015250565b7f416464726573733a20696e73756666696369656e742062616c616e636520666f60008201527f722063616c6c0000000000000000000000000000000000000000000000000000602082015250565b7f416d6f756e74206578636565647320746f74616c20616d6f756e7420746f207260008201527f6169736500000000000000000000000000000000000000000000000000000000602082015250565b7f4669786564506f696e743a3a6672616374696f6e3a206469766973696f6e206260008201527f79207a65726f0000000000000000000000000000000000000000000000000000602082015250565b7f53616c6520436f6e747261637420697320496e61637469766500000000000000600082015250565b7f70726f6a656374206e6f74206c69766500000000000000000000000000000000600082015250565b7f46756c6c4d6174683a3a6d756c4469763a206f766572666c6f77000000000000600082015250565b7f4669786564506f696e743a3a6672616374696f6e3a206f766572666c6f770000600082015250565b7f70726f6a6563742068617320656e646564000000000000000000000000000000600082015250565b7f416464726573733a2063616c6c20746f206e6f6e2d636f6e7472616374000000600082015250565b7f43616c6c657220496e76616c6964000000000000000000000000000000000000600082015250565b7f4e6f204e66742070726573656e7420666f722074686520757365720000000000600082015250565b7f5361666545524332303a204552433230206f7065726174696f6e20646964206e60008201527f6f74207375636365656400000000000000000000000000000000000000000000602082015250565b61292881612526565b811461293357600080fd5b50565b61293f81612538565b811461294a57600080fd5b50565b61295681612564565b811461296157600080fd5b50565b61296d8161256e565b811461297857600080fd5b5056fea264697066735822122013f1de8552d76b768d8991284086d1b2ba2ed3665c4df132ddfd19b3fa880fca64736f6c63430008040033",
  "linkReferences": {},
  "deployedLinkReferences": {}
}