{
  "_format": "hh-sol-artifact-1",
  "contractName": "PrivateSale",
  "sourceName": "contracts/PrivateSale.sol",
  "abi": [
    {
      "inputs": [
        {
          "internalType": "address",
          "name": "tokenAdd_",
          "type": "address"
        },
        {
          "internalType": "address",
          "name": "principal_",
          "type": "address"
        },
        {
          "internalType": "uint256",
          "name": "price_",
          "type": "uint256"
        },
        {
          "internalType": "uint256",
          "name": "totalAmountToRaise_",
          "type": "uint256"
        },
        {
          "internalType": "uint256",
          "name": "totalTokenSupply_",
          "type": "uint256"
        },
        {
          "internalType": "address",
          "name": "nftAddress_",
          "type": "address"
        },
        {
          "internalType": "uint256",
          "name": "maxTokenPerUser_",
          "type": "uint256"
        },
        {
          "internalType": "uint32",
          "name": "startTime_",
          "type": "uint32"
        },
        {
          "internalType": "uint32",
          "name": "endTime_",
          "type": "uint32"
        },
        {
          "internalType": "string",
          "name": "ipfsId_",
          "type": "string"
        }
      ],
      "stateMutability": "nonpayable",
      "type": "constructor"
    },
    {
      "inputs": [],
      "name": "admin",
      "outputs": [
        {
          "internalType": "address",
          "name": "",
          "type": "address"
        }
      ],
      "stateMutability": "view",
      "type": "function"
    },
    {
      "inputs": [
        {
          "internalType": "bool",
          "name": "status",
          "type": "bool"
        }
      ],
      "name": "changeContractStatus",
      "outputs": [],
      "stateMutability": "nonpayable",
      "type": "function"
    },
    {
      "inputs": [],
      "name": "contractStatus",
      "outputs": [
        {
          "internalType": "bool",
          "name": "",
          "type": "bool"
        }
      ],
      "stateMutability": "view",
      "type": "function"
    },
    {
      "inputs": [],
      "name": "endTimestamp",
      "outputs": [
        {
          "internalType": "uint32",
          "name": "",
          "type": "uint32"
        }
      ],
      "stateMutability": "view",
      "type": "function"
    },
    {
      "inputs": [],
      "name": "getAmountInfo",
      "outputs": [
        {
          "internalType": "uint256",
          "name": "totalAmountToRaise_",
          "type": "uint256"
        },
        {
          "internalType": "uint256",
          "name": "totalAmountRaised_",
          "type": "uint256"
        }
      ],
      "stateMutability": "view",
      "type": "function"
    },
    {
      "inputs": [],
      "name": "getIpfsId",
      "outputs": [
        {
          "internalType": "string",
          "name": "",
          "type": "string"
        }
      ],
      "stateMutability": "view",
      "type": "function"
    },
    {
      "inputs": [],
      "name": "getNFTAddress",
      "outputs": [
        {
          "internalType": "address",
          "name": "",
          "type": "address"
        }
      ],
      "stateMutability": "view",
      "type": "function"
    },
    {
      "inputs": [],
      "name": "getProjectDetails",
      "outputs": [
        {
          "internalType": "address",
          "name": "projectToken_",
          "type": "address"
        },
        {
          "internalType": "address",
          "name": "principalToken_",
          "type": "address"
        },
        {
          "internalType": "string",
          "name": "ipfsId_",
          "type": "string"
        },
        {
          "internalType": "bool",
          "name": "contractStatus_",
          "type": "bool"
        }
      ],
      "stateMutability": "view",
      "type": "function"
    },
    {
      "inputs": [],
      "name": "getProjectTimeInfo",
      "outputs": [
        {
          "internalType": "uint32",
          "name": "startTimestamp_",
          "type": "uint32"
        },
        {
          "internalType": "uint32",
          "name": "endTimestamp_",
          "type": "uint32"
        }
      ],
      "stateMutability": "view",
      "type": "function"
    },
    {
      "inputs": [],
      "name": "getProjectTokenAddress",
      "outputs": [
        {
          "internalType": "address",
          "name": "",
          "type": "address"
        }
      ],
      "stateMutability": "view",
      "type": "function"
    },
    {
      "inputs": [],
      "name": "getTokenInfo",
      "outputs": [
        {
          "internalType": "uint256",
          "name": "totalTokenSupply_",
          "type": "uint256"
        },
        {
          "internalType": "address",
          "name": "projectToken_",
          "type": "address"
        },
        {
          "internalType": "uint256",
          "name": "tokenPrice_",
          "type": "uint256"
        }
      ],
      "stateMutability": "view",
      "type": "function"
    },
    {
      "inputs": [
        {
          "internalType": "address",
          "name": "owner_",
          "type": "address"
        },
        {
          "internalType": "address",
          "name": "admin_",
          "type": "address"
        }
      ],
      "name": "initialize",
      "outputs": [],
      "stateMutability": "nonpayable",
      "type": "function"
    },
    {
      "inputs": [],
      "name": "maxTokenPerUser",
      "outputs": [
        {
          "internalType": "uint256",
          "name": "",
          "type": "uint256"
        }
      ],
      "stateMutability": "view",
      "type": "function"
    },
    {
      "inputs": [],
      "name": "owner",
      "outputs": [
        {
          "internalType": "address",
          "name": "",
          "type": "address"
        }
      ],
      "stateMutability": "view",
      "type": "function"
    },
    {
      "inputs": [
        {
          "internalType": "address",
          "name": "to_",
          "type": "address"
        },
        {
          "internalType": "uint256",
          "name": "amount",
          "type": "uint256"
        }
      ],
      "name": "participate",
      "outputs": [],
      "stateMutability": "nonpayable",
      "type": "function"
    },
    {
      "inputs": [],
      "name": "price",
      "outputs": [
        {
          "internalType": "uint256",
          "name": "",
          "type": "uint256"
        }
      ],
      "stateMutability": "view",
      "type": "function"
    },
    {
      "inputs": [],
      "name": "projectId",
      "outputs": [
        {
          "internalType": "uint32",
          "name": "",
          "type": "uint32"
        }
      ],
      "stateMutability": "view",
      "type": "function"
    },
    {
      "inputs": [
        {
          "internalType": "address",
          "name": "nftTokenAddress_",
          "type": "address"
        }
      ],
      "name": "setNftAddress",
      "outputs": [
        {
          "internalType": "address",
          "name": "",
          "type": "address"
        }
      ],
      "stateMutability": "nonpayable",
      "type": "function"
    },
    {
      "inputs": [
        {
          "internalType": "uint32",
          "name": "startTime_",
          "type": "uint32"
        },
        {
          "internalType": "uint32",
          "name": "endTime_",
          "type": "uint32"
        }
      ],
      "name": "setTimeInfo",
      "outputs": [],
      "stateMutability": "nonpayable",
      "type": "function"
    },
    {
      "inputs": [],
      "name": "startTimestamp",
      "outputs": [
        {
          "internalType": "uint32",
          "name": "",
          "type": "uint32"
        }
      ],
      "stateMutability": "view",
      "type": "function"
    },
    {
      "inputs": [],
      "name": "totalAmountRaised",
      "outputs": [
        {
          "internalType": "uint256",
          "name": "",
          "type": "uint256"
        }
      ],
      "stateMutability": "view",
      "type": "function"
    },
    {
      "inputs": [],
      "name": "totalAmountToRaise",
      "outputs": [
        {
          "internalType": "uint256",
          "name": "",
          "type": "uint256"
        }
      ],
      "stateMutability": "view",
      "type": "function"
    },
    {
      "inputs": [],
      "name": "totalParticipatedUser",
      "outputs": [
        {
          "internalType": "uint32",
          "name": "",
          "type": "uint32"
        }
      ],
      "stateMutability": "view",
      "type": "function"
    },
    {
      "inputs": [],
      "name": "totalTokenSupply",
      "outputs": [
        {
          "internalType": "uint256",
          "name": "",
          "type": "uint256"
        }
      ],
      "stateMutability": "view",
      "type": "function"
    },
    {
      "inputs": [
        {
          "internalType": "address",
          "name": "",
          "type": "address"
        }
      ],
      "name": "userToTokenAmount",
      "outputs": [
        {
          "internalType": "uint256",
          "name": "",
          "type": "uint256"
        }
      ],
      "stateMutability": "view",
      "type": "function"
    },
    {
      "inputs": [],
      "name": "withdrawRaisedAmount",
      "outputs": [
        {
          "internalType": "uint256",
          "name": "",
          "type": "uint256"
        }
      ],
      "stateMutability": "nonpayable",
      "type": "function"
    },
    {
      "inputs": [
        {
          "internalType": "address",
          "name": "to_",
          "type": "address"
        }
      ],
      "name": "withdrawRemainingTokens",
      "outputs": [
        {
          "internalType": "uint256",
          "name": "",
          "type": "uint256"
        }
      ],
      "stateMutability": "nonpayable",
      "type": "function"
    },
    {
      "stateMutability": "payable",
      "type": "receive"
    }
  ],
  "bytecode": "0x60806040523480156200001157600080fd5b50604051620035d6380380620035d6833981810160405281019062000037919062000344565b33600b60006101000a81548173ffffffffffffffffffffffffffffffffffffffff021916908373ffffffffffffffffffffffffffffffffffffffff16021790555089600c60006101000a81548173ffffffffffffffffffffffffffffffffffffffff021916908373ffffffffffffffffffffffffffffffffffffffff16021790555088600d60006101000a81548173ffffffffffffffffffffffffffffffffffffffff021916908373ffffffffffffffffffffffffffffffffffffffff1602179055508760058190555086600481905550856002819055508360078190555084600e60006101000a81548173ffffffffffffffffffffffffffffffffffffffff021916908373ffffffffffffffffffffffffffffffffffffffff16021790555082600660046101000a81548163ffffffff021916908363ffffffff16021790555081600660086101000a81548163ffffffff021916908363ffffffff1602179055508060099080519060200190620001b1929190620001dd565b506001600860006101000a81548160ff0219169083151502179055505050505050505050505062000659565b828054620001eb9062000530565b90600052602060002090601f0160209004810192826200020f57600085556200025b565b82601f106200022a57805160ff19168380011785556200025b565b828001600101855582156200025b579182015b828111156200025a5782518255916020019190600101906200023d565b5b5090506200026a91906200026e565b5090565b5b80821115620002895760008160009055506001016200026f565b5090565b6000620002a46200029e8462000476565b6200044d565b905082815260208101848484011115620002bd57600080fd5b620002ca848285620004fa565b509392505050565b600081519050620002e3816200060b565b92915050565b600082601f830112620002fb57600080fd5b81516200030d8482602086016200028d565b91505092915050565b600081519050620003278162000625565b92915050565b6000815190506200033e816200063f565b92915050565b6000806000806000806000806000806101408b8d0312156200036557600080fd5b6000620003758d828e01620002d2565b9a50506020620003888d828e01620002d2565b99505060406200039b8d828e0162000316565b9850506060620003ae8d828e0162000316565b9750506080620003c18d828e0162000316565b96505060a0620003d48d828e01620002d2565b95505060c0620003e78d828e0162000316565b94505060e0620003fa8d828e016200032d565b9350506101006200040e8d828e016200032d565b9250506101208b015167ffffffffffffffff8111156200042d57600080fd5b6200043b8d828e01620002e9565b9150509295989b9194979a5092959850565b6000620004596200046c565b905062000467828262000566565b919050565b6000604051905090565b600067ffffffffffffffff821115620004945762000493620005cb565b5b6200049f82620005fa565b9050602081019050919050565b6000620004b982620004c0565b9050919050565b600073ffffffffffffffffffffffffffffffffffffffff82169050919050565b6000819050919050565b600063ffffffff82169050919050565b60005b838110156200051a578082015181840152602081019050620004fd565b838111156200052a576000848401525b50505050565b600060028204905060018216806200054957607f821691505b6020821081141562000560576200055f6200059c565b5b50919050565b6200057182620005fa565b810181811067ffffffffffffffff82111715620005935762000592620005cb565b5b80604052505050565b7f4e487b7100000000000000000000000000000000000000000000000000000000600052602260045260246000fd5b7f4e487b7100000000000000000000000000000000000000000000000000000000600052604160045260246000fd5b6000601f19601f8301169050919050565b6200061681620004ac565b81146200062257600080fd5b50565b6200063081620004e0565b81146200063c57600080fd5b50565b6200064a81620004ea565b81146200065657600080fd5b50565b612f6d80620006696000396000f3fe6080604052600436106101a05760003560e01c80639f0f8154116100ec578063c6ee20d21161008a578063f851a44011610064578063f851a440146105ab578063f9af1a98146105d6578063fb8130ec14610613578063ff3a9c7e1461063c576101a7565b8063c6ee20d214610529578063e453c80414610554578063e6fd48bc14610580576101a7565b8063a85adeab116100c6578063a85adeab1461047d578063abb1dc44146104a8578063b64afbe5146104d5578063b9618478146104fe576101a7565b80639f0f8154146103fb578063a035b1fe14610427578063a0a7a18314610452576101a7565b80634c664d3e1161015957806378d185331161013357806378d185331461034f5780637cbb7b461461037a5780638da5cb5b146103a55780639ebe2d0a146103d0576101a7565b80634c664d3e146102bc57806350c50710146102e75780635affbd9714610312576101a7565b80630b102d1a146101ac5780631ca8b6cb146101e9578063242d7dba146102145780633fafa1271461023f578063485cc9551461026a5780634b6c36b514610293576101a7565b366101a757005b600080fd5b3480156101b857600080fd5b506101d360048036038101906101ce91906120cf565b61066a565b6040516101e09190612514565b60405180910390f35b3480156101f557600080fd5b506101fe6107a1565b60405161020b9190612818565b60405180910390f35b34801561022057600080fd5b506102296107a7565b6040516102369190612818565b60405180910390f35b34801561024b57600080fd5b506102546107ad565b6040516102619190612893565b60405180910390f35b34801561027657600080fd5b50610291600480360381019061028c91906120f8565b6107c1565b005b34801561029f57600080fd5b506102ba60048036038101906102b59190612170565b6108bb565b005b3480156102c857600080fd5b506102d16109c0565b6040516102de91906125f6565b60405180910390f35b3480156102f357600080fd5b506102fc610a52565b6040516103099190612818565b60405180910390f35b34801561031e57600080fd5b50610339600480360381019061033491906120cf565b610a58565b6040516103469190612818565b60405180910390f35b34801561035b57600080fd5b50610364610c47565b6040516103719190612818565b60405180910390f35b34801561038657600080fd5b5061038f610da6565b60405161039c9190612514565b60405180910390f35b3480156103b157600080fd5b506103ba610dd0565b6040516103c79190612514565b60405180910390f35b3480156103dc57600080fd5b506103e5610dfa565b6040516103f29190612818565b60405180910390f35b34801561040757600080fd5b50610410610e00565b60405161041e92919061286a565b60405180910390f35b34801561043357600080fd5b5061043c610e11565b6040516104499190612818565b60405180910390f35b34801561045e57600080fd5b50610467610e17565b6040516104749190612893565b60405180910390f35b34801561048957600080fd5b50610492610e2d565b60405161049f9190612893565b60405180910390f35b3480156104b457600080fd5b506104bd610e43565b6040516104cc93929190612833565b60405180910390f35b3480156104e157600080fd5b506104fc60048036038101906104f79190612134565b610e7c565b005b34801561050a57600080fd5b5061051361129f565b6040516105209190612514565b60405180910390f35b34801561053557600080fd5b5061053e6112c9565b60405161054b91906125db565b60405180910390f35b34801561056057600080fd5b506105696112dc565b6040516105779291906128ae565b60405180910390f35b34801561058c57600080fd5b5061059561130d565b6040516105a29190612893565b60405180910390f35b3480156105b757600080fd5b506105c0611323565b6040516105cd9190612514565b60405180910390f35b3480156105e257600080fd5b506105fd60048036038101906105f891906120cf565b61134d565b60405161060a9190612818565b60405180910390f35b34801561061f57600080fd5b5061063a600480360381019061063591906121eb565b611365565b005b34801561064857600080fd5b5061065161150d565b604051610661949392919061252f565b60405180910390f35b6000600b60009054906101000a900473ffffffffffffffffffffffffffffffffffffffff1673ffffffffffffffffffffffffffffffffffffffff163373ffffffffffffffffffffffffffffffffffffffff16146106fc576040517f08c379a00000000000000000000000000000000000000000000000000000000081526004016106f390612618565b60405180910390fd5b600073ffffffffffffffffffffffffffffffffffffffff168273ffffffffffffffffffffffffffffffffffffffff16141561073657600080fd5b81600e60006101000a81548173ffffffffffffffffffffffffffffffffffffffff021916908373ffffffffffffffffffffffffffffffffffffffff160217905550600e60009054906101000a900473ffffffffffffffffffffffffffffffffffffffff169050919050565b60025481565b60035481565b60008054906101000a900463ffffffff1681565b600073ffffffffffffffffffffffffffffffffffffffff168273ffffffffffffffffffffffffffffffffffffffff1614156107fb57600080fd5b600073ffffffffffffffffffffffffffffffffffffffff168173ffffffffffffffffffffffffffffffffffffffff16141561083557600080fd5b81600b60006101000a81548173ffffffffffffffffffffffffffffffffffffffff021916908373ffffffffffffffffffffffffffffffffffffffff16021790555080600a60006101000a81548173ffffffffffffffffffffffffffffffffffffffff021916908373ffffffffffffffffffffffffffffffffffffffff1602179055505050565b3373ffffffffffffffffffffffffffffffffffffffff16600b60009054906101000a900473ffffffffffffffffffffffffffffffffffffffff1673ffffffffffffffffffffffffffffffffffffffff16148061096457503373ffffffffffffffffffffffffffffffffffffffff16600a60009054906101000a900473ffffffffffffffffffffffffffffffffffffffff1673ffffffffffffffffffffffffffffffffffffffff16145b6109a3576040517f08c379a000000000000000000000000000000000000000000000000000000000815260040161099a906127b8565b60405180910390fd5b80600860006101000a81548160ff02191690831515021790555050565b6060600980546109cf90612ae3565b80601f01602080910402602001604051908101604052809291908181526020018280546109fb90612ae3565b8015610a485780601f10610a1d57610100808354040283529160200191610a48565b820191906000526020600020905b815481529060010190602001808311610a2b57829003601f168201915b5050505050905090565b60075481565b60003373ffffffffffffffffffffffffffffffffffffffff16600b60009054906101000a900473ffffffffffffffffffffffffffffffffffffffff1673ffffffffffffffffffffffffffffffffffffffff161480610b0357503373ffffffffffffffffffffffffffffffffffffffff16600a60009054906101000a900473ffffffffffffffffffffffffffffffffffffffff1673ffffffffffffffffffffffffffffffffffffffff16145b610b42576040517f08c379a0000000000000000000000000000000000000000000000000000000008152600401610b39906127b8565b60405180910390fd5b6000600c60009054906101000a900473ffffffffffffffffffffffffffffffffffffffff1673ffffffffffffffffffffffffffffffffffffffff166370a08231306040518263ffffffff1660e01b8152600401610b9f9190612514565b60206040518083038186803b158015610bb757600080fd5b505afa158015610bcb573d6000803e3d6000fd5b505050506040513d601f19601f82011682018060405250810190610bef91906121c2565b9050610c3e8382600c60009054906101000a900473ffffffffffffffffffffffffffffffffffffffff1673ffffffffffffffffffffffffffffffffffffffff166116039092919063ffffffff16565b80915050919050565b60003373ffffffffffffffffffffffffffffffffffffffff16600b60009054906101000a900473ffffffffffffffffffffffffffffffffffffffff1673ffffffffffffffffffffffffffffffffffffffff1614610ca357600080fd5b6000600c60009054906101000a900473ffffffffffffffffffffffffffffffffffffffff1673ffffffffffffffffffffffffffffffffffffffff166370a08231306040518263ffffffff1660e01b8152600401610d009190612514565b60206040518083038186803b158015610d1857600080fd5b505afa158015610d2c573d6000803e3d6000fd5b505050506040513d601f19601f82011682018060405250810190610d5091906121c2565b9050610d9f3382600d60009054906101000a900473ffffffffffffffffffffffffffffffffffffffff1673ffffffffffffffffffffffffffffffffffffffff166116039092919063ffffffff16565b8091505090565b6000600c60009054906101000a900473ffffffffffffffffffffffffffffffffffffffff16905090565b6000600b60009054906101000a900473ffffffffffffffffffffffffffffffffffffffff16905090565b60045481565b600080600354905060045491509091565b60055481565b600660009054906101000a900463ffffffff1681565b600660089054906101000a900463ffffffff1681565b60008060006002549250600c60009054906101000a900473ffffffffffffffffffffffffffffffffffffffff1691506005549050909192565b600860009054906101000a900460ff16610ecb576040517f08c379a0000000000000000000000000000000000000000000000000000000008152600401610ec2906126f8565b60405180910390fd5b60008111610f0e576040517f08c379a0000000000000000000000000000000000000000000000000000000008152600401610f0590612638565b60405180910390fd5b42600660049054906101000a900463ffffffff1663ffffffff1610610f68576040517f08c379a0000000000000000000000000000000000000000000000000000000008152600401610f5f90612718565b60405180910390fd5b42600660089054906101000a900463ffffffff1663ffffffff1611610fc2576040517f08c379a0000000000000000000000000000000000000000000000000000000008152600401610fb990612778565b60405180910390fd5b600454610fda8260035461168990919063ffffffff16565b111561101b576040517f08c379a0000000000000000000000000000000000000000000000000000000008152600401611012906126b8565b60405180910390fd5b6000611026826116ac565b905060075461107d82600160003373ffffffffffffffffffffffffffffffffffffffff1673ffffffffffffffffffffffffffffffffffffffff1681526020019081526020016000205461168990919063ffffffff16565b11156110be576040517f08c379a00000000000000000000000000000000000000000000000000000000081526004016110b590612698565b60405180910390fd5b6110c7836116c9565b6000600160008573ffffffffffffffffffffffffffffffffffffffff1673ffffffffffffffffffffffffffffffffffffffff168152602001908152602001600020541415611150576001600660008282829054906101000a900463ffffffff16611131919061295f565b92506101000a81548163ffffffff021916908363ffffffff1602179055505b81600360008282546111629190612909565b925050819055506111bb81600160008673ffffffffffffffffffffffffffffffffffffffff1673ffffffffffffffffffffffffffffffffffffffff1681526020019081526020016000205461168990919063ffffffff16565b600160008573ffffffffffffffffffffffffffffffffffffffff1673ffffffffffffffffffffffffffffffffffffffff1681526020019081526020016000208190555061124d833084600d60009054906101000a900473ffffffffffffffffffffffffffffffffffffffff1673ffffffffffffffffffffffffffffffffffffffff166117b9909392919063ffffffff16565b61129a8382600c60009054906101000a900473ffffffffffffffffffffffffffffffffffffffff1673ffffffffffffffffffffffffffffffffffffffff166116039092919063ffffffff16565b505050565b6000600e60009054906101000a900473ffffffffffffffffffffffffffffffffffffffff16905090565b600860009054906101000a900460ff1681565b600080600660049054906101000a900463ffffffff169150600660089054906101000a900463ffffffff1690509091565b600660049054906101000a900463ffffffff1681565b6000600a60009054906101000a900473ffffffffffffffffffffffffffffffffffffffff16905090565b60016020528060005260406000206000915090505481565b3373ffffffffffffffffffffffffffffffffffffffff16600b60009054906101000a900473ffffffffffffffffffffffffffffffffffffffff1673ffffffffffffffffffffffffffffffffffffffff16148061140e57503373ffffffffffffffffffffffffffffffffffffffff16600a60009054906101000a900473ffffffffffffffffffffffffffffffffffffffff1673ffffffffffffffffffffffffffffffffffffffff16145b61144d576040517f08c379a0000000000000000000000000000000000000000000000000000000008152600401611444906127b8565b60405180910390fd5b60008263ffffffff1614158061146a575060008163ffffffff1614155b6114a9576040517f08c379a00000000000000000000000000000000000000000000000000000000081526004016114a090612658565b60405180910390fd5b60008263ffffffff16146114d95781600660046101000a81548163ffffffff021916908363ffffffff1602179055505b60008163ffffffff16146115095780600660086101000a81548163ffffffff021916908363ffffffff1602179055505b5050565b60008060606000600d60009054906101000a900473ffffffffffffffffffffffffffffffffffffffff169250600c60009054906101000a900473ffffffffffffffffffffffffffffffffffffffff1693506009805461156b90612ae3565b80601f016020809104026020016040519081016040528092919081815260200182805461159790612ae3565b80156115e45780601f106115b9576101008083540402835291602001916115e4565b820191906000526020600020905b8154815290600101906020018083116115c757829003601f168201915b50505050509150600860009054906101000a900460ff16905090919293565b6116848363a9059cbb60e01b84846040516024016116229291906125b2565b604051602081830303815290604052907bffffffffffffffffffffffffffffffffffffffffffffffffffffffff19166020820180517bffffffffffffffffffffffffffffffffffffffffffffffffffffffff8381831617835250505050611842565b505050565b60008282846116989190612909565b91508110156116a657600080fd5b92915050565b60006116c26116bd83600554611909565b611b10565b9050919050565b6000600e60009054906101000a900473ffffffffffffffffffffffffffffffffffffffff1673ffffffffffffffffffffffffffffffffffffffff166370a08231836040518263ffffffff1660e01b81526004016117269190612514565b60206040518083038186803b15801561173e57600080fd5b505afa158015611752573d6000803e3d6000fd5b505050506040513d601f19601f8201168201806040525081019061177691906121c2565b116117b6576040517f08c379a00000000000000000000000000000000000000000000000000000000081526004016117ad906127d8565b60405180910390fd5b50565b61183c846323b872dd60e01b8585856040516024016117da9392919061257b565b604051602081830303815290604052907bffffffffffffffffffffffffffffffffffffffffffffffffffffffff19166020820180517bffffffffffffffffffffffffffffffffffffffffffffffffffffffff8381831617835250505050611842565b50505050565b60006118a4826040518060400160405280602081526020017f5361666545524332303a206c6f772d6c6576656c2063616c6c206661696c65648152508573ffffffffffffffffffffffffffffffffffffffff16611b4e9092919063ffffffff16565b905060008151111561190457808060200190518101906118c49190612199565b611903576040517f08c379a00000000000000000000000000000000000000000000000000000000081526004016118fa906127f8565b60405180910390fd5b5b505050565b611911612020565b60008211611954576040517f08c379a000000000000000000000000000000000000000000000000000000000815260040161194b906126d8565b60405180910390fd5b600083141561199257604051806020016040528060007bffffffffffffffffffffffffffffffffffffffffffffffffffffffff168152509050611b0a565b71ffffffffffffffffffffffffffffffffffff80168311611a5a57600082607060ff1685901b6119c29190612999565b90507bffffffffffffffffffffffffffffffffffffffffffffffffffffffff8016811115611a25576040517f08c379a0000000000000000000000000000000000000000000000000000000008152600401611a1c90612758565b60405180910390fd5b6040518060200160405280827bffffffffffffffffffffffffffffffffffffffffffffffffffffffff16815250915050611b0a565b6000611a76846e01000000000000000000000000000085611b66565b90507bffffffffffffffffffffffffffffffffffffffffffffffffffffffff8016811115611ad9576040517f08c379a0000000000000000000000000000000000000000000000000000000008152600401611ad090612758565b60405180910390fd5b6040518060200160405280827bffffffffffffffffffffffffffffffffffffffffffffffffffffffff168152509150505b92915050565b60006612725dd1d243ab82600001517bffffffffffffffffffffffffffffffffffffffffffffffffffffffff16611b479190612999565b9050919050565b6060611b5d8484600085611c34565b90509392505050565b6000806000611b758686611d48565b9150915060008480611bb0577f4e487b7100000000000000000000000000000000000000000000000000000000600052601260045260246000fd5b868809905082811115611bcd57600182611bca9190612a24565b91505b8083611bd99190612a24565b9250848210611c1d576040517f08c379a0000000000000000000000000000000000000000000000000000000008152600401611c1490612738565b60405180910390fd5b611c28838387611de3565b93505050509392505050565b606082471015611c79576040517f08c379a0000000000000000000000000000000000000000000000000000000008152600401611c7090612678565b60405180910390fd5b611c8285611f96565b611cc1576040517f08c379a0000000000000000000000000000000000000000000000000000000008152600401611cb890612798565b60405180910390fd5b6000808673ffffffffffffffffffffffffffffffffffffffff168587604051611cea91906124fd565b60006040518083038185875af1925050503d8060008114611d27576040519150601f19603f3d011682016040523d82523d6000602084013e611d2c565b606091505b5091509150611d3c828286611fb9565b92505050949350505050565b60008060007fffffffffffffffffffffffffffffffffffffffffffffffffffffffffffffffff80611da2577f4e487b7100000000000000000000000000000000000000000000000000000000600052601260045260246000fd5b84860990508385611db391906129ca565b92508281611dc19190612a24565b915082811015611ddb57600182611dd89190612a24565b91505b509250929050565b60008060018319611df49190612909565b831690508083611e049190612999565b92508085611e129190612999565b945060018160018319611e259190612909565b611e2f9190612999565b611e399190612909565b84611e4491906129ca565b85611e4f9190612909565b94506000600190508084611e6391906129ca565b6002611e6f9190612a24565b81611e7a91906129ca565b90508084611e8891906129ca565b6002611e949190612a24565b81611e9f91906129ca565b90508084611ead91906129ca565b6002611eb99190612a24565b81611ec491906129ca565b90508084611ed291906129ca565b6002611ede9190612a24565b81611ee991906129ca565b90508084611ef791906129ca565b6002611f039190612a24565b81611f0e91906129ca565b90508084611f1c91906129ca565b6002611f289190612a24565b81611f3391906129ca565b90508084611f4191906129ca565b6002611f4d9190612a24565b81611f5891906129ca565b90508084611f6691906129ca565b6002611f729190612a24565b81611f7d91906129ca565b90508086611f8b91906129ca565b925050509392505050565b6000808273ffffffffffffffffffffffffffffffffffffffff163b119050919050565b60608315611fc957829050612019565b600083511115611fdc5782518084602001fd5b816040517f08c379a000000000000000000000000000000000000000000000000000000000815260040161201091906125f6565b60405180910390fd5b9392505050565b604051806020016040528060007bffffffffffffffffffffffffffffffffffffffffffffffffffffffff1681525090565b60008135905061206081612edb565b92915050565b60008135905061207581612ef2565b92915050565b60008151905061208a81612ef2565b92915050565b60008135905061209f81612f09565b92915050565b6000815190506120b481612f09565b92915050565b6000813590506120c981612f20565b92915050565b6000602082840312156120e157600080fd5b60006120ef84828501612051565b91505092915050565b6000806040838503121561210b57600080fd5b600061211985828601612051565b925050602061212a85828601612051565b9150509250929050565b6000806040838503121561214757600080fd5b600061215585828601612051565b925050602061216685828601612090565b9150509250929050565b60006020828403121561218257600080fd5b600061219084828501612066565b91505092915050565b6000602082840312156121ab57600080fd5b60006121b98482850161207b565b91505092915050565b6000602082840312156121d457600080fd5b60006121e2848285016120a5565b91505092915050565b600080604083850312156121fe57600080fd5b600061220c858286016120ba565b925050602061221d858286016120ba565b9150509250929050565b61223081612a58565b82525050565b61223f81612a6a565b82525050565b6000612250826128d7565b61225a81856128ed565b935061226a818560208601612ab0565b80840191505092915050565b6000612281826128e2565b61228b81856128f8565b935061229b818560208601612ab0565b6122a481612ba2565b840191505092915050565b60006122bc6010836128f8565b91506122c782612bb3565b602082019050919050565b60006122df600e836128f8565b91506122ea82612bdc565b602082019050919050565b6000612302601a836128f8565b915061230d82612c05565b602082019050919050565b60006123256026836128f8565b915061233082612c2e565b604082019050919050565b60006123486013836128f8565b915061235382612c7d565b602082019050919050565b600061236b6024836128f8565b915061237682612ca6565b604082019050919050565b600061238e6026836128f8565b915061239982612cf5565b604082019050919050565b60006123b16019836128f8565b91506123bc82612d44565b602082019050919050565b60006123d46010836128f8565b91506123df82612d6d565b602082019050919050565b60006123f7601a836128f8565b915061240282612d96565b602082019050919050565b600061241a601e836128f8565b915061242582612dbf565b602082019050919050565b600061243d6011836128f8565b915061244882612de8565b602082019050919050565b6000612460601d836128f8565b915061246b82612e11565b602082019050919050565b6000612483600e836128f8565b915061248e82612e3a565b602082019050919050565b60006124a6601b836128f8565b91506124b182612e63565b602082019050919050565b60006124c9602a836128f8565b91506124d482612e8c565b604082019050919050565b6124e881612a96565b82525050565b6124f781612aa0565b82525050565b60006125098284612245565b915081905092915050565b60006020820190506125296000830184612227565b92915050565b60006080820190506125446000830187612227565b6125516020830186612227565b81810360408301526125638185612276565b90506125726060830184612236565b95945050505050565b60006060820190506125906000830186612227565b61259d6020830185612227565b6125aa60408301846124df565b949350505050565b60006040820190506125c76000830185612227565b6125d460208301846124df565b9392505050565b60006020820190506125f06000830184612236565b92915050565b600060208201905081810360008301526126108184612276565b905092915050565b60006020820190508181036000830152612631816122af565b9050919050565b60006020820190508181036000830152612651816122d2565b9050919050565b60006020820190508181036000830152612671816122f5565b9050919050565b6000602082019050818103600083015261269181612318565b9050919050565b600060208201905081810360008301526126b18161233b565b9050919050565b600060208201905081810360008301526126d18161235e565b9050919050565b600060208201905081810360008301526126f181612381565b9050919050565b60006020820190508181036000830152612711816123a4565b9050919050565b60006020820190508181036000830152612731816123c7565b9050919050565b60006020820190508181036000830152612751816123ea565b9050919050565b600060208201905081810360008301526127718161240d565b9050919050565b6000602082019050818103600083015261279181612430565b9050919050565b600060208201905081810360008301526127b181612453565b9050919050565b600060208201905081810360008301526127d181612476565b9050919050565b600060208201905081810360008301526127f181612499565b9050919050565b60006020820190508181036000830152612811816124bc565b9050919050565b600060208201905061282d60008301846124df565b92915050565b600060608201905061284860008301866124df565b6128556020830185612227565b61286260408301846124df565b949350505050565b600060408201905061287f60008301856124df565b61288c60208301846124df565b9392505050565b60006020820190506128a860008301846124ee565b92915050565b60006040820190506128c360008301856124ee565b6128d060208301846124ee565b9392505050565b600081519050919050565b600081519050919050565b600081905092915050565b600082825260208201905092915050565b600061291482612a96565b915061291f83612a96565b9250827fffffffffffffffffffffffffffffffffffffffffffffffffffffffffffffffff0382111561295457612953612b15565b5b828201905092915050565b600061296a82612aa0565b915061297583612aa0565b92508263ffffffff0382111561298e5761298d612b15565b5b828201905092915050565b60006129a482612a96565b91506129af83612a96565b9250826129bf576129be612b44565b5b828204905092915050565b60006129d582612a96565b91506129e083612a96565b9250817fffffffffffffffffffffffffffffffffffffffffffffffffffffffffffffffff0483118215151615612a1957612a18612b15565b5b828202905092915050565b6000612a2f82612a96565b9150612a3a83612a96565b925082821015612a4d57612a4c612b15565b5b828203905092915050565b6000612a6382612a76565b9050919050565b60008115159050919050565b600073ffffffffffffffffffffffffffffffffffffffff82169050919050565b6000819050919050565b600063ffffffff82169050919050565b60005b83811015612ace578082015181840152602081019050612ab3565b83811115612add576000848401525b50505050565b60006002820490506001821680612afb57607f821691505b60208210811415612b0f57612b0e612b73565b5b50919050565b7f4e487b7100000000000000000000000000000000000000000000000000000000600052601160045260246000fd5b7f4e487b7100000000000000000000000000000000000000000000000000000000600052601260045260246000fd5b7f4e487b7100000000000000000000000000000000000000000000000000000000600052602260045260246000fd5b6000601f19601f8301169050919050565b7f43616c6c6572206e6f74206f776e657200000000000000000000000000000000600082015250565b7f696e76616c696420616d6f756e74000000000000000000000000000000000000600082015250565b7f426f74682074696d657374616d702063616e6e6f742062652030000000000000600082015250565b7f416464726573733a20696e73756666696369656e742062616c616e636520666f60008201527f722063616c6c0000000000000000000000000000000000000000000000000000602082015250565b7f546f6b656e20616d6f756e742065786365656400000000000000000000000000600082015250565b7f416d6f756e74206578636565647320746f74616c20616d6f756e7420746f207260008201527f6169736500000000000000000000000000000000000000000000000000000000602082015250565b7f4669786564506f696e743a3a6672616374696f6e3a206469766973696f6e206260008201527f79207a65726f0000000000000000000000000000000000000000000000000000602082015250565b7f53616c6520436f6e747261637420697320496e61637469766500000000000000600082015250565b7f70726f6a656374206e6f74206c69766500000000000000000000000000000000600082015250565b7f46756c6c4d6174683a3a6d756c4469763a206f766572666c6f77000000000000600082015250565b7f4669786564506f696e743a3a6672616374696f6e3a206f766572666c6f770000600082015250565b7f70726f6a6563742068617320656e646564000000000000000000000000000000600082015250565b7f416464726573733a2063616c6c20746f206e6f6e2d636f6e7472616374000000600082015250565b7f43616c6c657220496e76616c6964000000000000000000000000000000000000600082015250565b7f4e6f204e66742070726573656e7420666f722074686520757365720000000000600082015250565b7f5361666545524332303a204552433230206f7065726174696f6e20646964206e60008201527f6f74207375636365656400000000000000000000000000000000000000000000602082015250565b612ee481612a58565b8114612eef57600080fd5b50565b612efb81612a6a565b8114612f0657600080fd5b50565b612f1281612a96565b8114612f1d57600080fd5b50565b612f2981612aa0565b8114612f3457600080fd5b5056fea2646970667358221220662f5e5ef3152ae8761bad9071eae27b3489207ab04f5d0b2a8f78cb1e22751c64736f6c63430008040033",
  "linkReferences": {},
  "deployedLinkReferences": {}
}