{
  "_format": "hh-sol-artifact-1",
  "contractName": "PublicSale",
  "sourceName": "contracts/PublicSale.sol",
  "abi": [
    {
      "inputs": [
        {
          "internalType": "address",
          "name": "tokenAdd_",
          "type": "address"
        },
        {
          "internalType": "address",
          "name": "principal_",
          "type": "address"
        },
        {
          "internalType": "uint256",
          "name": "price_",
          "type": "uint256"
        },
        {
          "internalType": "uint256",
          "name": "totalAmountToRaise_",
          "type": "uint256"
        },
        {
          "internalType": "uint256",
          "name": "totalTokenSupply_",
          "type": "uint256"
        },
        {
          "internalType": "address",
          "name": "stakedTokenAddress_",
          "type": "address"
        },
        {
          "internalType": "uint256",
          "name": "maxTokenPerUser_",
          "type": "uint256"
        },
        {
          "internalType": "uint32",
          "name": "startTime_",
          "type": "uint32"
        },
        {
          "internalType": "uint32",
          "name": "endTime_",
          "type": "uint32"
        },
        {
          "internalType": "string",
          "name": "ipfsId_",
          "type": "string"
        }
      ],
      "stateMutability": "nonpayable",
      "type": "constructor"
    },
    {
      "inputs": [],
      "name": "admin",
      "outputs": [
        {
          "internalType": "address",
          "name": "",
          "type": "address"
        }
      ],
      "stateMutability": "view",
      "type": "function"
    },
    {
      "inputs": [
        {
          "internalType": "bool",
          "name": "status",
          "type": "bool"
        }
      ],
      "name": "changeContractStatus",
      "outputs": [],
      "stateMutability": "nonpayable",
      "type": "function"
    },
    {
      "inputs": [
        {
          "internalType": "address",
          "name": "to_",
          "type": "address"
        }
      ],
      "name": "checkMaxTokenForUser",
      "outputs": [
        {
          "internalType": "uint256",
          "name": "",
          "type": "uint256"
        }
      ],
      "stateMutability": "view",
      "type": "function"
    },
    {
      "inputs": [],
      "name": "contractStatus",
      "outputs": [
        {
          "internalType": "bool",
          "name": "",
          "type": "bool"
        }
      ],
      "stateMutability": "view",
      "type": "function"
    },
    {
      "inputs": [],
      "name": "endTimestamp",
      "outputs": [
        {
          "internalType": "uint32",
          "name": "",
          "type": "uint32"
        }
      ],
      "stateMutability": "view",
      "type": "function"
    },
    {
      "inputs": [],
      "name": "getAmountInfo",
      "outputs": [
        {
          "internalType": "uint256",
          "name": "totalAmountToRaise_",
          "type": "uint256"
        },
        {
          "internalType": "uint256",
          "name": "totalAmountRaised_",
          "type": "uint256"
        }
      ],
      "stateMutability": "view",
      "type": "function"
    },
    {
      "inputs": [],
      "name": "getIpfsId",
      "outputs": [
        {
          "internalType": "string",
          "name": "",
          "type": "string"
        }
      ],
      "stateMutability": "view",
      "type": "function"
    },
    {
      "inputs": [],
      "name": "getProjectDetails",
      "outputs": [
        {
          "internalType": "address",
          "name": "projectToken_",
          "type": "address"
        },
        {
          "internalType": "address",
          "name": "principalToken_",
          "type": "address"
        },
        {
          "internalType": "string",
          "name": "ipfsId_",
          "type": "string"
        },
        {
          "internalType": "bool",
          "name": "contractStatus_",
          "type": "bool"
        }
      ],
      "stateMutability": "view",
      "type": "function"
    },
    {
      "inputs": [],
      "name": "getProjectTimeInfo",
      "outputs": [
        {
          "internalType": "uint32",
          "name": "startTimestamp_",
          "type": "uint32"
        },
        {
          "internalType": "uint32",
          "name": "endTimestamp_",
          "type": "uint32"
        }
      ],
      "stateMutability": "view",
      "type": "function"
    },
    {
      "inputs": [],
      "name": "getProjectTokenAddress",
      "outputs": [
        {
          "internalType": "address",
          "name": "",
          "type": "address"
        }
      ],
      "stateMutability": "view",
      "type": "function"
    },
    {
      "inputs": [],
      "name": "getStakedTokenAddress",
      "outputs": [
        {
          "internalType": "address",
          "name": "",
          "type": "address"
        }
      ],
      "stateMutability": "view",
      "type": "function"
    },
    {
      "inputs": [],
      "name": "getTokenInfo",
      "outputs": [
        {
          "internalType": "uint256",
          "name": "totalTokenSupply_",
          "type": "uint256"
        },
        {
          "internalType": "address",
          "name": "projectToken_",
          "type": "address"
        },
        {
          "internalType": "uint256",
          "name": "tokenPrice_",
          "type": "uint256"
        }
      ],
      "stateMutability": "view",
      "type": "function"
    },
    {
      "inputs": [
        {
          "internalType": "address",
          "name": "owner_",
          "type": "address"
        },
        {
          "internalType": "address",
          "name": "admin_",
          "type": "address"
        }
      ],
      "name": "initialize",
      "outputs": [],
      "stateMutability": "nonpayable",
      "type": "function"
    },
    {
      "inputs": [],
      "name": "maxTokenPerUser",
      "outputs": [
        {
          "internalType": "uint256",
          "name": "",
          "type": "uint256"
        }
      ],
      "stateMutability": "view",
      "type": "function"
    },
    {
      "inputs": [],
      "name": "owner",
      "outputs": [
        {
          "internalType": "address",
          "name": "",
          "type": "address"
        }
      ],
      "stateMutability": "view",
      "type": "function"
    },
    {
      "inputs": [
        {
          "internalType": "address",
          "name": "to_",
          "type": "address"
        },
        {
          "internalType": "uint256",
          "name": "amount",
          "type": "uint256"
        }
      ],
      "name": "participate",
      "outputs": [],
      "stateMutability": "nonpayable",
      "type": "function"
    },
    {
      "inputs": [
        {
          "internalType": "uint256",
          "name": "amount",
          "type": "uint256"
        }
      ],
      "name": "payoutFor",
      "outputs": [
        {
          "internalType": "uint256",
          "name": "",
          "type": "uint256"
        }
      ],
      "stateMutability": "view",
      "type": "function"
    },
    {
      "inputs": [],
      "name": "price",
      "outputs": [
        {
          "internalType": "uint256",
          "name": "",
          "type": "uint256"
        }
      ],
      "stateMutability": "view",
      "type": "function"
    },
    {
      "inputs": [],
      "name": "projectId",
      "outputs": [
        {
          "internalType": "uint32",
          "name": "",
          "type": "uint32"
        }
      ],
      "stateMutability": "view",
      "type": "function"
    },
    {
      "inputs": [
        {
          "internalType": "address",
          "name": "stakeTokenAddress_",
          "type": "address"
        }
      ],
      "name": "setStakedTokenAddress",
      "outputs": [
        {
          "internalType": "address",
          "name": "",
          "type": "address"
        }
      ],
      "stateMutability": "nonpayable",
      "type": "function"
    },
    {
      "inputs": [
        {
          "internalType": "uint32",
          "name": "startTime_",
          "type": "uint32"
        },
        {
          "internalType": "uint32",
          "name": "endTime_",
          "type": "uint32"
        }
      ],
      "name": "setTimeInfo",
      "outputs": [],
      "stateMutability": "nonpayable",
      "type": "function"
    },
    {
      "inputs": [],
      "name": "startTimestamp",
      "outputs": [
        {
          "internalType": "uint32",
          "name": "",
          "type": "uint32"
        }
      ],
      "stateMutability": "view",
      "type": "function"
    },
    {
      "inputs": [],
      "name": "totalAmountRaised",
      "outputs": [
        {
          "internalType": "uint256",
          "name": "",
          "type": "uint256"
        }
      ],
      "stateMutability": "view",
      "type": "function"
    },
    {
      "inputs": [],
      "name": "totalAmountToRaise",
      "outputs": [
        {
          "internalType": "uint256",
          "name": "",
          "type": "uint256"
        }
      ],
      "stateMutability": "view",
      "type": "function"
    },
    {
      "inputs": [],
      "name": "totalParticipatedUser",
      "outputs": [
        {
          "internalType": "uint32",
          "name": "",
          "type": "uint32"
        }
      ],
      "stateMutability": "view",
      "type": "function"
    },
    {
      "inputs": [],
      "name": "totalTokenSupply",
      "outputs": [
        {
          "internalType": "uint256",
          "name": "",
          "type": "uint256"
        }
      ],
      "stateMutability": "view",
      "type": "function"
    },
    {
      "inputs": [
        {
          "internalType": "address",
          "name": "",
          "type": "address"
        }
      ],
      "name": "userToTokenAmount",
      "outputs": [
        {
          "internalType": "uint256",
          "name": "",
          "type": "uint256"
        }
      ],
      "stateMutability": "view",
      "type": "function"
    },
    {
      "inputs": [],
      "name": "withdrawRaisedAmount",
      "outputs": [
        {
          "internalType": "uint256",
          "name": "",
          "type": "uint256"
        }
      ],
      "stateMutability": "nonpayable",
      "type": "function"
    },
    {
      "inputs": [
        {
          "internalType": "address",
          "name": "to_",
          "type": "address"
        }
      ],
      "name": "withdrawRemainingTokens",
      "outputs": [
        {
          "internalType": "uint256",
          "name": "",
          "type": "uint256"
        }
      ],
      "stateMutability": "nonpayable",
      "type": "function"
    },
    {
      "stateMutability": "payable",
      "type": "receive"
    }
  ],
  "bytecode": "0x60806040523480156200001157600080fd5b50604051620037ef380380620037ef83398181016040528101906200003791906200034f565b33600d60006101000a81548173ffffffffffffffffffffffffffffffffffffffff021916908373ffffffffffffffffffffffffffffffffffffffff16021790555089600a60006101000a81548173ffffffffffffffffffffffffffffffffffffffff021916908373ffffffffffffffffffffffffffffffffffffffff16021790555088600b60006101000a81548173ffffffffffffffffffffffffffffffffffffffff021916908373ffffffffffffffffffffffffffffffffffffffff16021790555087600581905550866004819055508560028190555084600e60006101000a81548173ffffffffffffffffffffffffffffffffffffffff021916908373ffffffffffffffffffffffffffffffffffffffff160217905550633b9aca00600f819055508360078190555082600660046101000a81548163ffffffff021916908363ffffffff16021790555081600660086101000a81548163ffffffff021916908363ffffffff1602179055508060099080519060200190620001bc929190620001e8565b506001600860006101000a81548160ff0219169083151502179055505050505050505050505062000664565b828054620001f6906200053b565b90600052602060002090601f0160209004810192826200021a576000855562000266565b82601f106200023557805160ff191683800117855562000266565b8280016001018555821562000266579182015b828111156200026557825182559160200191906001019062000248565b5b50905062000275919062000279565b5090565b5b80821115620002945760008160009055506001016200027a565b5090565b6000620002af620002a98462000481565b62000458565b905082815260208101848484011115620002c857600080fd5b620002d584828562000505565b509392505050565b600081519050620002ee8162000616565b92915050565b600082601f8301126200030657600080fd5b81516200031884826020860162000298565b91505092915050565b600081519050620003328162000630565b92915050565b60008151905062000349816200064a565b92915050565b6000806000806000806000806000806101408b8d0312156200037057600080fd5b6000620003808d828e01620002dd565b9a50506020620003938d828e01620002dd565b9950506040620003a68d828e0162000321565b9850506060620003b98d828e0162000321565b9750506080620003cc8d828e0162000321565b96505060a0620003df8d828e01620002dd565b95505060c0620003f28d828e0162000321565b94505060e0620004058d828e0162000338565b935050610100620004198d828e0162000338565b9250506101208b015167ffffffffffffffff8111156200043857600080fd5b620004468d828e01620002f4565b9150509295989b9194979a5092959850565b60006200046462000477565b905062000472828262000571565b919050565b6000604051905090565b600067ffffffffffffffff8211156200049f576200049e620005d6565b5b620004aa8262000605565b9050602081019050919050565b6000620004c482620004cb565b9050919050565b600073ffffffffffffffffffffffffffffffffffffffff82169050919050565b6000819050919050565b600063ffffffff82169050919050565b60005b838110156200052557808201518184015260208101905062000508565b8381111562000535576000848401525b50505050565b600060028204905060018216806200055457607f821691505b602082108114156200056b576200056a620005a7565b5b50919050565b6200057c8262000605565b810181811067ffffffffffffffff821117156200059e576200059d620005d6565b5b80604052505050565b7f4e487b7100000000000000000000000000000000000000000000000000000000600052602260045260246000fd5b7f4e487b7100000000000000000000000000000000000000000000000000000000600052604160045260246000fd5b6000601f19601f8301169050919050565b6200062181620004b7565b81146200062d57600080fd5b50565b6200063b81620004eb565b81146200064757600080fd5b50565b6200065581620004f5565b81146200066157600080fd5b50565b61317b80620006746000396000f3fe6080604052600436106101c65760003560e01c80639f0f8154116100f7578063c6ee20d211610095578063f851a44011610064578063f851a4401461064b578063f9af1a9814610676578063fb8130ec146106b3578063ff3a9c7e146106dc576101cd565b8063c6ee20d21461058c578063e453c804146105b7578063e6fd48bc146105e3578063f309d68f1461060e576101cd565b8063a85adeab116100d1578063a85adeab146104e0578063abb1dc441461050b578063b64afbe514610538578063be1b343314610561576101cd565b80639f0f81541461045e578063a035b1fe1461048a578063a0a7a183146104b5576101cd565b806350c50710116101645780637927ebf81161013e5780637927ebf8146103a05780637cbb7b46146103dd5780638da5cb5b146104085780639ebe2d0a14610433576101cd565b806350c507101461030d5780635affbd971461033857806378d1853314610375576101cd565b80633fafa127116101a05780633fafa12714610265578063485cc955146102905780634b6c36b5146102b95780634c664d3e146102e2576101cd565b806313e17306146101d25780631ca8b6cb1461020f578063242d7dba1461023a576101cd565b366101cd57005b600080fd5b3480156101de57600080fd5b506101f960048036038101906101f49190612320565b61070a565b604051610206919061276b565b60405180910390f35b34801561021b57600080fd5b50610224610841565b6040516102319190612a4f565b60405180910390f35b34801561024657600080fd5b5061024f610847565b60405161025c9190612a4f565b60405180910390f35b34801561027157600080fd5b5061027a61084d565b6040516102879190612aca565b60405180910390f35b34801561029c57600080fd5b506102b760048036038101906102b29190612349565b610861565b005b3480156102c557600080fd5b506102e060048036038101906102db91906123c1565b61095b565b005b3480156102ee57600080fd5b506102f7610a60565b604051610304919061284d565b60405180910390f35b34801561031957600080fd5b50610322610af2565b60405161032f9190612a4f565b60405180910390f35b34801561034457600080fd5b5061035f600480360381019061035a9190612320565b610af8565b60405161036c9190612a4f565b60405180910390f35b34801561038157600080fd5b5061038a610ce7565b6040516103979190612a4f565b60405180910390f35b3480156103ac57600080fd5b506103c760048036038101906103c29190612413565b610e46565b6040516103d49190612a4f565b60405180910390f35b3480156103e957600080fd5b506103f2610e95565b6040516103ff919061276b565b60405180910390f35b34801561041457600080fd5b5061041d610ebf565b60405161042a919061276b565b60405180910390f35b34801561043f57600080fd5b50610448610ee9565b6040516104559190612a4f565b60405180910390f35b34801561046a57600080fd5b50610473610eef565b604051610481929190612aa1565b60405180910390f35b34801561049657600080fd5b5061049f610f00565b6040516104ac9190612a4f565b60405180910390f35b3480156104c157600080fd5b506104ca610f06565b6040516104d79190612aca565b60405180910390f35b3480156104ec57600080fd5b506104f5610f1c565b6040516105029190612aca565b60405180910390f35b34801561051757600080fd5b50610520610f32565b60405161052f93929190612a6a565b60405180910390f35b34801561054457600080fd5b5061055f600480360381019061055a9190612385565b610f6b565b005b34801561056d57600080fd5b506105766112f9565b604051610583919061276b565b60405180910390f35b34801561059857600080fd5b506105a1611323565b6040516105ae9190612832565b60405180910390f35b3480156105c357600080fd5b506105cc611336565b6040516105da929190612ae5565b60405180910390f35b3480156105ef57600080fd5b506105f8611367565b6040516106059190612aca565b60405180910390f35b34801561061a57600080fd5b5061063560048036038101906106309190612320565b61137d565b6040516106429190612a4f565b60405180910390f35b34801561065757600080fd5b5061066061146c565b60405161066d919061276b565b60405180910390f35b34801561068257600080fd5b5061069d60048036038101906106989190612320565b611496565b6040516106aa9190612a4f565b60405180910390f35b3480156106bf57600080fd5b506106da60048036038101906106d59190612465565b6114ae565b005b3480156106e857600080fd5b506106f1611656565b6040516107019493929190612786565b60405180910390f35b6000600d60009054906101000a900473ffffffffffffffffffffffffffffffffffffffff1673ffffffffffffffffffffffffffffffffffffffff163373ffffffffffffffffffffffffffffffffffffffff161461079c576040517f08c379a00000000000000000000000000000000000000000000000000000000081526004016107939061286f565b60405180910390fd5b600073ffffffffffffffffffffffffffffffffffffffff168273ffffffffffffffffffffffffffffffffffffffff1614156107d657600080fd5b81600e60006101000a81548173ffffffffffffffffffffffffffffffffffffffff021916908373ffffffffffffffffffffffffffffffffffffffff160217905550600e60009054906101000a900473ffffffffffffffffffffffffffffffffffffffff169050919050565b60025481565b60035481565b60008054906101000a900463ffffffff1681565b600073ffffffffffffffffffffffffffffffffffffffff168273ffffffffffffffffffffffffffffffffffffffff16141561089b57600080fd5b600073ffffffffffffffffffffffffffffffffffffffff168173ffffffffffffffffffffffffffffffffffffffff1614156108d557600080fd5b81600d60006101000a81548173ffffffffffffffffffffffffffffffffffffffff021916908373ffffffffffffffffffffffffffffffffffffffff16021790555080600c60006101000a81548173ffffffffffffffffffffffffffffffffffffffff021916908373ffffffffffffffffffffffffffffffffffffffff1602179055505050565b3373ffffffffffffffffffffffffffffffffffffffff16600d60009054906101000a900473ffffffffffffffffffffffffffffffffffffffff1673ffffffffffffffffffffffffffffffffffffffff161480610a0457503373ffffffffffffffffffffffffffffffffffffffff16600c60009054906101000a900473ffffffffffffffffffffffffffffffffffffffff1673ffffffffffffffffffffffffffffffffffffffff16145b610a43576040517f08c379a0000000000000000000000000000000000000000000000000000000008152600401610a3a90612a0f565b60405180910390fd5b80600860006101000a81548160ff02191690831515021790555050565b606060098054610a6f90612d1a565b80601f0160208091040260200160405190810160405280929190818152602001828054610a9b90612d1a565b8015610ae85780601f10610abd57610100808354040283529160200191610ae8565b820191906000526020600020905b815481529060010190602001808311610acb57829003601f168201915b5050505050905090565b60075481565b60003373ffffffffffffffffffffffffffffffffffffffff16600d60009054906101000a900473ffffffffffffffffffffffffffffffffffffffff1673ffffffffffffffffffffffffffffffffffffffff161480610ba357503373ffffffffffffffffffffffffffffffffffffffff16600c60009054906101000a900473ffffffffffffffffffffffffffffffffffffffff1673ffffffffffffffffffffffffffffffffffffffff16145b610be2576040517f08c379a0000000000000000000000000000000000000000000000000000000008152600401610bd990612a0f565b60405180910390fd5b6000600a60009054906101000a900473ffffffffffffffffffffffffffffffffffffffff1673ffffffffffffffffffffffffffffffffffffffff166370a08231306040518263ffffffff1660e01b8152600401610c3f919061276b565b60206040518083038186803b158015610c5757600080fd5b505afa158015610c6b573d6000803e3d6000fd5b505050506040513d601f19601f82011682018060405250810190610c8f919061243c565b9050610cde8382600a60009054906101000a900473ffffffffffffffffffffffffffffffffffffffff1673ffffffffffffffffffffffffffffffffffffffff1661174c9092919063ffffffff16565b80915050919050565b60003373ffffffffffffffffffffffffffffffffffffffff16600d60009054906101000a900473ffffffffffffffffffffffffffffffffffffffff1673ffffffffffffffffffffffffffffffffffffffff1614610d4357600080fd5b6000600b60009054906101000a900473ffffffffffffffffffffffffffffffffffffffff1673ffffffffffffffffffffffffffffffffffffffff166370a08231306040518263ffffffff1660e01b8152600401610da0919061276b565b60206040518083038186803b158015610db857600080fd5b505afa158015610dcc573d6000803e3d6000fd5b505050506040513d601f19601f82011682018060405250810190610df0919061243c565b9050610e3f3382600b60009054906101000a900473ffffffffffffffffffffffffffffffffffffffff1673ffffffffffffffffffffffffffffffffffffffff1661174c9092919063ffffffff16565b8091505090565b6000610e8e66038d7ea4c68000610e8066038d7ea4c68000610e72610e6d876005546117d2565b6119d9565b611a1790919063ffffffff16565b611a6190919063ffffffff16565b9050919050565b6000600a60009054906101000a900473ffffffffffffffffffffffffffffffffffffffff16905090565b6000600d60009054906101000a900473ffffffffffffffffffffffffffffffffffffffff16905090565b60045481565b600080600354905060045491509091565b60055481565b600660009054906101000a900463ffffffff1681565b600660089054906101000a900463ffffffff1681565b60008060006002549250600a60009054906101000a900473ffffffffffffffffffffffffffffffffffffffff1691506005549050909192565b600860009054906101000a900460ff16610fba576040517f08c379a0000000000000000000000000000000000000000000000000000000008152600401610fb19061294f565b60405180910390fd5b60008111610ffd576040517f08c379a0000000000000000000000000000000000000000000000000000000008152600401610ff49061288f565b60405180910390fd5b42600660049054906101000a900463ffffffff1663ffffffff1610611057576040517f08c379a000000000000000000000000000000000000000000000000000000000815260040161104e9061296f565b60405180910390fd5b42600660089054906101000a900463ffffffff1663ffffffff16116110b1576040517f08c379a00000000000000000000000000000000000000000000000000000000081526004016110a8906129cf565b60405180910390fd5b6004546110c982600354611a9890919063ffffffff16565b111561110a576040517f08c379a00000000000000000000000000000000000000000000000000000000081526004016111019061290f565b60405180910390fd5b600061111582610e46565b90506111218382611abb565b6000600160008573ffffffffffffffffffffffffffffffffffffffff1673ffffffffffffffffffffffffffffffffffffffff1681526020019081526020016000205414156111aa576001600660008282829054906101000a900463ffffffff1661118b9190612b96565b92506101000a81548163ffffffff021916908363ffffffff1602179055505b81600360008282546111bc9190612b40565b9250508190555061121581600160008673ffffffffffffffffffffffffffffffffffffffff1673ffffffffffffffffffffffffffffffffffffffff16815260200190815260200160002054611a9890919063ffffffff16565b600160008573ffffffffffffffffffffffffffffffffffffffff1673ffffffffffffffffffffffffffffffffffffffff168152602001908152602001600020819055506112a7833084600b60009054906101000a900473ffffffffffffffffffffffffffffffffffffffff1673ffffffffffffffffffffffffffffffffffffffff16611b60909392919063ffffffff16565b6112f48382600a60009054906101000a900473ffffffffffffffffffffffffffffffffffffffff1673ffffffffffffffffffffffffffffffffffffffff1661174c9092919063ffffffff16565b505050565b6000600e60009054906101000a900473ffffffffffffffffffffffffffffffffffffffff16905090565b600860009054906101000a900460ff1681565b600080600660049054906101000a900463ffffffff169150600660089054906101000a900463ffffffff1690509091565b600660049054906101000a900463ffffffff1681565b600080600e60009054906101000a900473ffffffffffffffffffffffffffffffffffffffff1673ffffffffffffffffffffffffffffffffffffffff166370a08231846040518263ffffffff1660e01b81526004016113db919061276b565b60206040518083038186803b1580156113f357600080fd5b505afa158015611407573d6000803e3d6000fd5b505050506040513d601f19601f8201168201806040525081019061142b919061243c565b9050600061144c600f5461143e84611be9565b611a6190919063ffffffff16565b905061146360075482611c5990919063ffffffff16565b92505050919050565b6000600c60009054906101000a900473ffffffffffffffffffffffffffffffffffffffff16905090565b60016020528060005260406000206000915090505481565b3373ffffffffffffffffffffffffffffffffffffffff16600d60009054906101000a900473ffffffffffffffffffffffffffffffffffffffff1673ffffffffffffffffffffffffffffffffffffffff16148061155757503373ffffffffffffffffffffffffffffffffffffffff16600c60009054906101000a900473ffffffffffffffffffffffffffffffffffffffff1673ffffffffffffffffffffffffffffffffffffffff16145b611596576040517f08c379a000000000000000000000000000000000000000000000000000000000815260040161158d90612a0f565b60405180910390fd5b60008263ffffffff161415806115b3575060008163ffffffff1614155b6115f2576040517f08c379a00000000000000000000000000000000000000000000000000000000081526004016115e9906128af565b60405180910390fd5b60008263ffffffff16146116225781600660046101000a81548163ffffffff021916908363ffffffff1602179055505b60008163ffffffff16146116525780600660086101000a81548163ffffffff021916908363ffffffff1602179055505b5050565b60008060606000600b60009054906101000a900473ffffffffffffffffffffffffffffffffffffffff169250600a60009054906101000a900473ffffffffffffffffffffffffffffffffffffffff169350600980546116b490612d1a565b80601f01602080910402602001604051908101604052809291908181526020018280546116e090612d1a565b801561172d5780601f106117025761010080835404028352916020019161172d565b820191906000526020600020905b81548152906001019060200180831161171057829003601f168201915b50505050509150600860009054906101000a900460ff16905090919293565b6117cd8363a9059cbb60e01b848460405160240161176b929190612809565b604051602081830303815290604052907bffffffffffffffffffffffffffffffffffffffffffffffffffffffff19166020820180517bffffffffffffffffffffffffffffffffffffffffffffffffffffffff8381831617835250505050611c75565b505050565b6117da612271565b6000821161181d576040517f08c379a00000000000000000000000000000000000000000000000000000000081526004016118149061292f565b60405180910390fd5b600083141561185b57604051806020016040528060007bffffffffffffffffffffffffffffffffffffffffffffffffffffffff1681525090506119d3565b71ffffffffffffffffffffffffffffffffffff8016831161192357600082607060ff1685901b61188b9190612bd0565b90507bffffffffffffffffffffffffffffffffffffffffffffffffffffffff80168111156118ee576040517f08c379a00000000000000000000000000000000000000000000000000000000081526004016118e5906129af565b60405180910390fd5b6040518060200160405280827bffffffffffffffffffffffffffffffffffffffffffffffffffffffff168152509150506119d3565b600061193f846e01000000000000000000000000000085611d3c565b90507bffffffffffffffffffffffffffffffffffffffffffffffffffffffff80168111156119a2576040517f08c379a0000000000000000000000000000000000000000000000000000000008152600401611999906129af565b60405180910390fd5b6040518060200160405280827bffffffffffffffffffffffffffffffffffffffffffffffffffffffff168152509150505b92915050565b60006612725dd1d243ab82600001517bffffffffffffffffffffffffffffffffffffffffffffffffffffffff16611a109190612bd0565b9050919050565b6000611a5983836040518060400160405280601a81526020017f536166654d6174683a206469766973696f6e206279207a65726f000000000000815250611e0a565b905092915050565b600080831480611a89575081838385611a7a9190612c01565b925082611a879190612bd0565b145b611a9257600080fd5b92915050565b6000828284611aa79190612b40565b9150811015611ab557600080fd5b92915050565b6000611ac68361137d565b905080611b1b83600160008773ffffffffffffffffffffffffffffffffffffffff1673ffffffffffffffffffffffffffffffffffffffff16815260200190815260200160002054611a9890919063ffffffff16565b10611b5b576040517f08c379a0000000000000000000000000000000000000000000000000000000008152600401611b52906128ef565b60405180910390fd5b505050565b611be3846323b872dd60e01b858585604051602401611b81939291906127d2565b604051602081830303815290604052907bffffffffffffffffffffffffffffffffffffffffffffffffffffffff19166020820180517bffffffffffffffffffffffffffffffffffffffffffffffffffffffff8381831617835250505050611c75565b50505050565b60006003821115611c46578190506000611c0e611c07846002611a17565b6001611a98565b90505b81811015611c4057809150611c39611c32611c2c8584611a17565b83611a98565b6002611a17565b9050611c11565b50611c54565b60008214611c5357600190505b5b919050565b600081831015611c6b57829050611c6f565b8190505b92915050565b6000611cd7826040518060400160405280602081526020017f5361666545524332303a206c6f772d6c6576656c2063616c6c206661696c65648152508573ffffffffffffffffffffffffffffffffffffffff16611e6d9092919063ffffffff16565b9050600081511115611d375780806020019051810190611cf791906123ea565b611d36576040517f08c379a0000000000000000000000000000000000000000000000000000000008152600401611d2d90612a2f565b60405180910390fd5b5b505050565b6000806000611d4b8686611e85565b9150915060008480611d86577f4e487b7100000000000000000000000000000000000000000000000000000000600052601260045260246000fd5b868809905082811115611da357600182611da09190612c5b565b91505b8083611daf9190612c5b565b9250848210611df3576040517f08c379a0000000000000000000000000000000000000000000000000000000008152600401611dea9061298f565b60405180910390fd5b611dfe838387611f20565b93505050509392505050565b60008083118290611e51576040517f08c379a0000000000000000000000000000000000000000000000000000000008152600401611e48919061284d565b60405180910390fd5b5060008385611e609190612bd0565b9050809150509392505050565b6060611e7c84846000856120d3565b90509392505050565b60008060007fffffffffffffffffffffffffffffffffffffffffffffffffffffffffffffffff80611edf577f4e487b7100000000000000000000000000000000000000000000000000000000600052601260045260246000fd5b84860990508385611ef09190612c01565b92508281611efe9190612c5b565b915082811015611f1857600182611f159190612c5b565b91505b509250929050565b60008060018319611f319190612b40565b831690508083611f419190612bd0565b92508085611f4f9190612bd0565b945060018160018319611f629190612b40565b611f6c9190612bd0565b611f769190612b40565b84611f819190612c01565b85611f8c9190612b40565b94506000600190508084611fa09190612c01565b6002611fac9190612c5b565b81611fb79190612c01565b90508084611fc59190612c01565b6002611fd19190612c5b565b81611fdc9190612c01565b90508084611fea9190612c01565b6002611ff69190612c5b565b816120019190612c01565b9050808461200f9190612c01565b600261201b9190612c5b565b816120269190612c01565b905080846120349190612c01565b60026120409190612c5b565b8161204b9190612c01565b905080846120599190612c01565b60026120659190612c5b565b816120709190612c01565b9050808461207e9190612c01565b600261208a9190612c5b565b816120959190612c01565b905080846120a39190612c01565b60026120af9190612c5b565b816120ba9190612c01565b905080866120c89190612c01565b925050509392505050565b606082471015612118576040517f08c379a000000000000000000000000000000000000000000000000000000000815260040161210f906128cf565b60405180910390fd5b612121856121e7565b612160576040517f08c379a0000000000000000000000000000000000000000000000000000000008152600401612157906129ef565b60405180910390fd5b6000808673ffffffffffffffffffffffffffffffffffffffff1685876040516121899190612754565b60006040518083038185875af1925050503d80600081146121c6576040519150601f19603f3d011682016040523d82523d6000602084013e6121cb565b606091505b50915091506121db82828661220a565b92505050949350505050565b6000808273ffffffffffffffffffffffffffffffffffffffff163b119050919050565b6060831561221a5782905061226a565b60008351111561222d5782518084602001fd5b816040517f08c379a0000000000000000000000000000000000000000000000000000000008152600401612261919061284d565b60405180910390fd5b9392505050565b604051806020016040528060007bffffffffffffffffffffffffffffffffffffffffffffffffffffffff1681525090565b6000813590506122b1816130e9565b92915050565b6000813590506122c681613100565b92915050565b6000815190506122db81613100565b92915050565b6000813590506122f081613117565b92915050565b60008151905061230581613117565b92915050565b60008135905061231a8161312e565b92915050565b60006020828403121561233257600080fd5b6000612340848285016122a2565b91505092915050565b6000806040838503121561235c57600080fd5b600061236a858286016122a2565b925050602061237b858286016122a2565b9150509250929050565b6000806040838503121561239857600080fd5b60006123a6858286016122a2565b92505060206123b7858286016122e1565b9150509250929050565b6000602082840312156123d357600080fd5b60006123e1848285016122b7565b91505092915050565b6000602082840312156123fc57600080fd5b600061240a848285016122cc565b91505092915050565b60006020828403121561242557600080fd5b6000612433848285016122e1565b91505092915050565b60006020828403121561244e57600080fd5b600061245c848285016122f6565b91505092915050565b6000806040838503121561247857600080fd5b60006124868582860161230b565b92505060206124978582860161230b565b9150509250929050565b6124aa81612c8f565b82525050565b6124b981612ca1565b82525050565b60006124ca82612b0e565b6124d48185612b24565b93506124e4818560208601612ce7565b80840191505092915050565b60006124fb82612b19565b6125058185612b2f565b9350612515818560208601612ce7565b61251e81612dd9565b840191505092915050565b6000612536601083612b2f565b915061254182612dea565b602082019050919050565b6000612559600e83612b2f565b915061256482612e13565b602082019050919050565b600061257c601a83612b2f565b915061258782612e3c565b602082019050919050565b600061259f602683612b2f565b91506125aa82612e65565b604082019050919050565b60006125c2601383612b2f565b91506125cd82612eb4565b602082019050919050565b60006125e5602483612b2f565b91506125f082612edd565b604082019050919050565b6000612608602683612b2f565b915061261382612f2c565b604082019050919050565b600061262b601983612b2f565b915061263682612f7b565b602082019050919050565b600061264e601083612b2f565b915061265982612fa4565b602082019050919050565b6000612671601a83612b2f565b915061267c82612fcd565b602082019050919050565b6000612694601e83612b2f565b915061269f82612ff6565b602082019050919050565b60006126b7601183612b2f565b91506126c28261301f565b602082019050919050565b60006126da601d83612b2f565b91506126e582613048565b602082019050919050565b60006126fd600e83612b2f565b915061270882613071565b602082019050919050565b6000612720602a83612b2f565b915061272b8261309a565b604082019050919050565b61273f81612ccd565b82525050565b61274e81612cd7565b82525050565b600061276082846124bf565b915081905092915050565b600060208201905061278060008301846124a1565b92915050565b600060808201905061279b60008301876124a1565b6127a860208301866124a1565b81810360408301526127ba81856124f0565b90506127c960608301846124b0565b95945050505050565b60006060820190506127e760008301866124a1565b6127f460208301856124a1565b6128016040830184612736565b949350505050565b600060408201905061281e60008301856124a1565b61282b6020830184612736565b9392505050565b600060208201905061284760008301846124b0565b92915050565b6000602082019050818103600083015261286781846124f0565b905092915050565b6000602082019050818103600083015261288881612529565b9050919050565b600060208201905081810360008301526128a88161254c565b9050919050565b600060208201905081810360008301526128c88161256f565b9050919050565b600060208201905081810360008301526128e881612592565b9050919050565b60006020820190508181036000830152612908816125b5565b9050919050565b60006020820190508181036000830152612928816125d8565b9050919050565b60006020820190508181036000830152612948816125fb565b9050919050565b600060208201905081810360008301526129688161261e565b9050919050565b6000602082019050818103600083015261298881612641565b9050919050565b600060208201905081810360008301526129a881612664565b9050919050565b600060208201905081810360008301526129c881612687565b9050919050565b600060208201905081810360008301526129e8816126aa565b9050919050565b60006020820190508181036000830152612a08816126cd565b9050919050565b60006020820190508181036000830152612a28816126f0565b9050919050565b60006020820190508181036000830152612a4881612713565b9050919050565b6000602082019050612a646000830184612736565b92915050565b6000606082019050612a7f6000830186612736565b612a8c60208301856124a1565b612a996040830184612736565b949350505050565b6000604082019050612ab66000830185612736565b612ac36020830184612736565b9392505050565b6000602082019050612adf6000830184612745565b92915050565b6000604082019050612afa6000830185612745565b612b076020830184612745565b9392505050565b600081519050919050565b600081519050919050565b600081905092915050565b600082825260208201905092915050565b6000612b4b82612ccd565b9150612b5683612ccd565b9250827fffffffffffffffffffffffffffffffffffffffffffffffffffffffffffffffff03821115612b8b57612b8a612d4c565b5b828201905092915050565b6000612ba182612cd7565b9150612bac83612cd7565b92508263ffffffff03821115612bc557612bc4612d4c565b5b828201905092915050565b6000612bdb82612ccd565b9150612be683612ccd565b925082612bf657612bf5612d7b565b5b828204905092915050565b6000612c0c82612ccd565b9150612c1783612ccd565b9250817fffffffffffffffffffffffffffffffffffffffffffffffffffffffffffffffff0483118215151615612c5057612c4f612d4c565b5b828202905092915050565b6000612c6682612ccd565b9150612c7183612ccd565b925082821015612c8457612c83612d4c565b5b828203905092915050565b6000612c9a82612cad565b9050919050565b60008115159050919050565b600073ffffffffffffffffffffffffffffffffffffffff82169050919050565b6000819050919050565b600063ffffffff82169050919050565b60005b83811015612d05578082015181840152602081019050612cea565b83811115612d14576000848401525b50505050565b60006002820490506001821680612d3257607f821691505b60208210811415612d4657612d45612daa565b5b50919050565b7f4e487b7100000000000000000000000000000000000000000000000000000000600052601160045260246000fd5b7f4e487b7100000000000000000000000000000000000000000000000000000000600052601260045260246000fd5b7f4e487b7100000000000000000000000000000000000000000000000000000000600052602260045260246000fd5b6000601f19601f8301169050919050565b7f43616c6c6572206e6f74206f776e657200000000000000000000000000000000600082015250565b7f696e76616c696420616d6f756e74000000000000000000000000000000000000600082015250565b7f426f74682074696d657374616d702063616e6e6f742062652030000000000000600082015250565b7f416464726573733a20696e73756666696369656e742062616c616e636520666f60008201527f722063616c6c0000000000000000000000000000000000000000000000000000602082015250565b7f546f6b656e20616d6f756e742065786365656400000000000000000000000000600082015250565b7f416d6f756e74206578636565647320746f74616c20616d6f756e7420746f207260008201527f6169736500000000000000000000000000000000000000000000000000000000602082015250565b7f4669786564506f696e743a3a6672616374696f6e3a206469766973696f6e206260008201527f79207a65726f0000000000000000000000000000000000000000000000000000602082015250565b7f53616c6520436f6e747261637420697320496e61637469766500000000000000600082015250565b7f70726f6a656374206e6f74206c69766500000000000000000000000000000000600082015250565b7f46756c6c4d6174683a3a6d756c4469763a206f766572666c6f77000000000000600082015250565b7f4669786564506f696e743a3a6672616374696f6e3a206f766572666c6f770000600082015250565b7f70726f6a6563742068617320656e646564000000000000000000000000000000600082015250565b7f416464726573733a2063616c6c20746f206e6f6e2d636f6e7472616374000000600082015250565b7f43616c6c657220496e76616c6964000000000000000000000000000000000000600082015250565b7f5361666545524332303a204552433230206f7065726174696f6e20646964206e60008201527f6f74207375636365656400000000000000000000000000000000000000000000602082015250565b6130f281612c8f565b81146130fd57600080fd5b50565b61310981612ca1565b811461311457600080fd5b50565b61312081612ccd565b811461312b57600080fd5b50565b61313781612cd7565b811461314257600080fd5b5056fea2646970667358221220ce2fb9d8290a04a46c3f906b8ca3db019584366ca4225acd3051e2d44eba8f8564736f6c63430008040033",
  "linkReferences": {},
  "deployedLinkReferences": {}
}