{
  "_format": "hh-sol-artifact-1",
  "contractName": "PublicSale",
  "sourceName": "contracts/PublicSale.sol",
  "abi": [
    {
      "inputs": [
        {
          "internalType": "address",
          "name": "tokenAdd_",
          "type": "address"
        },
        {
          "internalType": "address",
          "name": "principal_",
          "type": "address"
        },
        {
          "internalType": "uint256",
          "name": "price_",
          "type": "uint256"
        },
        {
          "internalType": "uint256",
          "name": "totalAmountToRaise_",
          "type": "uint256"
        },
        {
          "internalType": "uint256",
          "name": "totalTokenSupply_",
          "type": "uint256"
        },
        {
          "internalType": "address",
          "name": "stakedTokenAddress_",
          "type": "address"
        },
        {
          "internalType": "uint256",
          "name": "maxTokenPerUser_",
          "type": "uint256"
        },
        {
          "internalType": "uint32",
          "name": "startTime_",
          "type": "uint32"
        },
        {
          "internalType": "uint32",
          "name": "endTime_",
          "type": "uint32"
        },
        {
          "internalType": "string",
          "name": "ipfsId_",
          "type": "string"
        }
      ],
      "stateMutability": "nonpayable",
      "type": "constructor"
    },
    {
      "inputs": [],
      "name": "admin",
      "outputs": [
        {
          "internalType": "address",
          "name": "",
          "type": "address"
        }
      ],
      "stateMutability": "view",
      "type": "function"
    },
    {
      "inputs": [
        {
          "internalType": "bool",
          "name": "status",
          "type": "bool"
        }
      ],
      "name": "changeContractStatus",
      "outputs": [],
      "stateMutability": "nonpayable",
      "type": "function"
    },
    {
      "inputs": [
        {
          "internalType": "address",
          "name": "to_",
          "type": "address"
        }
      ],
      "name": "checkMaxTokenForUser",
      "outputs": [
        {
          "internalType": "uint256",
          "name": "",
          "type": "uint256"
        }
      ],
      "stateMutability": "view",
      "type": "function"
    },
    {
      "inputs": [],
      "name": "contractStatus",
      "outputs": [
        {
          "internalType": "bool",
          "name": "",
          "type": "bool"
        }
      ],
      "stateMutability": "view",
      "type": "function"
    },
    {
      "inputs": [],
      "name": "endTimestamp",
      "outputs": [
        {
          "internalType": "uint32",
          "name": "",
          "type": "uint32"
        }
      ],
      "stateMutability": "view",
      "type": "function"
    },
    {
      "inputs": [],
      "name": "getAmountInfo",
      "outputs": [
        {
          "internalType": "uint256",
          "name": "totalAmountToRaise_",
          "type": "uint256"
        },
        {
          "internalType": "uint256",
          "name": "totalAmountRaised_",
          "type": "uint256"
        }
      ],
      "stateMutability": "view",
      "type": "function"
    },
    {
      "inputs": [],
      "name": "getIpfsId",
      "outputs": [
        {
          "internalType": "string",
          "name": "",
          "type": "string"
        }
      ],
      "stateMutability": "view",
      "type": "function"
    },
    {
      "inputs": [],
      "name": "getProjectDetails",
      "outputs": [
        {
          "internalType": "address",
          "name": "projectToken_",
          "type": "address"
        },
        {
          "internalType": "address",
          "name": "principalToken_",
          "type": "address"
        },
        {
          "internalType": "string",
          "name": "ipfsId_",
          "type": "string"
        },
        {
          "internalType": "bool",
          "name": "contractStatus_",
          "type": "bool"
        }
      ],
      "stateMutability": "view",
      "type": "function"
    },
    {
      "inputs": [],
      "name": "getProjectTimeInfo",
      "outputs": [
        {
          "internalType": "uint32",
          "name": "startTimestamp_",
          "type": "uint32"
        },
        {
          "internalType": "uint32",
          "name": "endTimestamp_",
          "type": "uint32"
        }
      ],
      "stateMutability": "view",
      "type": "function"
    },
    {
      "inputs": [],
      "name": "getProjectTokenAddress",
      "outputs": [
        {
          "internalType": "address",
          "name": "",
          "type": "address"
        }
      ],
      "stateMutability": "view",
      "type": "function"
    },
    {
      "inputs": [],
      "name": "getStakedTokenAddress",
      "outputs": [
        {
          "internalType": "address",
          "name": "",
          "type": "address"
        }
      ],
      "stateMutability": "view",
      "type": "function"
    },
    {
      "inputs": [],
      "name": "getTokenInfo",
      "outputs": [
        {
          "internalType": "uint256",
          "name": "totalTokenSupply_",
          "type": "uint256"
        },
        {
          "internalType": "address",
          "name": "projectToken_",
          "type": "address"
        },
        {
          "internalType": "uint256",
          "name": "tokenPrice_",
          "type": "uint256"
        }
      ],
      "stateMutability": "view",
      "type": "function"
    },
    {
      "inputs": [
        {
          "internalType": "address",
          "name": "owner_",
          "type": "address"
        },
        {
          "internalType": "address",
          "name": "admin_",
          "type": "address"
        }
      ],
      "name": "initialize",
      "outputs": [],
      "stateMutability": "nonpayable",
      "type": "function"
    },
    {
      "inputs": [],
      "name": "maxTokenPerUser",
      "outputs": [
        {
          "internalType": "uint256",
          "name": "",
          "type": "uint256"
        }
      ],
      "stateMutability": "view",
      "type": "function"
    },
    {
      "inputs": [],
      "name": "owner",
      "outputs": [
        {
          "internalType": "address",
          "name": "",
          "type": "address"
        }
      ],
      "stateMutability": "view",
      "type": "function"
    },
    {
      "inputs": [
        {
          "internalType": "address",
          "name": "to_",
          "type": "address"
        },
        {
          "internalType": "uint256",
          "name": "amount",
          "type": "uint256"
        }
      ],
      "name": "participate",
      "outputs": [],
      "stateMutability": "nonpayable",
      "type": "function"
    },
    {
      "inputs": [
        {
          "internalType": "uint256",
          "name": "amount",
          "type": "uint256"
        }
      ],
      "name": "payoutFor",
      "outputs": [
        {
          "internalType": "uint256",
          "name": "",
          "type": "uint256"
        }
      ],
      "stateMutability": "view",
      "type": "function"
    },
    {
      "inputs": [],
      "name": "price",
      "outputs": [
        {
          "internalType": "uint256",
          "name": "",
          "type": "uint256"
        }
      ],
      "stateMutability": "view",
      "type": "function"
    },
    {
      "inputs": [],
      "name": "projectId",
      "outputs": [
        {
          "internalType": "uint32",
          "name": "",
          "type": "uint32"
        }
      ],
      "stateMutability": "view",
      "type": "function"
    },
    {
      "inputs": [
        {
          "internalType": "address",
          "name": "stakeTokenAddress_",
          "type": "address"
        }
      ],
      "name": "setStakedTokenAddress",
      "outputs": [
        {
          "internalType": "address",
          "name": "",
          "type": "address"
        }
      ],
      "stateMutability": "nonpayable",
      "type": "function"
    },
    {
      "inputs": [
        {
          "internalType": "uint32",
          "name": "startTime_",
          "type": "uint32"
        },
        {
          "internalType": "uint32",
          "name": "endTime_",
          "type": "uint32"
        }
      ],
      "name": "setTimeInfo",
      "outputs": [],
      "stateMutability": "nonpayable",
      "type": "function"
    },
    {
      "inputs": [],
      "name": "startTimestamp",
      "outputs": [
        {
          "internalType": "uint32",
          "name": "",
          "type": "uint32"
        }
      ],
      "stateMutability": "view",
      "type": "function"
    },
    {
      "inputs": [],
      "name": "totalAmountRaised",
      "outputs": [
        {
          "internalType": "uint256",
          "name": "",
          "type": "uint256"
        }
      ],
      "stateMutability": "view",
      "type": "function"
    },
    {
      "inputs": [],
      "name": "totalAmountToRaise",
      "outputs": [
        {
          "internalType": "uint256",
          "name": "",
          "type": "uint256"
        }
      ],
      "stateMutability": "view",
      "type": "function"
    },
    {
      "inputs": [],
      "name": "totalParticipatedUser",
      "outputs": [
        {
          "internalType": "uint32",
          "name": "",
          "type": "uint32"
        }
      ],
      "stateMutability": "view",
      "type": "function"
    },
    {
      "inputs": [],
      "name": "totalTokenSupply",
      "outputs": [
        {
          "internalType": "uint256",
          "name": "",
          "type": "uint256"
        }
      ],
      "stateMutability": "view",
      "type": "function"
    },
    {
      "inputs": [
        {
          "internalType": "address",
          "name": "",
          "type": "address"
        }
      ],
      "name": "userToTokenAmount",
      "outputs": [
        {
          "internalType": "uint256",
          "name": "",
          "type": "uint256"
        }
      ],
      "stateMutability": "view",
      "type": "function"
    },
    {
      "inputs": [],
      "name": "withdrawRaisedAmount",
      "outputs": [
        {
          "internalType": "uint256",
          "name": "",
          "type": "uint256"
        }
      ],
      "stateMutability": "nonpayable",
      "type": "function"
    },
    {
      "inputs": [
        {
          "internalType": "address",
          "name": "to_",
          "type": "address"
        }
      ],
      "name": "withdrawRemainingTokens",
      "outputs": [
        {
          "internalType": "uint256",
          "name": "",
          "type": "uint256"
        }
      ],
      "stateMutability": "nonpayable",
      "type": "function"
    },
    {
      "stateMutability": "payable",
      "type": "receive"
    }
  ],
  "bytecode": "0x60806040523480156200001157600080fd5b50604051620037f0380380620037f083398181016040528101906200003791906200034f565b33600d60006101000a81548173ffffffffffffffffffffffffffffffffffffffff021916908373ffffffffffffffffffffffffffffffffffffffff16021790555089600a60006101000a81548173ffffffffffffffffffffffffffffffffffffffff021916908373ffffffffffffffffffffffffffffffffffffffff16021790555088600b60006101000a81548173ffffffffffffffffffffffffffffffffffffffff021916908373ffffffffffffffffffffffffffffffffffffffff16021790555087600581905550866004819055508560028190555084600e60006101000a81548173ffffffffffffffffffffffffffffffffffffffff021916908373ffffffffffffffffffffffffffffffffffffffff160217905550633b9aca00600f819055508360078190555082600660046101000a81548163ffffffff021916908363ffffffff16021790555081600660086101000a81548163ffffffff021916908363ffffffff1602179055508060099080519060200190620001bc929190620001e8565b506001600860006101000a81548160ff0219169083151502179055505050505050505050505062000664565b828054620001f6906200053b565b90600052602060002090601f0160209004810192826200021a576000855562000266565b82601f106200023557805160ff191683800117855562000266565b8280016001018555821562000266579182015b828111156200026557825182559160200191906001019062000248565b5b50905062000275919062000279565b5090565b5b80821115620002945760008160009055506001016200027a565b5090565b6000620002af620002a98462000481565b62000458565b905082815260208101848484011115620002c857600080fd5b620002d584828562000505565b509392505050565b600081519050620002ee8162000616565b92915050565b600082601f8301126200030657600080fd5b81516200031884826020860162000298565b91505092915050565b600081519050620003328162000630565b92915050565b60008151905062000349816200064a565b92915050565b6000806000806000806000806000806101408b8d0312156200037057600080fd5b6000620003808d828e01620002dd565b9a50506020620003938d828e01620002dd565b9950506040620003a68d828e0162000321565b9850506060620003b98d828e0162000321565b9750506080620003cc8d828e0162000321565b96505060a0620003df8d828e01620002dd565b95505060c0620003f28d828e0162000321565b94505060e0620004058d828e0162000338565b935050610100620004198d828e0162000338565b9250506101208b015167ffffffffffffffff8111156200043857600080fd5b620004468d828e01620002f4565b9150509295989b9194979a5092959850565b60006200046462000477565b905062000472828262000571565b919050565b6000604051905090565b600067ffffffffffffffff8211156200049f576200049e620005d6565b5b620004aa8262000605565b9050602081019050919050565b6000620004c482620004cb565b9050919050565b600073ffffffffffffffffffffffffffffffffffffffff82169050919050565b6000819050919050565b600063ffffffff82169050919050565b60005b838110156200052557808201518184015260208101905062000508565b8381111562000535576000848401525b50505050565b600060028204905060018216806200055457607f821691505b602082108114156200056b576200056a620005a7565b5b50919050565b6200057c8262000605565b810181811067ffffffffffffffff821117156200059e576200059d620005d6565b5b80604052505050565b7f4e487b7100000000000000000000000000000000000000000000000000000000600052602260045260246000fd5b7f4e487b7100000000000000000000000000000000000000000000000000000000600052604160045260246000fd5b6000601f19601f8301169050919050565b6200062181620004b7565b81146200062d57600080fd5b50565b6200063b81620004eb565b81146200064757600080fd5b50565b6200065581620004f5565b81146200066157600080fd5b50565b61317c80620006746000396000f3fe6080604052600436106101c65760003560e01c80639f0f8154116100f7578063c6ee20d211610095578063f851a44011610064578063f851a4401461064b578063f9af1a9814610676578063fb8130ec146106b3578063ff3a9c7e146106dc576101cd565b8063c6ee20d21461058c578063e453c804146105b7578063e6fd48bc146105e3578063f309d68f1461060e576101cd565b8063a85adeab116100d1578063a85adeab146104e0578063abb1dc441461050b578063b64afbe514610538578063be1b343314610561576101cd565b80639f0f81541461045e578063a035b1fe1461048a578063a0a7a183146104b5576101cd565b806350c50710116101645780637927ebf81161013e5780637927ebf8146103a05780637cbb7b46146103dd5780638da5cb5b146104085780639ebe2d0a14610433576101cd565b806350c507101461030d5780635affbd971461033857806378d1853314610375576101cd565b80633fafa127116101a05780633fafa12714610265578063485cc955146102905780634b6c36b5146102b95780634c664d3e146102e2576101cd565b806313e17306146101d25780631ca8b6cb1461020f578063242d7dba1461023a576101cd565b366101cd57005b600080fd5b3480156101de57600080fd5b506101f960048036038101906101f49190612321565b61070a565b604051610206919061276c565b60405180910390f35b34801561021b57600080fd5b50610224610841565b6040516102319190612a50565b60405180910390f35b34801561024657600080fd5b5061024f610847565b60405161025c9190612a50565b60405180910390f35b34801561027157600080fd5b5061027a61084d565b6040516102879190612acb565b60405180910390f35b34801561029c57600080fd5b506102b760048036038101906102b2919061234a565b610861565b005b3480156102c557600080fd5b506102e060048036038101906102db91906123c2565b61095b565b005b3480156102ee57600080fd5b506102f7610a60565b604051610304919061284e565b60405180910390f35b34801561031957600080fd5b50610322610af2565b60405161032f9190612a50565b60405180910390f35b34801561034457600080fd5b5061035f600480360381019061035a9190612321565b610af8565b60405161036c9190612a50565b60405180910390f35b34801561038157600080fd5b5061038a610ce7565b6040516103979190612a50565b60405180910390f35b3480156103ac57600080fd5b506103c760048036038101906103c29190612414565b610e46565b6040516103d49190612a50565b60405180910390f35b3480156103e957600080fd5b506103f2610e95565b6040516103ff919061276c565b60405180910390f35b34801561041457600080fd5b5061041d610ebf565b60405161042a919061276c565b60405180910390f35b34801561043f57600080fd5b50610448610ee9565b6040516104559190612a50565b60405180910390f35b34801561046a57600080fd5b50610473610eef565b604051610481929190612aa2565b60405180910390f35b34801561049657600080fd5b5061049f610f00565b6040516104ac9190612a50565b60405180910390f35b3480156104c157600080fd5b506104ca610f06565b6040516104d79190612acb565b60405180910390f35b3480156104ec57600080fd5b506104f5610f1c565b6040516105029190612acb565b60405180910390f35b34801561051757600080fd5b50610520610f32565b60405161052f93929190612a6b565b60405180910390f35b34801561054457600080fd5b5061055f600480360381019061055a9190612386565b610f6b565b005b34801561056d57600080fd5b506105766112f9565b604051610583919061276c565b60405180910390f35b34801561059857600080fd5b506105a1611323565b6040516105ae9190612833565b60405180910390f35b3480156105c357600080fd5b506105cc611336565b6040516105da929190612ae6565b60405180910390f35b3480156105ef57600080fd5b506105f8611367565b6040516106059190612acb565b60405180910390f35b34801561061a57600080fd5b5061063560048036038101906106309190612321565b61137d565b6040516106429190612a50565b60405180910390f35b34801561065757600080fd5b5061066061146c565b60405161066d919061276c565b60405180910390f35b34801561068257600080fd5b5061069d60048036038101906106989190612321565b611496565b6040516106aa9190612a50565b60405180910390f35b3480156106bf57600080fd5b506106da60048036038101906106d59190612466565b6114ae565b005b3480156106e857600080fd5b506106f1611656565b6040516107019493929190612787565b60405180910390f35b6000600d60009054906101000a900473ffffffffffffffffffffffffffffffffffffffff1673ffffffffffffffffffffffffffffffffffffffff163373ffffffffffffffffffffffffffffffffffffffff161461079c576040517f08c379a000000000000000000000000000000000000000000000000000000000815260040161079390612870565b60405180910390fd5b600073ffffffffffffffffffffffffffffffffffffffff168273ffffffffffffffffffffffffffffffffffffffff1614156107d657600080fd5b81600e60006101000a81548173ffffffffffffffffffffffffffffffffffffffff021916908373ffffffffffffffffffffffffffffffffffffffff160217905550600e60009054906101000a900473ffffffffffffffffffffffffffffffffffffffff169050919050565b60025481565b60035481565b60008054906101000a900463ffffffff1681565b600073ffffffffffffffffffffffffffffffffffffffff168273ffffffffffffffffffffffffffffffffffffffff16141561089b57600080fd5b600073ffffffffffffffffffffffffffffffffffffffff168173ffffffffffffffffffffffffffffffffffffffff1614156108d557600080fd5b81600d60006101000a81548173ffffffffffffffffffffffffffffffffffffffff021916908373ffffffffffffffffffffffffffffffffffffffff16021790555080600c60006101000a81548173ffffffffffffffffffffffffffffffffffffffff021916908373ffffffffffffffffffffffffffffffffffffffff1602179055505050565b3373ffffffffffffffffffffffffffffffffffffffff16600d60009054906101000a900473ffffffffffffffffffffffffffffffffffffffff1673ffffffffffffffffffffffffffffffffffffffff161480610a0457503373ffffffffffffffffffffffffffffffffffffffff16600c60009054906101000a900473ffffffffffffffffffffffffffffffffffffffff1673ffffffffffffffffffffffffffffffffffffffff16145b610a43576040517f08c379a0000000000000000000000000000000000000000000000000000000008152600401610a3a90612a10565b60405180910390fd5b80600860006101000a81548160ff02191690831515021790555050565b606060098054610a6f90612d1b565b80601f0160208091040260200160405190810160405280929190818152602001828054610a9b90612d1b565b8015610ae85780601f10610abd57610100808354040283529160200191610ae8565b820191906000526020600020905b815481529060010190602001808311610acb57829003601f168201915b5050505050905090565b60075481565b60003373ffffffffffffffffffffffffffffffffffffffff16600d60009054906101000a900473ffffffffffffffffffffffffffffffffffffffff1673ffffffffffffffffffffffffffffffffffffffff161480610ba357503373ffffffffffffffffffffffffffffffffffffffff16600c60009054906101000a900473ffffffffffffffffffffffffffffffffffffffff1673ffffffffffffffffffffffffffffffffffffffff16145b610be2576040517f08c379a0000000000000000000000000000000000000000000000000000000008152600401610bd990612a10565b60405180910390fd5b6000600a60009054906101000a900473ffffffffffffffffffffffffffffffffffffffff1673ffffffffffffffffffffffffffffffffffffffff166370a08231306040518263ffffffff1660e01b8152600401610c3f919061276c565b60206040518083038186803b158015610c5757600080fd5b505afa158015610c6b573d6000803e3d6000fd5b505050506040513d601f19601f82011682018060405250810190610c8f919061243d565b9050610cde8382600a60009054906101000a900473ffffffffffffffffffffffffffffffffffffffff1673ffffffffffffffffffffffffffffffffffffffff1661174c9092919063ffffffff16565b80915050919050565b60003373ffffffffffffffffffffffffffffffffffffffff16600d60009054906101000a900473ffffffffffffffffffffffffffffffffffffffff1673ffffffffffffffffffffffffffffffffffffffff1614610d4357600080fd5b6000600b60009054906101000a900473ffffffffffffffffffffffffffffffffffffffff1673ffffffffffffffffffffffffffffffffffffffff166370a08231306040518263ffffffff1660e01b8152600401610da0919061276c565b60206040518083038186803b158015610db857600080fd5b505afa158015610dcc573d6000803e3d6000fd5b505050506040513d601f19601f82011682018060405250810190610df0919061243d565b9050610e3f3382600b60009054906101000a900473ffffffffffffffffffffffffffffffffffffffff1673ffffffffffffffffffffffffffffffffffffffff1661174c9092919063ffffffff16565b8091505090565b6000610e8e66038d7ea4c68000610e8066038d7ea4c68000610e72610e6d876005546117d2565b6119d9565b611a1790919063ffffffff16565b611a6190919063ffffffff16565b9050919050565b6000600a60009054906101000a900473ffffffffffffffffffffffffffffffffffffffff16905090565b6000600d60009054906101000a900473ffffffffffffffffffffffffffffffffffffffff16905090565b60045481565b600080600354905060045491509091565b60055481565b600660009054906101000a900463ffffffff1681565b600660089054906101000a900463ffffffff1681565b60008060006002549250600a60009054906101000a900473ffffffffffffffffffffffffffffffffffffffff1691506005549050909192565b600860009054906101000a900460ff16610fba576040517f08c379a0000000000000000000000000000000000000000000000000000000008152600401610fb190612950565b60405180910390fd5b60008111610ffd576040517f08c379a0000000000000000000000000000000000000000000000000000000008152600401610ff490612890565b60405180910390fd5b42600660049054906101000a900463ffffffff1663ffffffff1610611057576040517f08c379a000000000000000000000000000000000000000000000000000000000815260040161104e90612970565b60405180910390fd5b42600660089054906101000a900463ffffffff1663ffffffff16116110b1576040517f08c379a00000000000000000000000000000000000000000000000000000000081526004016110a8906129d0565b60405180910390fd5b6004546110c982600354611a9890919063ffffffff16565b111561110a576040517f08c379a000000000000000000000000000000000000000000000000000000000815260040161110190612910565b60405180910390fd5b600061111582610e46565b90506111218382611abb565b6000600160008573ffffffffffffffffffffffffffffffffffffffff1673ffffffffffffffffffffffffffffffffffffffff1681526020019081526020016000205414156111aa576001600660008282829054906101000a900463ffffffff1661118b9190612b97565b92506101000a81548163ffffffff021916908363ffffffff1602179055505b81600360008282546111bc9190612b41565b9250508190555061121581600160008673ffffffffffffffffffffffffffffffffffffffff1673ffffffffffffffffffffffffffffffffffffffff16815260200190815260200160002054611a9890919063ffffffff16565b600160008573ffffffffffffffffffffffffffffffffffffffff1673ffffffffffffffffffffffffffffffffffffffff168152602001908152602001600020819055506112a7833084600b60009054906101000a900473ffffffffffffffffffffffffffffffffffffffff1673ffffffffffffffffffffffffffffffffffffffff16611b61909392919063ffffffff16565b6112f48382600a60009054906101000a900473ffffffffffffffffffffffffffffffffffffffff1673ffffffffffffffffffffffffffffffffffffffff1661174c9092919063ffffffff16565b505050565b6000600e60009054906101000a900473ffffffffffffffffffffffffffffffffffffffff16905090565b600860009054906101000a900460ff1681565b600080600660049054906101000a900463ffffffff169150600660089054906101000a900463ffffffff1690509091565b600660049054906101000a900463ffffffff1681565b600080600e60009054906101000a900473ffffffffffffffffffffffffffffffffffffffff1673ffffffffffffffffffffffffffffffffffffffff166370a08231846040518263ffffffff1660e01b81526004016113db919061276c565b60206040518083038186803b1580156113f357600080fd5b505afa158015611407573d6000803e3d6000fd5b505050506040513d601f19601f8201168201806040525081019061142b919061243d565b9050600061144c600f5461143e84611bea565b611a6190919063ffffffff16565b905061146360075482611c5a90919063ffffffff16565b92505050919050565b6000600c60009054906101000a900473ffffffffffffffffffffffffffffffffffffffff16905090565b60016020528060005260406000206000915090505481565b3373ffffffffffffffffffffffffffffffffffffffff16600d60009054906101000a900473ffffffffffffffffffffffffffffffffffffffff1673ffffffffffffffffffffffffffffffffffffffff16148061155757503373ffffffffffffffffffffffffffffffffffffffff16600c60009054906101000a900473ffffffffffffffffffffffffffffffffffffffff1673ffffffffffffffffffffffffffffffffffffffff16145b611596576040517f08c379a000000000000000000000000000000000000000000000000000000000815260040161158d90612a10565b60405180910390fd5b60008263ffffffff161415806115b3575060008163ffffffff1614155b6115f2576040517f08c379a00000000000000000000000000000000000000000000000000000000081526004016115e9906128b0565b60405180910390fd5b60008263ffffffff16146116225781600660046101000a81548163ffffffff021916908363ffffffff1602179055505b60008163ffffffff16146116525780600660086101000a81548163ffffffff021916908363ffffffff1602179055505b5050565b60008060606000600b60009054906101000a900473ffffffffffffffffffffffffffffffffffffffff169250600a60009054906101000a900473ffffffffffffffffffffffffffffffffffffffff169350600980546116b490612d1b565b80601f01602080910402602001604051908101604052809291908181526020018280546116e090612d1b565b801561172d5780601f106117025761010080835404028352916020019161172d565b820191906000526020600020905b81548152906001019060200180831161171057829003601f168201915b50505050509150600860009054906101000a900460ff16905090919293565b6117cd8363a9059cbb60e01b848460405160240161176b92919061280a565b604051602081830303815290604052907bffffffffffffffffffffffffffffffffffffffffffffffffffffffff19166020820180517bffffffffffffffffffffffffffffffffffffffffffffffffffffffff8381831617835250505050611c76565b505050565b6117da612272565b6000821161181d576040517f08c379a000000000000000000000000000000000000000000000000000000000815260040161181490612930565b60405180910390fd5b600083141561185b57604051806020016040528060007bffffffffffffffffffffffffffffffffffffffffffffffffffffffff1681525090506119d3565b71ffffffffffffffffffffffffffffffffffff8016831161192357600082607060ff1685901b61188b9190612bd1565b90507bffffffffffffffffffffffffffffffffffffffffffffffffffffffff80168111156118ee576040517f08c379a00000000000000000000000000000000000000000000000000000000081526004016118e5906129b0565b60405180910390fd5b6040518060200160405280827bffffffffffffffffffffffffffffffffffffffffffffffffffffffff168152509150506119d3565b600061193f846e01000000000000000000000000000085611d3d565b90507bffffffffffffffffffffffffffffffffffffffffffffffffffffffff80168111156119a2576040517f08c379a0000000000000000000000000000000000000000000000000000000008152600401611999906129b0565b60405180910390fd5b6040518060200160405280827bffffffffffffffffffffffffffffffffffffffffffffffffffffffff168152509150505b92915050565b60006612725dd1d243ab82600001517bffffffffffffffffffffffffffffffffffffffffffffffffffffffff16611a109190612bd1565b9050919050565b6000611a5983836040518060400160405280601a81526020017f536166654d6174683a206469766973696f6e206279207a65726f000000000000815250611e0b565b905092915050565b600080831480611a89575081838385611a7a9190612c02565b925082611a879190612bd1565b145b611a9257600080fd5b92915050565b6000828284611aa79190612b41565b9150811015611ab557600080fd5b92915050565b6000611ac68361137d565b905080611b1b83600160008773ffffffffffffffffffffffffffffffffffffffff1673ffffffffffffffffffffffffffffffffffffffff16815260200190815260200160002054611a9890919063ffffffff16565b1115611b5c576040517f08c379a0000000000000000000000000000000000000000000000000000000008152600401611b53906128f0565b60405180910390fd5b505050565b611be4846323b872dd60e01b858585604051602401611b82939291906127d3565b604051602081830303815290604052907bffffffffffffffffffffffffffffffffffffffffffffffffffffffff19166020820180517bffffffffffffffffffffffffffffffffffffffffffffffffffffffff8381831617835250505050611c76565b50505050565b60006003821115611c47578190506000611c0f611c08846002611a17565b6001611a98565b90505b81811015611c4157809150611c3a611c33611c2d8584611a17565b83611a98565b6002611a17565b9050611c12565b50611c55565b60008214611c5457600190505b5b919050565b600081831015611c6c57829050611c70565b8190505b92915050565b6000611cd8826040518060400160405280602081526020017f5361666545524332303a206c6f772d6c6576656c2063616c6c206661696c65648152508573ffffffffffffffffffffffffffffffffffffffff16611e6e9092919063ffffffff16565b9050600081511115611d385780806020019051810190611cf891906123eb565b611d37576040517f08c379a0000000000000000000000000000000000000000000000000000000008152600401611d2e90612a30565b60405180910390fd5b5b505050565b6000806000611d4c8686611e86565b9150915060008480611d87577f4e487b7100000000000000000000000000000000000000000000000000000000600052601260045260246000fd5b868809905082811115611da457600182611da19190612c5c565b91505b8083611db09190612c5c565b9250848210611df4576040517f08c379a0000000000000000000000000000000000000000000000000000000008152600401611deb90612990565b60405180910390fd5b611dff838387611f21565b93505050509392505050565b60008083118290611e52576040517f08c379a0000000000000000000000000000000000000000000000000000000008152600401611e49919061284e565b60405180910390fd5b5060008385611e619190612bd1565b9050809150509392505050565b6060611e7d84846000856120d4565b90509392505050565b60008060007fffffffffffffffffffffffffffffffffffffffffffffffffffffffffffffffff80611ee0577f4e487b7100000000000000000000000000000000000000000000000000000000600052601260045260246000fd5b84860990508385611ef19190612c02565b92508281611eff9190612c5c565b915082811015611f1957600182611f169190612c5c565b91505b509250929050565b60008060018319611f329190612b41565b831690508083611f429190612bd1565b92508085611f509190612bd1565b945060018160018319611f639190612b41565b611f6d9190612bd1565b611f779190612b41565b84611f829190612c02565b85611f8d9190612b41565b94506000600190508084611fa19190612c02565b6002611fad9190612c5c565b81611fb89190612c02565b90508084611fc69190612c02565b6002611fd29190612c5c565b81611fdd9190612c02565b90508084611feb9190612c02565b6002611ff79190612c5c565b816120029190612c02565b905080846120109190612c02565b600261201c9190612c5c565b816120279190612c02565b905080846120359190612c02565b60026120419190612c5c565b8161204c9190612c02565b9050808461205a9190612c02565b60026120669190612c5c565b816120719190612c02565b9050808461207f9190612c02565b600261208b9190612c5c565b816120969190612c02565b905080846120a49190612c02565b60026120b09190612c5c565b816120bb9190612c02565b905080866120c99190612c02565b925050509392505050565b606082471015612119576040517f08c379a0000000000000000000000000000000000000000000000000000000008152600401612110906128d0565b60405180910390fd5b612122856121e8565b612161576040517f08c379a0000000000000000000000000000000000000000000000000000000008152600401612158906129f0565b60405180910390fd5b6000808673ffffffffffffffffffffffffffffffffffffffff16858760405161218a9190612755565b60006040518083038185875af1925050503d80600081146121c7576040519150601f19603f3d011682016040523d82523d6000602084013e6121cc565b606091505b50915091506121dc82828661220b565b92505050949350505050565b6000808273ffffffffffffffffffffffffffffffffffffffff163b119050919050565b6060831561221b5782905061226b565b60008351111561222e5782518084602001fd5b816040517f08c379a0000000000000000000000000000000000000000000000000000000008152600401612262919061284e565b60405180910390fd5b9392505050565b604051806020016040528060007bffffffffffffffffffffffffffffffffffffffffffffffffffffffff1681525090565b6000813590506122b2816130ea565b92915050565b6000813590506122c781613101565b92915050565b6000815190506122dc81613101565b92915050565b6000813590506122f181613118565b92915050565b60008151905061230681613118565b92915050565b60008135905061231b8161312f565b92915050565b60006020828403121561233357600080fd5b6000612341848285016122a3565b91505092915050565b6000806040838503121561235d57600080fd5b600061236b858286016122a3565b925050602061237c858286016122a3565b9150509250929050565b6000806040838503121561239957600080fd5b60006123a7858286016122a3565b92505060206123b8858286016122e2565b9150509250929050565b6000602082840312156123d457600080fd5b60006123e2848285016122b8565b91505092915050565b6000602082840312156123fd57600080fd5b600061240b848285016122cd565b91505092915050565b60006020828403121561242657600080fd5b6000612434848285016122e2565b91505092915050565b60006020828403121561244f57600080fd5b600061245d848285016122f7565b91505092915050565b6000806040838503121561247957600080fd5b60006124878582860161230c565b92505060206124988582860161230c565b9150509250929050565b6124ab81612c90565b82525050565b6124ba81612ca2565b82525050565b60006124cb82612b0f565b6124d58185612b25565b93506124e5818560208601612ce8565b80840191505092915050565b60006124fc82612b1a565b6125068185612b30565b9350612516818560208601612ce8565b61251f81612dda565b840191505092915050565b6000612537601083612b30565b915061254282612deb565b602082019050919050565b600061255a600e83612b30565b915061256582612e14565b602082019050919050565b600061257d601a83612b30565b915061258882612e3d565b602082019050919050565b60006125a0602683612b30565b91506125ab82612e66565b604082019050919050565b60006125c3601383612b30565b91506125ce82612eb5565b602082019050919050565b60006125e6602483612b30565b91506125f182612ede565b604082019050919050565b6000612609602683612b30565b915061261482612f2d565b604082019050919050565b600061262c601983612b30565b915061263782612f7c565b602082019050919050565b600061264f601083612b30565b915061265a82612fa5565b602082019050919050565b6000612672601a83612b30565b915061267d82612fce565b602082019050919050565b6000612695601e83612b30565b91506126a082612ff7565b602082019050919050565b60006126b8601183612b30565b91506126c382613020565b602082019050919050565b60006126db601d83612b30565b91506126e682613049565b602082019050919050565b60006126fe600e83612b30565b915061270982613072565b602082019050919050565b6000612721602a83612b30565b915061272c8261309b565b604082019050919050565b61274081612cce565b82525050565b61274f81612cd8565b82525050565b600061276182846124c0565b915081905092915050565b600060208201905061278160008301846124a2565b92915050565b600060808201905061279c60008301876124a2565b6127a960208301866124a2565b81810360408301526127bb81856124f1565b90506127ca60608301846124b1565b95945050505050565b60006060820190506127e860008301866124a2565b6127f560208301856124a2565b6128026040830184612737565b949350505050565b600060408201905061281f60008301856124a2565b61282c6020830184612737565b9392505050565b600060208201905061284860008301846124b1565b92915050565b6000602082019050818103600083015261286881846124f1565b905092915050565b600060208201905081810360008301526128898161252a565b9050919050565b600060208201905081810360008301526128a98161254d565b9050919050565b600060208201905081810360008301526128c981612570565b9050919050565b600060208201905081810360008301526128e981612593565b9050919050565b60006020820190508181036000830152612909816125b6565b9050919050565b60006020820190508181036000830152612929816125d9565b9050919050565b60006020820190508181036000830152612949816125fc565b9050919050565b600060208201905081810360008301526129698161261f565b9050919050565b6000602082019050818103600083015261298981612642565b9050919050565b600060208201905081810360008301526129a981612665565b9050919050565b600060208201905081810360008301526129c981612688565b9050919050565b600060208201905081810360008301526129e9816126ab565b9050919050565b60006020820190508181036000830152612a09816126ce565b9050919050565b60006020820190508181036000830152612a29816126f1565b9050919050565b60006020820190508181036000830152612a4981612714565b9050919050565b6000602082019050612a656000830184612737565b92915050565b6000606082019050612a806000830186612737565b612a8d60208301856124a2565b612a9a6040830184612737565b949350505050565b6000604082019050612ab76000830185612737565b612ac46020830184612737565b9392505050565b6000602082019050612ae06000830184612746565b92915050565b6000604082019050612afb6000830185612746565b612b086020830184612746565b9392505050565b600081519050919050565b600081519050919050565b600081905092915050565b600082825260208201905092915050565b6000612b4c82612cce565b9150612b5783612cce565b9250827fffffffffffffffffffffffffffffffffffffffffffffffffffffffffffffffff03821115612b8c57612b8b612d4d565b5b828201905092915050565b6000612ba282612cd8565b9150612bad83612cd8565b92508263ffffffff03821115612bc657612bc5612d4d565b5b828201905092915050565b6000612bdc82612cce565b9150612be783612cce565b925082612bf757612bf6612d7c565b5b828204905092915050565b6000612c0d82612cce565b9150612c1883612cce565b9250817fffffffffffffffffffffffffffffffffffffffffffffffffffffffffffffffff0483118215151615612c5157612c50612d4d565b5b828202905092915050565b6000612c6782612cce565b9150612c7283612cce565b925082821015612c8557612c84612d4d565b5b828203905092915050565b6000612c9b82612cae565b9050919050565b60008115159050919050565b600073ffffffffffffffffffffffffffffffffffffffff82169050919050565b6000819050919050565b600063ffffffff82169050919050565b60005b83811015612d06578082015181840152602081019050612ceb565b83811115612d15576000848401525b50505050565b60006002820490506001821680612d3357607f821691505b60208210811415612d4757612d46612dab565b5b50919050565b7f4e487b7100000000000000000000000000000000000000000000000000000000600052601160045260246000fd5b7f4e487b7100000000000000000000000000000000000000000000000000000000600052601260045260246000fd5b7f4e487b7100000000000000000000000000000000000000000000000000000000600052602260045260246000fd5b6000601f19601f8301169050919050565b7f43616c6c6572206e6f74206f776e657200000000000000000000000000000000600082015250565b7f696e76616c696420616d6f756e74000000000000000000000000000000000000600082015250565b7f426f74682074696d657374616d702063616e6e6f742062652030000000000000600082015250565b7f416464726573733a20696e73756666696369656e742062616c616e636520666f60008201527f722063616c6c0000000000000000000000000000000000000000000000000000602082015250565b7f546f6b656e20616d6f756e742065786365656400000000000000000000000000600082015250565b7f416d6f756e74206578636565647320746f74616c20616d6f756e7420746f207260008201527f6169736500000000000000000000000000000000000000000000000000000000602082015250565b7f4669786564506f696e743a3a6672616374696f6e3a206469766973696f6e206260008201527f79207a65726f0000000000000000000000000000000000000000000000000000602082015250565b7f53616c6520436f6e747261637420697320496e61637469766500000000000000600082015250565b7f70726f6a656374206e6f74206c69766500000000000000000000000000000000600082015250565b7f46756c6c4d6174683a3a6d756c4469763a206f766572666c6f77000000000000600082015250565b7f4669786564506f696e743a3a6672616374696f6e3a206f766572666c6f770000600082015250565b7f70726f6a6563742068617320656e646564000000000000000000000000000000600082015250565b7f416464726573733a2063616c6c20746f206e6f6e2d636f6e7472616374000000600082015250565b7f43616c6c657220496e76616c6964000000000000000000000000000000000000600082015250565b7f5361666545524332303a204552433230206f7065726174696f6e20646964206e60008201527f6f74207375636365656400000000000000000000000000000000000000000000602082015250565b6130f381612c90565b81146130fe57600080fd5b50565b61310a81612ca2565b811461311557600080fd5b50565b61312181612cce565b811461312c57600080fd5b50565b61313881612cd8565b811461314357600080fd5b5056fea264697066735822122038e6842a5a29cbfc3a00c2499b56b667960f5e848e677aed744e9ef83ca3792464736f6c63430008040033",
  "linkReferences": {},
  "deployedLinkReferences": {}
}