{
  "_format": "hh-sol-artifact-1",
  "contractName": "PublicSale",
  "sourceName": "contracts/PublicSale.sol",
  "abi": [
    {
      "inputs": [
        {
          "internalType": "address",
          "name": "tokenAdd_",
          "type": "address"
        },
        {
          "internalType": "address",
          "name": "principal_",
          "type": "address"
        },
        {
          "internalType": "uint256",
          "name": "price_",
          "type": "uint256"
        },
        {
          "internalType": "uint256",
          "name": "totalTokenSupply_",
          "type": "uint256"
        },
        {
          "internalType": "address",
          "name": "stakedTokenAddress_",
          "type": "address"
        },
        {
          "internalType": "uint256",
          "name": "maxTokenPerUser_",
          "type": "uint256"
        },
        {
          "internalType": "uint32",
          "name": "startTime_",
          "type": "uint32"
        },
        {
          "internalType": "uint32",
          "name": "endTime_",
          "type": "uint32"
        }
      ],
      "stateMutability": "nonpayable",
      "type": "constructor"
    },
    {
      "inputs": [],
      "name": "admin",
      "outputs": [
        {
          "internalType": "address",
          "name": "",
          "type": "address"
        }
      ],
      "stateMutability": "view",
      "type": "function"
    },
    {
      "inputs": [
        {
          "internalType": "bool",
          "name": "status",
          "type": "bool"
        }
      ],
      "name": "changeContractStatus",
      "outputs": [],
      "stateMutability": "nonpayable",
      "type": "function"
    },
    {
      "inputs": [
        {
          "internalType": "address",
          "name": "to_",
          "type": "address"
        }
      ],
      "name": "checkMaxTokenForUser",
      "outputs": [
        {
          "internalType": "uint256",
          "name": "",
          "type": "uint256"
        }
      ],
      "stateMutability": "view",
      "type": "function"
    },
    {
      "inputs": [],
      "name": "contractStatus",
      "outputs": [
        {
          "internalType": "bool",
          "name": "",
          "type": "bool"
        }
      ],
      "stateMutability": "view",
      "type": "function"
    },
    {
      "inputs": [],
      "name": "endTimestamp",
      "outputs": [
        {
          "internalType": "uint32",
          "name": "",
          "type": "uint32"
        }
      ],
      "stateMutability": "view",
      "type": "function"
    },
    {
      "inputs": [],
      "name": "getIpfsId",
      "outputs": [
        {
          "internalType": "string",
          "name": "",
          "type": "string"
        }
      ],
      "stateMutability": "view",
      "type": "function"
    },
    {
      "inputs": [],
      "name": "getProjectTokenAddress",
      "outputs": [
        {
          "internalType": "address",
          "name": "",
          "type": "address"
        }
      ],
      "stateMutability": "view",
      "type": "function"
    },
    {
      "inputs": [],
      "name": "getStakedTokenAddress",
      "outputs": [
        {
          "internalType": "address",
          "name": "",
          "type": "address"
        }
      ],
      "stateMutability": "view",
      "type": "function"
    },
    {
      "inputs": [
        {
          "internalType": "address",
          "name": "owner_",
          "type": "address"
        },
        {
          "internalType": "address",
          "name": "admin_",
          "type": "address"
        }
      ],
      "name": "initialize",
      "outputs": [],
      "stateMutability": "nonpayable",
      "type": "function"
    },
    {
      "inputs": [],
      "name": "maxTokenPerUser",
      "outputs": [
        {
          "internalType": "uint256",
          "name": "",
          "type": "uint256"
        }
      ],
      "stateMutability": "view",
      "type": "function"
    },
    {
      "inputs": [],
      "name": "owner",
      "outputs": [
        {
          "internalType": "address",
          "name": "",
          "type": "address"
        }
      ],
      "stateMutability": "view",
      "type": "function"
    },
    {
      "inputs": [
        {
          "internalType": "address",
          "name": "to_",
          "type": "address"
        },
        {
          "internalType": "uint256",
          "name": "amount",
          "type": "uint256"
        }
      ],
      "name": "participate",
      "outputs": [],
      "stateMutability": "nonpayable",
      "type": "function"
    },
    {
      "inputs": [
        {
          "internalType": "uint256",
          "name": "amount",
          "type": "uint256"
        }
      ],
      "name": "payoutFor",
      "outputs": [
        {
          "internalType": "uint256",
          "name": "",
          "type": "uint256"
        }
      ],
      "stateMutability": "view",
      "type": "function"
    },
    {
      "inputs": [],
      "name": "price",
      "outputs": [
        {
          "internalType": "uint256",
          "name": "",
          "type": "uint256"
        }
      ],
      "stateMutability": "view",
      "type": "function"
    },
    {
      "inputs": [],
      "name": "projectId",
      "outputs": [
        {
          "internalType": "uint32",
          "name": "",
          "type": "uint32"
        }
      ],
      "stateMutability": "view",
      "type": "function"
    },
    {
      "inputs": [
        {
          "internalType": "address",
          "name": "stakeTokenAddress_",
          "type": "address"
        }
      ],
      "name": "setStakedTokenAddress",
      "outputs": [
        {
          "internalType": "address",
          "name": "",
          "type": "address"
        }
      ],
      "stateMutability": "nonpayable",
      "type": "function"
    },
    {
      "inputs": [
        {
          "internalType": "uint32",
          "name": "startTime_",
          "type": "uint32"
        },
        {
          "internalType": "uint32",
          "name": "endTime_",
          "type": "uint32"
        }
      ],
      "name": "setTimeInfo",
      "outputs": [],
      "stateMutability": "nonpayable",
      "type": "function"
    },
    {
      "inputs": [],
      "name": "startTimestamp",
      "outputs": [
        {
          "internalType": "uint32",
          "name": "",
          "type": "uint32"
        }
      ],
      "stateMutability": "view",
      "type": "function"
    },
    {
      "inputs": [],
      "name": "totalAmountRaised",
      "outputs": [
        {
          "internalType": "uint256",
          "name": "",
          "type": "uint256"
        }
      ],
      "stateMutability": "view",
      "type": "function"
    },
    {
      "inputs": [],
      "name": "totalAmountToRaise",
      "outputs": [
        {
          "internalType": "uint256",
          "name": "",
          "type": "uint256"
        }
      ],
      "stateMutability": "view",
      "type": "function"
    },
    {
      "inputs": [],
      "name": "totalParticipatedUser",
      "outputs": [
        {
          "internalType": "uint32",
          "name": "",
          "type": "uint32"
        }
      ],
      "stateMutability": "view",
      "type": "function"
    },
    {
      "inputs": [],
      "name": "totalTokenSupply",
      "outputs": [
        {
          "internalType": "uint256",
          "name": "",
          "type": "uint256"
        }
      ],
      "stateMutability": "view",
      "type": "function"
    },
    {
      "inputs": [
        {
          "internalType": "address",
          "name": "",
          "type": "address"
        }
      ],
      "name": "userToTokenAmount",
      "outputs": [
        {
          "internalType": "uint256",
          "name": "",
          "type": "uint256"
        }
      ],
      "stateMutability": "view",
      "type": "function"
    },
    {
      "inputs": [],
      "name": "withdrawRaisedAmount",
      "outputs": [
        {
          "internalType": "uint256",
          "name": "",
          "type": "uint256"
        }
      ],
      "stateMutability": "nonpayable",
      "type": "function"
    },
    {
      "inputs": [
        {
          "internalType": "address",
          "name": "to_",
          "type": "address"
        }
      ],
      "name": "withdrawRemainingTokens",
      "outputs": [
        {
          "internalType": "uint256",
          "name": "",
          "type": "uint256"
        }
      ],
      "stateMutability": "nonpayable",
      "type": "function"
    },
    {
      "stateMutability": "payable",
      "type": "receive"
    }
  ],
  "bytecode": "0x60806040523480156200001157600080fd5b506040516200319f3803806200319f83398181016040528101906200003791906200020b565b33600d60006101000a81548173ffffffffffffffffffffffffffffffffffffffff021916908373ffffffffffffffffffffffffffffffffffffffff16021790555087600a60006101000a81548173ffffffffffffffffffffffffffffffffffffffff021916908373ffffffffffffffffffffffffffffffffffffffff16021790555086600b60006101000a81548173ffffffffffffffffffffffffffffffffffffffff021916908373ffffffffffffffffffffffffffffffffffffffff160217905550856005819055508460028190555083600e60006101000a81548173ffffffffffffffffffffffffffffffffffffffff021916908373ffffffffffffffffffffffffffffffffffffffff160217905550633b9aca00600f819055508260078190555081600660046101000a81548163ffffffff021916908363ffffffff16021790555080600660086101000a81548163ffffffff021916908363ffffffff1602179055506001600860006101000a81548160ff02191690831515021790555050505050505050506200036a565b600081519050620001d7816200031c565b92915050565b600081519050620001ee8162000336565b92915050565b600081519050620002058162000350565b92915050565b600080600080600080600080610100898b0312156200022957600080fd5b6000620002398b828c01620001c6565b98505060206200024c8b828c01620001c6565b97505060406200025f8b828c01620001dd565b9650506060620002728b828c01620001dd565b9550506080620002858b828c01620001c6565b94505060a0620002988b828c01620001dd565b93505060c0620002ab8b828c01620001f4565b92505060e0620002be8b828c01620001f4565b9150509295985092959890939650565b6000620002db82620002e2565b9050919050565b600073ffffffffffffffffffffffffffffffffffffffff82169050919050565b6000819050919050565b600063ffffffff82169050919050565b6200032781620002ce565b81146200033357600080fd5b50565b620003418162000302565b81146200034d57600080fd5b50565b6200035b816200030c565b81146200036757600080fd5b50565b612e25806200037a6000396000f3fe60806040526004361061016a5760003560e01c80638da5cb5b116100d1578063be1b34331161008a578063f309d68f11610064578063f309d68f1461052d578063f851a4401461056a578063f9af1a9814610595578063fb8130ec146105d257610171565b8063be1b3433146104ac578063c6ee20d2146104d7578063e6fd48bc1461050257610171565b80638da5cb5b146103ac5780639ebe2d0a146103d7578063a035b1fe14610402578063a0a7a1831461042d578063a85adeab14610458578063b64afbe51461048357610171565b80634c664d3e116101235780634c664d3e1461028657806350c50710146102b15780635affbd97146102dc57806378d18533146103195780637927ebf8146103445780637cbb7b461461038157610171565b806313e17306146101765780631ca8b6cb146101b3578063242d7dba146101de5780633fafa12714610209578063485cc955146102345780634b6c36b51461025d57610171565b3661017157005b600080fd5b34801561018257600080fd5b5061019d6004803603810190610198919061209f565b6105fb565b6040516101aa91906124ea565b60405180910390f35b3480156101bf57600080fd5b506101c8610732565b6040516101d59190612782565b60405180910390f35b3480156101ea57600080fd5b506101f3610738565b6040516102009190612782565b60405180910390f35b34801561021557600080fd5b5061021e61073e565b60405161022b919061279d565b60405180910390f35b34801561024057600080fd5b5061025b600480360381019061025691906120c8565b610752565b005b34801561026957600080fd5b50610284600480360381019061027f9190612140565b61084c565b005b34801561029257600080fd5b5061029b610951565b6040516102a89190612580565b60405180910390f35b3480156102bd57600080fd5b506102c66109e3565b6040516102d39190612782565b60405180910390f35b3480156102e857600080fd5b5061030360048036038101906102fe919061209f565b6109e9565b6040516103109190612782565b60405180910390f35b34801561032557600080fd5b5061032e610bd8565b60405161033b9190612782565b60405180910390f35b34801561035057600080fd5b5061036b60048036038101906103669190612192565b610d37565b6040516103789190612782565b60405180910390f35b34801561038d57600080fd5b50610396610d86565b6040516103a391906124ea565b60405180910390f35b3480156103b857600080fd5b506103c1610db0565b6040516103ce91906124ea565b60405180910390f35b3480156103e357600080fd5b506103ec610dda565b6040516103f99190612782565b60405180910390f35b34801561040e57600080fd5b50610417610de0565b6040516104249190612782565b60405180910390f35b34801561043957600080fd5b50610442610de6565b60405161044f919061279d565b60405180910390f35b34801561046457600080fd5b5061046d610dfc565b60405161047a919061279d565b60405180910390f35b34801561048f57600080fd5b506104aa60048036038101906104a59190612104565b610e12565b005b3480156104b857600080fd5b506104c161119f565b6040516104ce91906124ea565b60405180910390f35b3480156104e357600080fd5b506104ec6111c9565b6040516104f99190612565565b60405180910390f35b34801561050e57600080fd5b506105176111dc565b604051610524919061279d565b60405180910390f35b34801561053957600080fd5b50610554600480360381019061054f919061209f565b6111f2565b6040516105619190612782565b60405180910390f35b34801561057657600080fd5b5061057f6112e1565b60405161058c91906124ea565b60405180910390f35b3480156105a157600080fd5b506105bc60048036038101906105b7919061209f565b61130b565b6040516105c99190612782565b60405180910390f35b3480156105de57600080fd5b506105f960048036038101906105f491906121e4565b611323565b005b6000600d60009054906101000a900473ffffffffffffffffffffffffffffffffffffffff1673ffffffffffffffffffffffffffffffffffffffff163373ffffffffffffffffffffffffffffffffffffffff161461068d576040517f08c379a0000000000000000000000000000000000000000000000000000000008152600401610684906125a2565b60405180910390fd5b600073ffffffffffffffffffffffffffffffffffffffff168273ffffffffffffffffffffffffffffffffffffffff1614156106c757600080fd5b81600e60006101000a81548173ffffffffffffffffffffffffffffffffffffffff021916908373ffffffffffffffffffffffffffffffffffffffff160217905550600e60009054906101000a900473ffffffffffffffffffffffffffffffffffffffff169050919050565b60025481565b60035481565b60008054906101000a900463ffffffff1681565b600073ffffffffffffffffffffffffffffffffffffffff168273ffffffffffffffffffffffffffffffffffffffff16141561078c57600080fd5b600073ffffffffffffffffffffffffffffffffffffffff168173ffffffffffffffffffffffffffffffffffffffff1614156107c657600080fd5b81600d60006101000a81548173ffffffffffffffffffffffffffffffffffffffff021916908373ffffffffffffffffffffffffffffffffffffffff16021790555080600c60006101000a81548173ffffffffffffffffffffffffffffffffffffffff021916908373ffffffffffffffffffffffffffffffffffffffff1602179055505050565b3373ffffffffffffffffffffffffffffffffffffffff16600d60009054906101000a900473ffffffffffffffffffffffffffffffffffffffff1673ffffffffffffffffffffffffffffffffffffffff1614806108f557503373ffffffffffffffffffffffffffffffffffffffff16600c60009054906101000a900473ffffffffffffffffffffffffffffffffffffffff1673ffffffffffffffffffffffffffffffffffffffff16145b610934576040517f08c379a000000000000000000000000000000000000000000000000000000000815260040161092b90612742565b60405180910390fd5b80600860006101000a81548160ff02191690831515021790555050565b606060098054610960906129c4565b80601f016020809104026020016040519081016040528092919081815260200182805461098c906129c4565b80156109d95780601f106109ae576101008083540402835291602001916109d9565b820191906000526020600020905b8154815290600101906020018083116109bc57829003601f168201915b5050505050905090565b60075481565b60003373ffffffffffffffffffffffffffffffffffffffff16600d60009054906101000a900473ffffffffffffffffffffffffffffffffffffffff1673ffffffffffffffffffffffffffffffffffffffff161480610a9457503373ffffffffffffffffffffffffffffffffffffffff16600c60009054906101000a900473ffffffffffffffffffffffffffffffffffffffff1673ffffffffffffffffffffffffffffffffffffffff16145b610ad3576040517f08c379a0000000000000000000000000000000000000000000000000000000008152600401610aca90612742565b60405180910390fd5b6000600a60009054906101000a900473ffffffffffffffffffffffffffffffffffffffff1673ffffffffffffffffffffffffffffffffffffffff166370a08231306040518263ffffffff1660e01b8152600401610b3091906124ea565b60206040518083038186803b158015610b4857600080fd5b505afa158015610b5c573d6000803e3d6000fd5b505050506040513d601f19601f82011682018060405250810190610b8091906121bb565b9050610bcf8382600a60009054906101000a900473ffffffffffffffffffffffffffffffffffffffff1673ffffffffffffffffffffffffffffffffffffffff166114cb9092919063ffffffff16565b80915050919050565b60003373ffffffffffffffffffffffffffffffffffffffff16600d60009054906101000a900473ffffffffffffffffffffffffffffffffffffffff1673ffffffffffffffffffffffffffffffffffffffff1614610c3457600080fd5b6000600b60009054906101000a900473ffffffffffffffffffffffffffffffffffffffff1673ffffffffffffffffffffffffffffffffffffffff166370a08231306040518263ffffffff1660e01b8152600401610c9191906124ea565b60206040518083038186803b158015610ca957600080fd5b505afa158015610cbd573d6000803e3d6000fd5b505050506040513d601f19601f82011682018060405250810190610ce191906121bb565b9050610d303382600b60009054906101000a900473ffffffffffffffffffffffffffffffffffffffff1673ffffffffffffffffffffffffffffffffffffffff166114cb9092919063ffffffff16565b8091505090565b6000610d7f66038d7ea4c68000610d7166038d7ea4c68000610d63610d5e87600554611551565b611758565b61179690919063ffffffff16565b6117e090919063ffffffff16565b9050919050565b6000600a60009054906101000a900473ffffffffffffffffffffffffffffffffffffffff16905090565b6000600d60009054906101000a900473ffffffffffffffffffffffffffffffffffffffff16905090565b60045481565b60055481565b600660009054906101000a900463ffffffff1681565b600660089054906101000a900463ffffffff1681565b600860009054906101000a900460ff16610e61576040517f08c379a0000000000000000000000000000000000000000000000000000000008152600401610e5890612682565b60405180910390fd5b60008111610ea4576040517f08c379a0000000000000000000000000000000000000000000000000000000008152600401610e9b906125c2565b60405180910390fd5b42600660049054906101000a900463ffffffff1663ffffffff1610610efe576040517f08c379a0000000000000000000000000000000000000000000000000000000008152600401610ef5906126a2565b60405180910390fd5b42600660089054906101000a900463ffffffff1663ffffffff1611610f58576040517f08c379a0000000000000000000000000000000000000000000000000000000008152600401610f4f90612702565b60405180910390fd5b600454610f708260035461181790919063ffffffff16565b11610fb0576040517f08c379a0000000000000000000000000000000000000000000000000000000008152600401610fa790612642565b60405180910390fd5b6000610fbb82610d37565b9050610fc7838261183a565b6000600160008573ffffffffffffffffffffffffffffffffffffffff1673ffffffffffffffffffffffffffffffffffffffff168152602001908152602001600020541415611050576001600660008282829054906101000a900463ffffffff166110319190612840565b92506101000a81548163ffffffff021916908363ffffffff1602179055505b816003600082825461106291906127ea565b925050819055506110bb81600160008673ffffffffffffffffffffffffffffffffffffffff1673ffffffffffffffffffffffffffffffffffffffff1681526020019081526020016000205461181790919063ffffffff16565b600160008573ffffffffffffffffffffffffffffffffffffffff1673ffffffffffffffffffffffffffffffffffffffff1681526020019081526020016000208190555061114d833084600b60009054906101000a900473ffffffffffffffffffffffffffffffffffffffff1673ffffffffffffffffffffffffffffffffffffffff166118df909392919063ffffffff16565b61119a8382600a60009054906101000a900473ffffffffffffffffffffffffffffffffffffffff1673ffffffffffffffffffffffffffffffffffffffff166114cb9092919063ffffffff16565b505050565b6000600e60009054906101000a900473ffffffffffffffffffffffffffffffffffffffff16905090565b600860009054906101000a900460ff1681565b600660049054906101000a900463ffffffff1681565b600080600e60009054906101000a900473ffffffffffffffffffffffffffffffffffffffff1673ffffffffffffffffffffffffffffffffffffffff166370a08231846040518263ffffffff1660e01b815260040161125091906124ea565b60206040518083038186803b15801561126857600080fd5b505afa15801561127c573d6000803e3d6000fd5b505050506040513d601f19601f820116820180604052508101906112a091906121bb565b905060006112c1600f546112b384611968565b6117e090919063ffffffff16565b90506112d8600754826119d890919063ffffffff16565b92505050919050565b6000600c60009054906101000a900473ffffffffffffffffffffffffffffffffffffffff16905090565b60016020528060005260406000206000915090505481565b3373ffffffffffffffffffffffffffffffffffffffff16600d60009054906101000a900473ffffffffffffffffffffffffffffffffffffffff1673ffffffffffffffffffffffffffffffffffffffff1614806113cc57503373ffffffffffffffffffffffffffffffffffffffff16600c60009054906101000a900473ffffffffffffffffffffffffffffffffffffffff1673ffffffffffffffffffffffffffffffffffffffff16145b61140b576040517f08c379a000000000000000000000000000000000000000000000000000000000815260040161140290612742565b60405180910390fd5b60008263ffffffff16141580611428575060008163ffffffff1614155b611467576040517f08c379a000000000000000000000000000000000000000000000000000000000815260040161145e906125e2565b60405180910390fd5b60008263ffffffff16146114975781600660046101000a81548163ffffffff021916908363ffffffff1602179055505b60008163ffffffff16146114c75780600660086101000a81548163ffffffff021916908363ffffffff1602179055505b5050565b61154c8363a9059cbb60e01b84846040516024016114ea92919061253c565b604051602081830303815290604052907bffffffffffffffffffffffffffffffffffffffffffffffffffffffff19166020820180517bffffffffffffffffffffffffffffffffffffffffffffffffffffffff83818316178352505050506119f4565b505050565b611559611ff0565b6000821161159c576040517f08c379a000000000000000000000000000000000000000000000000000000000815260040161159390612662565b60405180910390fd5b60008314156115da57604051806020016040528060007bffffffffffffffffffffffffffffffffffffffffffffffffffffffff168152509050611752565b71ffffffffffffffffffffffffffffffffffff801683116116a257600082607060ff1685901b61160a919061287a565b90507bffffffffffffffffffffffffffffffffffffffffffffffffffffffff801681111561166d576040517f08c379a0000000000000000000000000000000000000000000000000000000008152600401611664906126e2565b60405180910390fd5b6040518060200160405280827bffffffffffffffffffffffffffffffffffffffffffffffffffffffff16815250915050611752565b60006116be846e01000000000000000000000000000085611abb565b90507bffffffffffffffffffffffffffffffffffffffffffffffffffffffff8016811115611721576040517f08c379a0000000000000000000000000000000000000000000000000000000008152600401611718906126e2565b60405180910390fd5b6040518060200160405280827bffffffffffffffffffffffffffffffffffffffffffffffffffffffff168152509150505b92915050565b60006612725dd1d243ab82600001517bffffffffffffffffffffffffffffffffffffffffffffffffffffffff1661178f919061287a565b9050919050565b60006117d883836040518060400160405280601a81526020017f536166654d6174683a206469766973696f6e206279207a65726f000000000000815250611b89565b905092915050565b6000808314806118085750818383856117f991906128ab565b925082611806919061287a565b145b61181157600080fd5b92915050565b600082828461182691906127ea565b915081101561183457600080fd5b92915050565b6000611845836111f2565b90508061189a83600160008773ffffffffffffffffffffffffffffffffffffffff1673ffffffffffffffffffffffffffffffffffffffff1681526020019081526020016000205461181790919063ffffffff16565b106118da576040517f08c379a00000000000000000000000000000000000000000000000000000000081526004016118d190612622565b60405180910390fd5b505050565b611962846323b872dd60e01b85858560405160240161190093929190612505565b604051602081830303815290604052907bffffffffffffffffffffffffffffffffffffffffffffffffffffffff19166020820180517bffffffffffffffffffffffffffffffffffffffffffffffffffffffff83818316178352505050506119f4565b50505050565b600060038211156119c557819050600061198d611986846002611796565b6001611817565b90505b818110156119bf578091506119b86119b16119ab8584611796565b83611817565b6002611796565b9050611990565b506119d3565b600082146119d257600190505b5b919050565b6000818310156119ea578290506119ee565b8190505b92915050565b6000611a56826040518060400160405280602081526020017f5361666545524332303a206c6f772d6c6576656c2063616c6c206661696c65648152508573ffffffffffffffffffffffffffffffffffffffff16611bec9092919063ffffffff16565b9050600081511115611ab65780806020019051810190611a769190612169565b611ab5576040517f08c379a0000000000000000000000000000000000000000000000000000000008152600401611aac90612762565b60405180910390fd5b5b505050565b6000806000611aca8686611c04565b9150915060008480611b05577f4e487b7100000000000000000000000000000000000000000000000000000000600052601260045260246000fd5b868809905082811115611b2257600182611b1f9190612905565b91505b8083611b2e9190612905565b9250848210611b72576040517f08c379a0000000000000000000000000000000000000000000000000000000008152600401611b69906126c2565b60405180910390fd5b611b7d838387611c9f565b93505050509392505050565b60008083118290611bd0576040517f08c379a0000000000000000000000000000000000000000000000000000000008152600401611bc79190612580565b60405180910390fd5b5060008385611bdf919061287a565b9050809150509392505050565b6060611bfb8484600085611e52565b90509392505050565b60008060007fffffffffffffffffffffffffffffffffffffffffffffffffffffffffffffffff80611c5e577f4e487b7100000000000000000000000000000000000000000000000000000000600052601260045260246000fd5b84860990508385611c6f91906128ab565b92508281611c7d9190612905565b915082811015611c9757600182611c949190612905565b91505b509250929050565b60008060018319611cb091906127ea565b831690508083611cc0919061287a565b92508085611cce919061287a565b945060018160018319611ce191906127ea565b611ceb919061287a565b611cf591906127ea565b84611d0091906128ab565b85611d0b91906127ea565b94506000600190508084611d1f91906128ab565b6002611d2b9190612905565b81611d3691906128ab565b90508084611d4491906128ab565b6002611d509190612905565b81611d5b91906128ab565b90508084611d6991906128ab565b6002611d759190612905565b81611d8091906128ab565b90508084611d8e91906128ab565b6002611d9a9190612905565b81611da591906128ab565b90508084611db391906128ab565b6002611dbf9190612905565b81611dca91906128ab565b90508084611dd891906128ab565b6002611de49190612905565b81611def91906128ab565b90508084611dfd91906128ab565b6002611e099190612905565b81611e1491906128ab565b90508084611e2291906128ab565b6002611e2e9190612905565b81611e3991906128ab565b90508086611e4791906128ab565b925050509392505050565b606082471015611e97576040517f08c379a0000000000000000000000000000000000000000000000000000000008152600401611e8e90612602565b60405180910390fd5b611ea085611f66565b611edf576040517f08c379a0000000000000000000000000000000000000000000000000000000008152600401611ed690612722565b60405180910390fd5b6000808673ffffffffffffffffffffffffffffffffffffffff168587604051611f0891906124d3565b60006040518083038185875af1925050503d8060008114611f45576040519150601f19603f3d011682016040523d82523d6000602084013e611f4a565b606091505b5091509150611f5a828286611f89565b92505050949350505050565b6000808273ffffffffffffffffffffffffffffffffffffffff163b119050919050565b60608315611f9957829050611fe9565b600083511115611fac5782518084602001fd5b816040517f08c379a0000000000000000000000000000000000000000000000000000000008152600401611fe09190612580565b60405180910390fd5b9392505050565b604051806020016040528060007bffffffffffffffffffffffffffffffffffffffffffffffffffffffff1681525090565b60008135905061203081612d93565b92915050565b60008135905061204581612daa565b92915050565b60008151905061205a81612daa565b92915050565b60008135905061206f81612dc1565b92915050565b60008151905061208481612dc1565b92915050565b60008135905061209981612dd8565b92915050565b6000602082840312156120b157600080fd5b60006120bf84828501612021565b91505092915050565b600080604083850312156120db57600080fd5b60006120e985828601612021565b92505060206120fa85828601612021565b9150509250929050565b6000806040838503121561211757600080fd5b600061212585828601612021565b925050602061213685828601612060565b9150509250929050565b60006020828403121561215257600080fd5b600061216084828501612036565b91505092915050565b60006020828403121561217b57600080fd5b60006121898482850161204b565b91505092915050565b6000602082840312156121a457600080fd5b60006121b284828501612060565b91505092915050565b6000602082840312156121cd57600080fd5b60006121db84828501612075565b91505092915050565b600080604083850312156121f757600080fd5b60006122058582860161208a565b92505060206122168582860161208a565b9150509250929050565b61222981612939565b82525050565b6122388161294b565b82525050565b6000612249826127b8565b61225381856127ce565b9350612263818560208601612991565b80840191505092915050565b600061227a826127c3565b61228481856127d9565b9350612294818560208601612991565b61229d81612a83565b840191505092915050565b60006122b56010836127d9565b91506122c082612a94565b602082019050919050565b60006122d8600e836127d9565b91506122e382612abd565b602082019050919050565b60006122fb601a836127d9565b915061230682612ae6565b602082019050919050565b600061231e6026836127d9565b915061232982612b0f565b604082019050919050565b60006123416013836127d9565b915061234c82612b5e565b602082019050919050565b60006123646024836127d9565b915061236f82612b87565b604082019050919050565b60006123876026836127d9565b915061239282612bd6565b604082019050919050565b60006123aa6019836127d9565b91506123b582612c25565b602082019050919050565b60006123cd6010836127d9565b91506123d882612c4e565b602082019050919050565b60006123f0601a836127d9565b91506123fb82612c77565b602082019050919050565b6000612413601e836127d9565b915061241e82612ca0565b602082019050919050565b60006124366011836127d9565b915061244182612cc9565b602082019050919050565b6000612459601d836127d9565b915061246482612cf2565b602082019050919050565b600061247c600e836127d9565b915061248782612d1b565b602082019050919050565b600061249f602a836127d9565b91506124aa82612d44565b604082019050919050565b6124be81612977565b82525050565b6124cd81612981565b82525050565b60006124df828461223e565b915081905092915050565b60006020820190506124ff6000830184612220565b92915050565b600060608201905061251a6000830186612220565b6125276020830185612220565b61253460408301846124b5565b949350505050565b60006040820190506125516000830185612220565b61255e60208301846124b5565b9392505050565b600060208201905061257a600083018461222f565b92915050565b6000602082019050818103600083015261259a818461226f565b905092915050565b600060208201905081810360008301526125bb816122a8565b9050919050565b600060208201905081810360008301526125db816122cb565b9050919050565b600060208201905081810360008301526125fb816122ee565b9050919050565b6000602082019050818103600083015261261b81612311565b9050919050565b6000602082019050818103600083015261263b81612334565b9050919050565b6000602082019050818103600083015261265b81612357565b9050919050565b6000602082019050818103600083015261267b8161237a565b9050919050565b6000602082019050818103600083015261269b8161239d565b9050919050565b600060208201905081810360008301526126bb816123c0565b9050919050565b600060208201905081810360008301526126db816123e3565b9050919050565b600060208201905081810360008301526126fb81612406565b9050919050565b6000602082019050818103600083015261271b81612429565b9050919050565b6000602082019050818103600083015261273b8161244c565b9050919050565b6000602082019050818103600083015261275b8161246f565b9050919050565b6000602082019050818103600083015261277b81612492565b9050919050565b600060208201905061279760008301846124b5565b92915050565b60006020820190506127b260008301846124c4565b92915050565b600081519050919050565b600081519050919050565b600081905092915050565b600082825260208201905092915050565b60006127f582612977565b915061280083612977565b9250827fffffffffffffffffffffffffffffffffffffffffffffffffffffffffffffffff03821115612835576128346129f6565b5b828201905092915050565b600061284b82612981565b915061285683612981565b92508263ffffffff0382111561286f5761286e6129f6565b5b828201905092915050565b600061288582612977565b915061289083612977565b9250826128a05761289f612a25565b5b828204905092915050565b60006128b682612977565b91506128c183612977565b9250817fffffffffffffffffffffffffffffffffffffffffffffffffffffffffffffffff04831182151516156128fa576128f96129f6565b5b828202905092915050565b600061291082612977565b915061291b83612977565b92508282101561292e5761292d6129f6565b5b828203905092915050565b600061294482612957565b9050919050565b60008115159050919050565b600073ffffffffffffffffffffffffffffffffffffffff82169050919050565b6000819050919050565b600063ffffffff82169050919050565b60005b838110156129af578082015181840152602081019050612994565b838111156129be576000848401525b50505050565b600060028204905060018216806129dc57607f821691505b602082108114156129f0576129ef612a54565b5b50919050565b7f4e487b7100000000000000000000000000000000000000000000000000000000600052601160045260246000fd5b7f4e487b7100000000000000000000000000000000000000000000000000000000600052601260045260246000fd5b7f4e487b7100000000000000000000000000000000000000000000000000000000600052602260045260246000fd5b6000601f19601f8301169050919050565b7f43616c6c6572206e6f74206f776e657200000000000000000000000000000000600082015250565b7f696e76616c696420616d6f756e74000000000000000000000000000000000000600082015250565b7f426f74682074696d657374616d702063616e6e6f742062652030000000000000600082015250565b7f416464726573733a20696e73756666696369656e742062616c616e636520666f60008201527f722063616c6c0000000000000000000000000000000000000000000000000000602082015250565b7f546f6b656e20616d6f756e742065786365656400000000000000000000000000600082015250565b7f416d6f756e74206578636565647320746f74616c20616d6f756e7420746f207260008201527f6169736500000000000000000000000000000000000000000000000000000000602082015250565b7f4669786564506f696e743a3a6672616374696f6e3a206469766973696f6e206260008201527f79207a65726f0000000000000000000000000000000000000000000000000000602082015250565b7f53616c6520436f6e747261637420697320496e61637469766500000000000000600082015250565b7f70726f6a656374206e6f74206c69766500000000000000000000000000000000600082015250565b7f46756c6c4d6174683a3a6d756c4469763a206f766572666c6f77000000000000600082015250565b7f4669786564506f696e743a3a6672616374696f6e3a206f766572666c6f770000600082015250565b7f70726f6a6563742068617320656e646564000000000000000000000000000000600082015250565b7f416464726573733a2063616c6c20746f206e6f6e2d636f6e7472616374000000600082015250565b7f43616c6c657220496e76616c6964000000000000000000000000000000000000600082015250565b7f5361666545524332303a204552433230206f7065726174696f6e20646964206e60008201527f6f74207375636365656400000000000000000000000000000000000000000000602082015250565b612d9c81612939565b8114612da757600080fd5b50565b612db38161294b565b8114612dbe57600080fd5b50565b612dca81612977565b8114612dd557600080fd5b50565b612de181612981565b8114612dec57600080fd5b5056fea26469706673582212208e06798646635a95de4d404260cf234fb98a536384142fa7be40b28d653311ac64736f6c63430008040033",
  "linkReferences": {},
  "deployedLinkReferences": {}
}